:100000000C9422040C944A040C944A040C944A0460
:100010000C944A040C944A040C944A040C944A0428
:100020000C944A040C944A040C9440190C94AF1993
:100030000C944A040C944A040C944A040C944A0408
:100040000C944A040C944A040C944A040C944A04F8
:100050000C944A040C944A040C944A040C94E11B3A
:100060000C944A040C944A040C944A040C944A04D8
:100070000C944A040C944A040C944A040C944A04C8
:100080000C944A040C944A040C944A040C944A04B8
:100090000C944A040C944A040C944A040C944A04A8
:1000A0000C944A040C944A040C944A048E00C20036
:1000B000F70031017201BB010F027102E10263031B
:1000C000F903A404660544063D0755088E09E80AAD
:1000D000690C100E1040FE01010101010101FE003A
:1000E000000000000000FF00000000000000FF0012
:1000F000000000000000FF00000000000000FF0002
:10010000000000000000FF000000000000000708E1
:10011000102040800000FF00000000000000FF01F0
:10012000010101010100FF00000000000000FF00CC
:10013000000000000000FF00000000000000FF00C1
:100140000000000000007F808080808080807F0031
:10015000000000000000050307050505070702026F
:100160000302070107040707040604070404070540
:10017000050704070107070507010704040404072E
:100180000705070507070407050705030002020224
:10019000000005050405000600030000030103003C
:1001A0000303000202000300060000020006000331
:1001B000030303000002000200000300020000002D
:1001C0000000003E5B4F5B3E3E6B4F6B3E1C3E7C37
:1001D0003E1C183C7E3C181C577D571C1C5E7F5EE5
:1001E0001C00183C1800FFE7C3E7FF0018241800A4
:1001F000FFE7DBE7FF30483A060E2629792926403B
:100200007F050507407F05253F5A3CE73C5A7F3E66
:100210001C1C08081C1C3E7F14227F22145F5F00F8
:100220005F5F06097F017F006689956A6060606094
:100230006094A2FFA29408047E040810207E20107F
:1002400008082A1C08081C2A08081E101010100C88
:100250001E0C1E0C30383E3830060E3E0E060000D6
:1002600000000000005F00000007000700147F147A
:100270007F14242A7F2A12231308646236495620E9
:10028000500008070300001C2241000041221C000E
:100290002A1C7F1C2A08083E0808008070300008CD
:1002A00008080808000060600020100804023E51A1
:1002B00049453E00427F4000724949494621414933
:1002C0004D331814127F1027454545393C4A49499A
:1002D0003141211109073649494936464949291E04
:1002E00000001400000040340000000814224114F3
:1002F00014141414004122140802015909063E4145
:100300005D594E7C1211127C7F494949363E41416C
:1003100041227F4141413E7F494949417F090909C5
:10032000013E414151737F0808087F00417F410031
:100330002040413F017F081422417F404040407FE0
:10034000021C027F7F0408107F3E4141413E7F092D
:100350000909063E4151215E7F091929462649496E
:10036000493203017F01033F4040403F1F204020AE
:100370001F3F4038403F63140814630304780403AC
:100380006159494D43007F4141410204081020005A
:100390004141417F040201020440404040400003CB
:1003A00007080020545478407F2844443838444497
:1003B0004428384444287F385454541800087E098F
:1003C0000218A4A49C787F0804047800447D4000AF
:1003D0002040403D007F1028440000417F40007CC9
:1003E000047804787C080404783844444438FC18C1
:1003F00024241818242418FC7C08040408485454A5
:10040000542404043F44243C4040207C1C204020D1
:100410001C3C4030403C44281028444C9090907C38
:100420004464544C4400083641000000770000004A
:100430004136080002010204023C2623263C1EA18C
:10044000A161123A4040207A3854545559215555EB
:10045000794121545478412155547840205455799C
:10046000400C1E527212395555555939545454592D
:1004700039555454580000457C410002457D4200E6
:1004800001457C40F0292429F0F0282528F07C54EF
:100490005545002054547C547C0A097F493249490F
:1004A00049323248484832324A4848303A4141217C
:1004B0007A3A42402078009DA0A07D3944444439D6
:1004C0003D4040403D3C24FF2424487E4943662B68
:1004D0002FFC2F2BFF0929F620C0887E090320540A
:1004E0005479410000447D413048484A3238404008
:1004F000227A007A0A0A727D0D19317D2629292F68
:1005000028262929292630484D402038080808087F
:1005100008080808382F10C8ACBA2F102834FA0081
:10052000007B000008142A142222142A14089500C3
:10053000220095AA005500AAAA55AA55AA000000B3
:10054000FF00101010FF00141414FF001010FF0023
:10055000FF1010F010F0141414FC001414F700FF36
:100560000000FF00FF1414F404FC141417101F10F3
:10057000101F101F1414141F00101010F0000000A2
:10058000001F101010101F10101010F010000000AD
:10059000FF101010101010101010FF10000000FFBE
:1005A000140000FF00FF00001F10170000FC04F4FF
:1005B00014141710171414F404F40000FF00F714B7
:1005C000141414141414F700F7141414171410103E
:1005D0001F101F141414F4141010F010F000001F5A
:1005E000101F0000001F14000000FC140000F01099
:1005F000F01010FF10FF141414FF141010101F003F
:10060000000000F010FFFFFFFFFFF0F0F0F0F0FF40
:10061000FFFF0000000000FFFF0F0F0F0F0F384417
:100620004438447C2A2A3E147E02020606027E02D8
:100630007E0263554941633844443C04407E201E99
:100640002006027E020299A5E7A5991C2A492A1CC8
:100650004C7201724C304A4D4D303048784830BCB5
:10066000625A463D3E494949007E0101017E2A2ADF
:100670002A2A2A44445F444440514A444040444A60
:1006800051400000FF0103E080FF000008086B6B91
:10069000083612362436060F090F06000018180017
:1006A00000001010003040FF0101001F01011E007A
:1006B000191D1712003C3C3C3C0000000000D5F026
:1006C0008D14A1C881CFD9F1AF2000070707030817
:1006D0000002000708000000000000001F40FE416B
:1006E00045418181010101F1F93939F9F9F9F9F946
:1006F000F9F9F9F9B9B9B939F9010501FEFF000CA9
:100700000C0000FF0000FFFF48F8FF07F39B2B4B96
:100710009BF307FA0BFA09FF000000FFFF00030339
:100720000000FF0000FFFF25FFFF00C0C1C1DDC1C9
:100730000000FF00FF00FF000000FF090808080894
:1007400008C90888C9C9C9C9C98808C8C8C8C8C8E3
:10075000C8C908C9C8C9C8C8C8C9636363E363C353
:100760008F00676C6CECECEC6700E06060676C6CB1
:1007700067006060E0E76C6CE7363636F73633F1D9
:10078000000606070707060600373030F030E0C0E5
:1007900000F63331F33636F3F81818791B1BF900DD
:1007A0000000000000000000636363F39B99980061
:1007B000F39880F01898F301000000000001000099
:1007C000000000000000000C1C3C7C3D1D0D00786A
:1007D000CDC1780CCD78080B00020202000009049C
:1007E000000001020200000524001001052401019F
:1007F00001042402060524060001070581031000F8
:100800004009040100020A0000000705020240003E
:1008100000070583024000000403090412010002DE
:10082000EF020140412336800001010203014172C1
:100830006475696E6F204C4C430041726475626F41
:1008400079005E1C11241FBECFEFDAE0DEBFCDBF02
:1008500011E0A0E0B1E0EAE9F1E602C005900D92F6
:10086000A637B107D9F728E0A6E7B1E001C01D928D
:10087000A531B207E1F714E0C2E2D4E004C0219749
:10088000FE010E94BE30C132D107C9F70E94BE1CD2
:100890000C94CB300C940000CF93DF9300D000D0A9
:1008A00000D01F92CDB7DEB7482FFE01319687E00A
:1008B000DF011D928A95E9F727ED37E0D9018D9187
:1008C0009D01DF01A80FB11D9C919F5F9C93B7E034
:1008D0002C3D3B0799F7E60FF11D862F873038F442
:1008E0009191941302C0681718F08F5FF7CF80E0E2
:1008F00027960FB6F894DEBF0FBECDBFDF91CF9124
:100900000895E7EDF7E085A786A787A780AB81ABC1
:100910000895382F2091DC07E7EDF7E090E080E0C4
:10092000291739F04285431301C08F5F9F5F3396CB
:10093000F7CF089590E023E03091DC07931758F447
:10094000929FF0011124EF51F84F3081381301C00C
:1009500061839F5FF1CF089590E023E03091DC0741
:10096000931758F4929FF0011124EF51F84F308102
:10097000381301C062839F5FF1CF08956F927F9219
:100980008F929F92AF92BF92CF92DF92EF92FF929F
:100990000F931F93CF93DF9300D000D000D01F920E
:1009A000CDB7DEB71092E2071092E3071092E50789
:1009B0001092E6071092E8071092E9071092EB07F1
:1009C0001092EC071092EE071092EF071092F107C9
:1009D0001092F2079E012F5F3F4F87E0F9011192BD
:1009E0008A95E9F747ED57E08A01F801A1918F0157
:1009F000A20FB32FB11D8C918F5F8C93F7E00C3D4C
:100A00001F0799F7CE010296BE01685F7F4FDC0198
:100A100020E03D91231708F4232F6A177B07C9F7BD
:100A200030E0D12CFC016191CF01623009F0D9C1D5
:100A3000D3948A179B07B1F76A808B81662061F097
:100A4000882351F09C81992339F09D81992321F0CD
:100A500091E06E81611101C090E07F80882361F098
:100A60008C81882349F08D81882331F08E81882301
:100A700019F081E0711001C080E09111892F882464
:100A8000839499249394FA019191AF0190FDAEC1A2
:100A9000812C04171507B9F7253009F0A9C1109169
:100AA0001008DD24D39485E0A82EB12C0EE0183078
:100AB00029F0D12CB12CA12C0EE018E09EE1E92EFA
:100AC000F12C80E00E948904C82E882349F08EEF23
:100AD000810F823008F02FC261E080E00E94AC04F8
:100AE00081E00E948904882349F0912F9D7F9530F1
:100AF00029F4C80E61E081E00E94AC0482E00E940B
:100B00008904882349F0912F9D7F943029F4C80EE1
:100B100061E082E00E94AC0481E10E9489048823A4
:100B200059F0912F9D7F943011F0183029F4C80EA0
:100B300063E081E10E94AC0488E00E94890488237C
:100B400039F0992029F0C80E61E088E00E94AC04D9
:100B500089E00E948904882339F0882029F0C80E92
:100B600061E089E00E94AC0483E00E948904912C3A
:100B7000812C882341F0EAE08E9F400111246AE035
:100B800083E00E949A0486E00E948904882389F009
:100B9000F3E08F9FC0011124789E9001799E300D63
:100BA0001124820E931E672D660F670D86E00E944A
:100BB0009A0487E00E948904882389F023E0829FB9
:100BC000C0011124689E9001699E300D1124820E8F
:100BD000931E662D660F660D87E00E949A048AE0D8
:100BE0000E948904882369F09091DF07911109C060
:100BF0009FE0899F800C911C11246FE08AE00E9485
:100C00009A048EE00E948904882359F12091D70725
:100C100030E0A9014F5F5F4F9091D80794171506F8
:100C200001F52E5F3F4F9091D90792171306C9F433
:100C30004091DA0750E0BA016F5F7F4F2617370700
:100C400081F42091DB0730E02F5F3F4F42175307BD
:100C500041F4E3E08E9FC00C112463E08EE00E941B
:100C6000AC048FE00E948904882369F0F2E07F12CF
:100C70000AC06F1208C023E0829FC00C112463E0F9
:100C80008FE00E94AC0480E10E948904882361F116
:100C90002091D80730E09091D707A9014150510920
:100CA0009417150609F54091D90750E0BA01615033
:100CB000710926173707C1F42091DA0730E0B9012E
:100CC000615071094617570779F44091DB0741508D
:100CD000550B2417350741F493E0899FC00C11246C
:100CE00063E080E10E94AC0482E10E9489048823D1
:100CF00059F0E3E0E71540F4F3E08F9FC00C1124B6
:100D000063E082E10E94AC0483E10E9489048823AD
:100D100049F029E1829F800C911C112469E183E153
:100D20000E949A048091D8079091D707890F9091DB
:100D3000D907890F9091DA07890F9091DB07890F06
:100D400090E09093F4078093F307F092F607E09217
:100D5000F5070093FD079092F8078092F707C0927D
:100D6000FE07B092FA07A092F907D092FF07EA0CAB
:100D7000FB1C8E0D9F1D880E991E9092FC07809281
:100D8000FB070D0DC00EC092000810930308C89C0D
:100D90007001C99CF00C11248091E007882339F080
:100DA0008DE00E948904882311F0EE0CFF1CF09264
:100DB0000208E0920108C70127960FB6F894DEBF3B
:100DC0000FBECDBFDF91CF911F910F91FF90EF909C
:100DD000DF90CF90BF90AF909F908F907F906F905B
:100DE0000895633009F025CE3F5F23CE912C51CE7C
:100DF000882389F010911008DD24D39405E0A02EFB
:100E0000B12C0BE0173009F459CED12CB12CA12C08
:100E10000BE017E053CE243099F410911008DD2434
:100E2000D394B5E0AB2EB12C08E0163029F0D12CCC
:100E3000B12CA12C08E016E0A9E1EA2EF12C41CE5C
:100E40002330A1F4F1E0DF1211C010911008F5E099
:100E5000AF2EB12C06E0153029F0D12CB12CA12CED
:100E600006E015E0E4E1EE2EF12C2BCE313099F4C2
:100E700010911008DD24D39475E0A72EB12C04E066
:100E8000143029F0D12CB12CA12C04E014E03FE067
:100E9000E32EF12C16CE22E0D21213C010911008CE
:100EA000DD24D39465E0A62EB12C03E0133029F0A5
:100EB000D12CB12CA12C03E013E05AE0E52EF12C4B
:100EC00000CE81E0D81211C01091100845E0A42E88
:100ED000B12C02E0123029F0D12CB12CA12C02E06F
:100EE00012E085E0E82EF12CECCD91E0791216C0ED
:100EF00069121CC080911008D12CB12CA12C81301A
:100F000029F4DD24D39495E0A92EB12C8BE00E9426
:100F1000890402E011E08111BACFE3CFD12CB12CCA
:100F2000A12C01E010E0F12CE12CCBCD01E0D12C83
:100F3000B12CA12CF7CFC12CD3CDEDE0F7E0A1E08F
:100F4000B0E060E070E080E00E94480A9D01AF01DF
:100F500060E00E94BC078217930751F4D901FA019F
:100F600060E00E94C10781931197D9F761E0F1CF4A
:100F70000E94C707862F08950E94C107982F0C94DE
:100F8000C1070DB407FEFDCF8EB51EBC08950DB48C
:100F900007FEFDCF8EB5599A08955E98EDE0F3E017
:100FA00081E0A0E0B8E000800EBC8111012C119717
:100FB000A0FDFDCF0192B9F70DB45E9A08956F922E
:100FC0007F928F929F92AF92BF92CF92DF92EF92D9
:100FD000FF920F931F93CF93DF936C01CB013A01E4
:100FE0007E2DFA01649131965491F2E06F0E711CDE
:100FF000C62FD0E0222301F1E1E0F0E0352F377079
:1010000011F4F0E0E0E0A52FA695A695A695AE0F09
:10101000BF2FB11DAC9FF001AD9FF00DBC9FF00D37
:101020001124733011F4EE0FFF1F2E9FD0012F9F5C
:10103000B00D11246A0E7B1ED601AC0FBD1F1A160F
:101040001B060CF06CC020E8C216D1040CF067C07F
:101050009C01250F311D121613060CF060C0803460
:1010600091050CF05CC06114710409F458C0382F6C
:101070003770FC0197FD379623E0F595E7952A95A3
:10108000E1F72E2F97FF04C0332311F02FEF2E0F1F
:10109000EE27FF27EC19FD09D7FC02C0F0E0E0E0E5
:1010A00090E89C19A038B1050CF4962F9E1BA22F36
:1010B000022E000CBB0B4A2F40952F3F0CF040E056
:1010C000BB24B394852F877009F4B12C569556959F
:1010D0005695B50EAB0DB11D19971CF058E0B52E05
:1010E000B21AB41A240F50E82503D0011124AC0D14
:1010F000BD1DAE0FBF1F649FE00DF11D11246E0ECC
:101100007F1EC32E032E000CDD08733009F417C1B7
:10111000A8F4713009F4CAC0723009F478C0DF91C4
:10112000CF911F910F91FF90EF90DF90CF90BF90E4
:10113000AF909F908F907F906F9008957A3FB1F11C
:101140000B2D020F7B3F59F7201749F3BD01635F59
:101150007C4FF12CE12CE91608F0A2C0F301EE0D52
:10116000FF1DE491F0E0AF010C2C02C0440F551FAD
:101170000A94E2F727FD06C0FB018081142F109529
:1011800081238083332361F0273054F45B01F0E83E
:10119000AF0EB11C452F4095F501808184238083DB
:1011A000FFEFEF1AFF0A6F5F7F4FD5CF0B2D020FB6
:1011B000201709F4B4CFBD01635F7C4FF12CE12C03
:1011C000E91608F067C0F301EE0DFF1DE491F0E0B1
:1011D000AF010C2C02C0440F551F0A94E2F727FD03
:1011E00004C0FB018081842B8083332351F027309E
:1011F00044F45B01F0E8AF0EB11CF5018081852B52
:101200008083FFEFEF1AFF0A6F5F7F4FD9CF6FEF39
:1012100070E0032E02C0660F771F0A94E2F7609514
:101220007095972E8B2C820E281509F478CF8D019E
:10123000035F1C4FF12CE12CE91630F5F301EE0DA4
:10124000FF1DE491F0E0AF010C2C02C0440F551FCC
:101250000A94E2F727FD05C0F80180818623842BDC
:101260008083332359F027304CF45801F0E8AF0E57
:10127000B11CF50180818921852B8083FFEFEF1A56
:10128000FF0A0F5F1F4FD8CF2F5F6C0E7D1EA05837
:10129000BF4FCACF2F5F6C0E7D1EA058BF4F88CFA7
:1012A0002F5F6C0E7D1EA058BF4F4ECF0E0F1F1F1D
:1012B0008B2D820F281709F432CFBD01635F7C4F5D
:1012C000F12CE12CE91698F5F801EE0DFF1DA49024
:1012D000B12C0C2C02C0AA0CBB1C0A94E2F7A094FF
:1012E000B094F301EE0DFF1D8490912C0C2C02C0E4
:1012F000880C991C0A94E2F727FD08C0FB01408185
:10130000E42FEA214E2F4829FB014083332349F083
:1013100027303CF4FB01E058FF4FA080BA20B928E9
:10132000B082FFEFEF1AFF0A6F5F7F4FCBCF2F5FC7
:101330006C0E7D1E0C0F1D1FA058BF4FBBCFE92E9A
:10134000F12CE60DF71DA35FBC4F60E870E06E194D
:101350007F09CE19DF09AE01440F551FC1E0D0E06F
:101360007E01032E01C0EE0C0A94EAF7192F0B2D13
:10137000892E932ECF93DF93ED01EF96EF96229671
:10138000A590C590992059F0AE9C5001CE9C60016B
:1013900027302CF4F880D094FD20FB28F9922223EA
:1013A0003AF0FC90C094FC20FA28FD920C94D909E4
:1013B00011961A9529F70A9551F0182D23951124A5
:1013C000E40FF11DA60FB11DC60FD11DD9CFDF91BE
:1013D000CF911124A4CE21E030E0EDE0F7E0A0E0D1
:1013E000B0E0BD0180E00E94480A0E94370ABD01BA
:1013F0001296A20FB31F8217930799F38F5F9F4F27
:1014000021F4AF5FBF40DB0178F00E942C0E40E07A
:1014100050910B0360910C0380E20E943C0A599AA0
:101420000E94CD0CA0E0B0E07CEF0E942C0E4A2F71
:1014300050910B035B0F60910C03611D82E00E94D1
:101440003C0A832F71FD822F70FD81910E94540A06
:10145000759518F42150304019F01196AA2389F798
:10146000599A0E94CD0C21153105F9F608950E9474
:10147000C107982F0C94C70759980E94540A862FC9
:101480000E94540A852F0E94540A842F0C94540AF7
:10149000462F50910B03570F60910C03681F83E098
:1014A0000E943C0A1EBC08958EBD00008EB50DB48E
:1014B00007FEFCCF0895FC019091D6079C3379F08C
:1014C00020813181E92FF0E0EE0FFF1FE25AF84F43
:1014D000318320839F5F9093D60781E0089580E059
:1014E0000895FC0180910A03882311F13FB7F89415
:1014F00082E08093E9002091F200822F90E018169C
:10150000190614F481E090E0882339F0289844E625
:10151000409309034091F1004083222339F0209148
:10152000F200211103C02BE62093E8003FBF08958D
:101530008FEF9FEF08952FB7F89483E08093E90031
:101540009091E800892F807295FF04C09091F2007D
:1015500080E4891B2FBF08958091010381110DC084
:1015600082E08093FD0284E08093FE0210920003EB
:101570001092FF0281E0809301038DEF92E00895C5
:10158000CF93DF931F92CDB7DEB76983DC01ED9176
:10159000FC910280F381E02D41E050E0BE016F5FDD
:1015A0007F4F09950F90DF91CF91089583E080934D
:1015B000E9008091F200882319F08AE38093E80023
:1015C00008950E949B0A90E00895CF93DF931F92A5
:1015D000CDB7DEB7FC018485958597FD08C02FEF58
:1015E0003FEF358724870F90DF91CF910895CE018B
:1015F00001960E94710A019719F4898190E0F3CF56
:101600008FEF9FEFF0CF0F931F93CF93DF931F9236
:10161000CDB7DEB78C01FC018485958597FF0BC0A3
:10162000CE0101960E94710A019771F4898190E0C0
:10163000F80195878487F801848595850F90DF915F
:10164000CF911F910F9108958FEF9FEFF1CFFC0184
:101650008485958597FD0BC09FB7F89482E08093B1
:10166000E9008091F2009FBF90E0019608959FB736
:10167000F89482E08093E9008091F2009FBF90E0AF
:1016800008954091F7025091F8022091F5023091AF
:10169000F60242175307B4F49091E8009570E1F315
:1016A0009091E80092FD19C08093F1008091F702BB
:1016B0009091F80201968F739927892B19F48EEF78
:1016C0008093E8008091F7029091F8020196909340
:1016D000F8028093F70281E0089580E00895DF9298
:1016E000EF92FF920F931F93CF93DF93D82E8A012F
:1016F000EB017B01E40EF51ECE15DF0559F0D7FE98
:1017000012C0FE0184910E94410B21968111F4CFF9
:101710000FEF1FEFC801DF91CF911F910F91FF9045
:10172000EF90DF9008958881EECF0F931F93CF93B2
:10173000DF931F92CDB7DEB782E0898342E450E0A9
:1017400066ED77E080E80E946F0B0E94AC0ADC0136
:1017500012960D911C910115110589F0D801ED919A
:10176000FC910280F381E02DBE016F5F7F4FC801C5
:10177000099597FD04C0F80100851185ECCF89819A
:101780000F90DF91CF911F910F910895615030F02C
:101790002091F100FC0120830196F8CF289884E67F
:1017A000809309030895AF92BF92CF92DF92EF9298
:1017B000FF920F931F93CF93DF936C017B018B01FB
:1017C000040F151FEB015E01AE18BF08C017D1074B
:1017D00059F06991D601ED91FC910190F081E02DD5
:1017E000C6010995892B79F7C501DF91CF911F912A
:1017F0000F91FF90EF90DF90CF90BF90AF90089542
:10180000EF920F931F933AEFE32E10E000E00E9457
:10181000DF071F910F91EF9008958FB18095807F22
:10182000669B88601C9B846008959091DA029823DF
:1018300029F49091DB02982381E009F480E0089577
:1018400080389105B8F460347105A0F490E121E08E
:1018500061FD24E060FD220F62FD2295687F969F66
:10186000D0011124A80FA35FBC4F0C90022A40FFA7
:1018700002260C920895AF92BF92CF92DF92EF9220
:10188000FF920F931F93CF93DF93EC016B015C01E9
:1018900087E0A80EB11C7B01E40EF11CCA15DB0524
:1018A00071F086010E151F0544F440E0B801CE0129
:1018B0000E94200C0F5F1F4FF5CF2196EFCFDF91D5
:1018C000CF911F910F91FF90EF90DF90CF90BF903D
:1018D000AF9008958F929F92AF92BF92CF92DF9276
:1018E000EF92FF920F931F93CF93DF936D3089F0A8
:1018F000C090D802D090D9026A30D1F41092D702A9
:101900001092D60288E0C80ED11CD092D902C092A3
:10191000D80281E090E0DF91CF911F910F91FF906D
:10192000EF90DF90CF90BF90AF909F908F900895F1
:101930000091D6021091D702E5E06E9FE0011124DC
:10194000C254DE4F4801F12CF5E0E12CFF1629F0DE
:10195000CE010196FE01E490EC01B12CA12C4E2D9C
:101960004170B6016A0D7B1DC4010E94200CE694F3
:10197000FFEFAF1ABF0A88E0A816B10481F7F3940D
:10198000EFEF8E1A9E0AF6E0FF12DECF0A5F1F4FBE
:101990001093D7020093D602BCCF599885E00E94DD
:1019A000540A80E00E94540A80FDFBCF599A0895A2
:1019B00090E0409F09F4142E5527090E151E600D66
:1019C000711D851F11240C94F30C0F9303E020E08C
:1019D0000E94D80C0E94BC07782F0E94C707682F6E
:1019E000892F0F910895462F50918601570F6091CE
:1019F0008701681F83E00E943C0A1EBC08953F9245
:101A00004F925F926F927F928F929F92AF92BF920E
:101A1000CF92DF92EF92FF920F931F93CF93DF93BA
:101A20006C015B013901842E302E9E2C842FB9016C
:101A30000E94F30C0E94BC07482EC82FD92F0E9489
:101A4000370AFC019E012C0D3D1D121613060CF0E9
:101A5000E2C080E8C816D1040CF0DDC0CF018A0DC9
:101A60009B1D181619060CF0D6C0D7FE0BC0EE242D
:101A7000FF24EC18FD084E18203831055CF040E8D2
:101A8000442E08C0213831051CF020E8422E4C18A5
:101A9000F12CE12CB7FED1C05E2EE134F1051CF033
:101AA00080E4582E5A1810E000E01595079515951A
:101AB000079515950795CF01079696958795969565
:101AC000879596958795389E9001399E300D112403
:101AD000200F311F40E0BE010D2E000C880B0E942C
:101AE0008C30A82FCB018E0D9F1DA11DF7FCAA9550
:101AF00094FE05C0880F991FAA1FCC0FDD1F24E09C
:101B0000620E711C811C680E791E8A1EC50123E0BD
:101B1000959587952A95E1F7080F31E0A1FC34E00F
:101B2000A0FC330FA2FC329520E80203D00111245F
:101B3000AC0DBD1DAE0DBF1DA35FBC4F252D59982B
:101B400083E08EBD8091860190918701870D981D5D
:101B50000DB407FEFDCF9EBD0DB407FEFDCF8EBDBB
:101B60000DB407FEFDCF6EBC6C0E7D1E811C0DB446
:101B700007FEFDCF1EBC990C073014F4089430FD0D
:101B80008894979462E021FD68E022FD629520FF31
:101B900066956A9511F028300CF06FEF942D0EB415
:101BA0001EBC93FC0626862F90FC802D92FC002400
:101BB000039EA00194FA36F4C895C89511240EB47A
:101BC0001EBC90FC082E039E003034F08C9191FED8
:101BD0004827402148274C93A058BF4F97FE06C086
:101BE0008C9191FE5827512158275C93112495FC24
:101BF000A15895FEAF57B1099A9589F6842D95FEA7
:101C000081958058A80FB11D285003950DB4599A9D
:101C100012160CF494CFDF91CF911F910F91FF908A
:101C2000EF90DF90CF90BF90AF909F908F907F907C
:101C30006F905F904F903F9008955E2E8134910594
:101C40001CF080E4582E5A1810E000E034CF599868
:101C50000E94540A599A089586E00C94270EFC01BC
:101C60000E94CA0E319728F068517C4F8F4F9F4FCA
:101C7000F9CFAB01FC010E94CA0E641775078E07ED
:101C80009F07C8F3089585E090E00C942F0E8F9283
:101C90009F92AF92BF92CF92DF92EF92FF920F93FB
:101CA0001F93CF93DF936C017B018A018091100118
:101CB000882309F45AC080910A03882309F455C087
:101CC0008091FC0280FF05C08091E00082608093DB
:101CD000E000E801B12C8AEFA82E93E0892E2AE3D8
:101CE000922E209711F4BB20C9F10E949B0A81110A
:101CF00008C0AA94AA20C9F181E090E00E942F0EAA
:101D0000F0CF8C171D0611F00CF08C2F9FB7F894B4
:101D10008092E9002091E80025FD02C09FBFE1CF3D
:101D2000282F30E0C21BD30BF701815020F04191E6
:101D30004093F100FACFE20EF31EBB2021F0909207
:101D4000E800B12CEBCF8091E80085FDE7CF9092C1
:101D5000E800BB24B394209709F3F3CF5D9884E6A1
:101D60008093FB02101611063CF081E090E0F60132
:101D70009383828310E000E0C801DF91CF911F912F
:101D80000F91FF90EF90DF90CF90BF90AF909F901A
:101D90008F900895A2E8B1E02FB7F8947D918D91CE
:101DA0009C9166B52FBFA89B05C06F3F18F47F5F5D
:101DB0008F4F9F4F22E0660F771F881F991F2A952C
:101DC000D1F70895089590E080E008958F3F59F08D
:101DD0008370823031F0833011F0813021F481E062
:101DE000089582E0089580E008950F931F93CF93A4
:101DF000DF9300D0CDB7DEB701E210E01A8309838C
:101E0000CE0101960E945B0A1A830983CE010196D6
:101E10000E945B0A00E210E01A830983CE0101965A
:101E20000E945B0A1A830983CE0101960E945B0A15
:101E30000FE110E01A830983CE0101960E945B0A2C
:101E40001A830983CE0101960E945B0A0EE110E01D
:101E50001A830983CE0101960E945B0A1A830983C3
:101E6000CE0101960E945B0A0DE110E01A830983FE
:101E7000CE0101960E945B0A1A830983CE01019666
:101E80000E945B0A0CE110E01A830983CE010196DF
:101E90000E945B0A1A830983CE0101960E945B0AA5
:101EA0000BE110E01A830983CE0101960E945B0AC0
:101EB0001A830983CE0101960E945B0A0AE110E0B1
:101EC0001A830983CE0101960E945B0A1A83098353
:101ED000CE0101960E945B0A09E110E01A83098392
:101EE000CE0101960E945B0A1A830983CE010196F6
:101EF0000E945B0A08E110E01A830983CE01019673
:101F00000E945B0A1A830983CE0101960E945B0A34
:101F10000F900F90DF91CF911F910F9108950F9324
:101F20001F93CF93DF9300D0CDB7DEB70BE010E067
:101F30001A830983CE0101960E945B0A1A830983E2
:101F4000CE0101960E945B0A1A821982CE01019687
:101F50000E945B0A1A821982CE0101960E945B0AD6
:101F600001E010E01A830983CE0101960E945B0A0A
:101F70001A830983CE0101960E945B0A1A830983A2
:101F8000CE0101960E945B0A1A830983CE01019655
:101F90000E945B0A1A821982CE0101960E945B0A96
:101FA0001A821982CE0101960E945B0A0F900F904F
:101FB000DF91CF911F910F9108950F931F93CF93AE
:101FC000DF9300D0CDB7DEB70BE010E01A830983B2
:101FD000CE0101960E945B0A1A830983CE01019605
:101FE0000E945B0A1A821982CE0101960E945B0A46
:101FF0001A821982CE0101960E945B0A81E092E06A
:102000009A838983CE0101960E945B0A01E010E069
:102010001A830983CE0101960E945B0A1A83098301
:10202000CE0101960E945B0A1A830983CE010196B4
:102030000E945B0A1A830983CE0101960E945B0A03
:102040001A830983CE0101960E945B0A1A830983D1
:10205000CE0101960E945B0A1A830983CE01019684
:102060000E945B0A1A830983CE0101960E945B0AD3
:102070001A830983CE0101960E945B0A1A830983A1
:10208000CE0101960E945B0A1A821982CE01019646
:102090000E945B0A80E091E09A838983CE010196D9
:1020A0000E945B0A0F900F90DF91CF911F910F91CB
:1020B0000895FF920F931F93CF93DF9300D0CDB776
:1020C000DEB7F82E07E110E01A830983CE010196EE
:1020D0000E945B0A1A830983CE0101960E945B0A63
:1020E00006E110E01A830983CE0101960E945B0A83
:1020F0001A830983CE0101960E945B0A81E192E076
:10210000F11002C081E190E09A838983CE010196AB
:102110000E945B0A81E190E09A838983CE01019657
:102120000E945B0A00E110E01A830983CE01019648
:102130000E945B0A1A830983CE0101960E945B0A02
:102140000FE010E01A830983CE0101960E945B0A1A
:102150001A830983CE0101960E945B0A0EE010E00B
:102160001A830983CE0101960E945B0A1A830983B0
:10217000CE0101960E945B0A0DE010E01A830983EC
:10218000CE0101960E945B0A1A830983CE01019653
:102190000E945B0A0CE010E01A830983CE010196CD
:1021A0000E945B0AFF2081F08CE091E09A83898392
:1021B000CE0101960E945B0A0F900F90DF91CF91A4
:1021C0001F910F91FF9008951A830983F1CFEF9229
:1021D000FF921F93CF93DF9300D0CDB7DEB7182FB8
:1021E0004BE0E42EF12CFA82E982CE0101960E94A6
:1021F0005B0AFA82E982CE0101960E945B0A5AE0EC
:10220000E52EF12CFA82E982CE0101960E945B0A4A
:10221000FA82E982CE0101960E945B0A85E092E093
:10222000111102C085E090E09A838983CE01019666
:102230000E945B0A85E090E09A838983CE01019633
:102240000E945B0A84E0E82EF12CFA82E982CE013A
:1022500001960E945B0AFA82E982CE0101960E94F1
:102260005B0A93E0E92EF12CFA82E982CE01019615
:102270000E945B0AFA82E982CE0101960E945B0A03
:1022800022E0E22EF12CFA82E982CE0101960E9430
:102290005B0AFA82E982CE0101960E945B0AEE2473
:1022A000E394F12CFA82E982CE0101960E945B0A46
:1022B000FA82E982CE0101960E945B0A1A82198293
:1022C000CE0101960E945B0A112381F080E091E02B
:1022D0009A838983CE0101960E945B0A0F900F902A
:1022E000DF91CF911F91FF90EF9008951A8219828C
:1022F000F1CFEF920F93CF93DF93D091C702C091AC
:10230000D1028091DE07882309F46EC0E12C00E041
:102310002CE33CE340E070E060E090E080E00E946D
:10232000FF0C2D2F4AE851E066E070E083E090E07A
:102330000E94000C2C2F4AE851E060E170E083E03D
:1023400090E00E94000CD091C802C091D002809110
:10235000DD07882309F455C0E12C00E028E83CE3C0
:1023600040E067E270E090E080E00E94FF0C2D2FDB
:102370004AE851E06DE270E083E090E00E94000CDA
:102380002C2F4AE851E067E370E083E090E00E9480
:10239000000C8091F402853011F58091D402909167
:1023A000D50268E170E00E9496300C97C0F48091ED
:1023B000C902863099F18730D1F1853081F480915E
:1023C000DE0781110CC020E1E22E00E026E235E6B6
:1023D00040E064E070E081E190E00E94FF0CDF915A
:1023E000CF910F91EF9008952D2F46E551E066E0D3
:1023F00070E083E090E00E94000C2C2F46E551E055
:102400009CCF2D2F46E551E06DE270E083E090E037
:102410000E94000C2C2F46E551E0B5CF90E1E92E4B
:1024200000E026E235E640E068E170E0D4CF80913C
:10243000DD078111D4CF80E1E82E00E026E235E609
:1024400040E06BE270E0C7CFEF920F938091030101
:102450000E94E60EE12C082F2CEA34E240E06CE00A
:1024600070E08CE490E00E94FF0C009102010F3FAD
:1024700059F0EE24E39420EC38E240E065E170E0AE
:1024800083E690E00E94FF0C0F91EF900895EF9289
:10249000FF920F931F93CF93DF93082FC62FCA018C
:1024A0004436510540F50C2E000CDD0B10E0BE014A
:1024B0006A5F7F4F242F4A30510590F06AE070E048
:1024C0000E949630262FF82EBE016C5F7F4F46E5A6
:1024D00051E0C8010E94000CBE01685F7F4F2F2DA4
:1024E00046E551E0C801DF91CF911F910F91FF9018
:1024F000EF900C94000C483E23E0520750F040311E
:10250000574260F1DF91CF911F910F91FF90EF90B3
:1025100008950C2E000CDD0B10E064E670E00E94C4
:102520009630262F7C01BE016E5F7F4F46E551E05D
:10253000C8010E94000CC7016AE070E00E9496305A
:10254000262FF82EBE016A5F7F4F46E551E0C80195
:102550000E94000CBE01665F7F4FC1CF0C2E000CA5
:10256000DD0B10E068EE73E00E949630262F7C01B0
:1025700046E551E0BE01C8010E94000CC70164E6B7
:1025800070E00E949630262F7C01BE016C5F7F4F69
:1025900046E551E0C8010E94000CC7016AE070E006
:1025A0000E949630262FF82EBE01685F7F4F46E5C9
:1025B00051E0C8010E94000CBE01645F7F4F8FCFC5
:1025C0008F929F92AF92BF92CF92DF92EF92FF9243
:1025D0000F931F93CF93DF93CDB7DEB761970FB6FD
:1025E000F894DEBF0FBECDBF09871A876F87788B3F
:1025F000A984BA84152FCF84D888E12C00E024EF79
:1026000039E340E070E060E090E080E00E94FF0C81
:10261000A114B10429F0A50163E08CE20E944712E5
:10262000112331F0412F50E068E18CE20E94471203
:102630001C141D04BCF4A6016EE28CE261960FB678
:10264000F894DEBF0FBECDBFDF91CF911F910F91E8
:10265000FF90EF90DF90CF90BF90AF909F908F90C2
:102660000C94471261960FB6F894DEBF0FBECDBF33
:10267000DF91CF911F910F91FF90EF90DF90CF905E
:10268000BF90AF909F908F900895EF92FF920F931D
:102690001F93CF93DF93082FC62FCA0144365105ED
:1026A00040F50C2E000CDD0B10E0BE01645F7F4F87
:1026B000242F4A30510590F06AE070E00E94963075
:1026C000262FF82EBE01685F7F4F46E551E0C80116
:1026D0000E94000CBE01645F7F4F2F2D46E551E044
:1026E000C801DF91CF911F910F91FF90EF900C9453
:1026F000000C483E23E0520750F040315742D8F0DA
:10270000DF91CF911F910F91FF90EF9008950C2EC4
:10271000000CDD0B10E064E670E00E949630262F7E
:102720007C01BE016C5F7F4F46E551E0C8010E940D
:10273000000CC701C1CF0C2E000CDD0B10E068EEC1
:1027400073E00E949630262F7C0146E551E0BE01E1
:10275000C8010E94000CC701DECFCF92DF92EF923A
:102760000F93CF93C82F6B01E12C00E020EC3BE3EB
:1027700040E070E060E08CE390E00E94FF0C4C2FA2
:1027800050E06EEF8EE30E94451344E150E06EE0AE
:102790008EE30E944712A60169E28EE3CF910F916A
:1027A000EF90DF90CF900C944712CF92DF92EF9290
:1027B000FF920F931F93CF93DF93082FCA01C62F69
:1027C000660FDD0B10E07E0134E0E30EF11C2330D8
:1027D000E9F02430D9F16AE070E00E949630262FAB
:1027E000D82E46E551E0BE01C8010E94000C2D2DF7
:1027F00046E551E0B701C801DF91CF911F910F91DC
:10280000FF90EF90DF90CF900C94000C64E670E0A6
:102810000E949630262F6C0146E551E0BE01C801AA
:102820000E94000CC6016AE070E00E949630262FDC
:10283000D82E46E551E0B701C8010E94000CBE0148
:10284000685F7F4F2D2D46E551E0D5CF68EE73E0F0
:102850000E949630262F6C0146E551E0BE01C8016A
:102860000E94000CC60164E670E00E949630262F9C
:102870006C0146E551E0B701C8010E94000CC60199
:102880006AE070E00E949630262FF82EBE01685F45
:102890007F4F46E551E0C8010E94000CBE01645F15
:1028A0007F4F2F2DD0CF8F929F92AF92BF92CF921A
:1028B000DF92EF92FF920F931F93CF93DF9337ED49
:1028C000C32E37E0D32ED0E0C0E010E049E0A42EC4
:1028D000B12C5AE0F52E68E1862E912CF60185A5E3
:1028E000813009F462C0E0F1823009F454C08330D1
:1028F00009F462C08091C90281131EC08091CD028B
:1029000081111AC0F60180818730B1F08091D40224
:102910009091D502B4010E9496300C9768F480E142
:10292000E82E00E026E235E640E0BE016250710983
:1029300081E290E00E94FF0C1F5FFFEFCF1ADF0AD9
:102940002D96153059F6DF91CF911F910F91FF9081
:10295000EF90DF90CF90BF90AF909F908F900895B1
:102960000091CD02011114C08091D4029091D50242
:1029700096958795B5010E949630E12C082F28EC9A
:1029800032E340E0BE018BE190E00E94FF0CB2CF49
:102990000150E12CF4CF00810F9D002D1124015036
:1029A000E12C20E534E340E0EDCF00810150E12C43
:1029B00024EA33E340E0E6CF80810091ED020B5042
:1029C0008F9D000D1124ECCFEF920F931F93CF93A7
:1029D000C82F82E0E82E10E000E020E044ED50E057
:1029E00070E060E08CE390E00E94DF07EE24E39467
:1029F0000C2F2EED3EE440E070E060E08BE390E0D1
:102A00000E94FF0CCF911F910F91EF9008958F922C
:102A10009F92AF92BF92CF92DF92EF92FF920F936D
:102A20001F93CF93DF93CDB7DEB761970FB6F894BE
:102A3000DEBF0FBECDBF89829A82AB82BC82CD82BF
:102A4000DE82EF82F88609871A872B873C874D87BD
:102A50005E876F87788B898B0E94241289809A8089
:102A6000AB80BC80CD80DE80EF80F88409851A853C
:102A70002B853C854D855E856F85788989890E9487
:102A8000E0120E94531461960FB6F894DEBF0FBE99
:102A9000CDBFDF91CF911F910F91FF90EF90DF900D
:102AA000CF90BF90AF909F908F900C947911CF935F
:102AB000C82F80910401811103C081E0809304013B
:102AC00080910401853118F084E180930401E09144
:102AD0000401E150FF0BEE0FFF1FE455FF4F8591FE
:102AE00094919093F3028093F20285E00E9489040E
:102AF000811131C083E08093D1028093C70284E0CA
:102B00000E9489048D5F8093D0028093C80281E087
:102B10008093E0071092DF0797E09093D70782E059
:102B2000809304089093D807809305089093D90761
:102B3000809306089093DA07809307089093DB0749
:102B4000809308081092CF02CC2319F083E0809381
:102B5000F402CF91089584E0CECF8091DC078530D8
:102B600039F018F0863069F008951092BA0208958D
:102B700081E09091C602943009F080E08093BA021F
:102B800008958091C602833080F3833011F481E090
:102B9000F5CF82E0F3CF0F931F93CF93DF9300D055
:102BA000CDB7DEB70BE010E01A830983CE010196A2
:102BB0000E945B0A1A830983CE0101960E945B0A78
:102BC0000AE010E01A830983CE0101960E945B0A95
:102BD0001A830983CE0101960E945B0A09E010E086
:102BE0001A830983CE0101960E945B0A1A83098326
:102BF000CE0101960E945B0A08E010E01A83098367
:102C0000CE0101960E945B0A1A830983CE010196C8
:102C10000E945B0A07E010E01A830983CE01019647
:102C20000E945B0A1A830983CE0101960E945B0A07
:102C300006E010E01A830983CE0101960E945B0A28
:102C40001A830983CE0101960E945B0A85E092E017
:102C50009A838983CE0101960E945B0A85E090E009
:102C60009A838983CE0101960E945B0A04E010E0FA
:102C70001A830983CE0101960E945B0A1A83098395
:102C8000CE0101960E945B0A03E010E01A830983DB
:102C9000CE0101960E945B0A1A830983CE01019638
:102CA0000E945B0A02E010E01A830983CE010196BC
:102CB0000E945B0A1A830983CE0101960E945B0A77
:102CC00001E010E01A830983CE0101960E945B0A9D
:102CD0001A830983CE0101960E945B0A1A82198227
:102CE000CE0101960E945B0A80E091E09A8389837D
:102CF000CE0101960E945B0A0F900F90DF91CF9159
:102D00001F910F9108952F923F924F925F926F9271
:102D10007F928F929F92AF92BF92CF92DF92EF926B
:102D2000FF920F931F93CF93DF93C091ED02C231B7
:102D300008F089C0EC2FF0E0E056F94E0C94BE305C
:102D4000B216E916E916E916E916E916E916E916C2
:102D5000E916E916E9164517E617E617E617E61726
:102D6000B81802198091EA029091EB02C091F20228
:102D7000D091F3028C179D070CF078C062E370E0ED
:102D80000E94AA30662309F473C060937F0182E039
:102D90000E94810481E08093ED020E94F50E8091F3
:102DA000EA029091EB028C179D070CF065C08091B0
:102DB000C702811161C00E94D12F22E030E040E0C3
:102DC00050E00E942930685F7F4F8F4F9F4F609384
:102DD000BD0283E00E9481040E9424126091F202ED
:102DE0007091F302809104010E94AD138090DC0287
:102DF0009090DD02A090DE02B090DF02C090E00271
:102E0000D090E102E090E202F090E3020091E4024F
:102E10001091E5022091E6023091E7024091E8022C
:102E20005091E9026091EA027091EB028091EC020C
:102E30000E94E0120E9453140E9479118091ED02C9
:102E40008F5F8093ED02DF91CF911F910F91FF90E3
:102E5000EF90DF90CF90BF90AF909F908F907F903A
:102E60006F905F904F903F902F900895CE0186CF46
:102E700081E080937F018BCF0E94D12F28E030E04A
:102E800040E050E00E942930A2CF82E00E948104FD
:102E90004091EA025091EB0220917F0130E0809155
:102EA000F2029091F302421753070CF46EC0421BDA
:102EB000530B821793070CF456C05093EB024093C8
:102EC000EA02821B930B2091EE023091EF028217EF
:102ED00093070CF46BC09093F3028093F2020E946C
:102EE00024126091F2027091F302809104010E9419
:102EF000AD138090DC029090DD02A090DE02B090D5
:102F0000DF02C090E002D090E102E090E202F09097
:102F1000E3020091E4021091E5022091E602309173
:102F2000E7024091E8025091E9026091EA02709153
:102F3000EB028091EC020E94E0120E945314DF9198
:102F4000CF911F910F91FF90EF90DF90CF90BF90A6
:102F5000AF909F908F907F906F905F904F903F9039
:102F60002F900C9479111092E5021092E4021092C5
:102F7000E9025093EB024093EA021092F30210929E
:102F8000F2028CE08093ED02AACF821793079CF0A7
:102F90001092E5021092E4021092E9021092EB0204
:102FA0001092EA024CE04093ED028BCF3093F30293
:102FB0002093F20294CF1092EB021092EA02109248
:102FC000E5021092E4021092E902D7CF6090EE027F
:102FD0007090EF027092F3026092F20282E00E941F
:102FE0008104CF3039F0CF5FC093ED02CF3011F4C0
:102FF0000E94DD0F0E942412B301809104010E94FF
:10300000AD138090DC029090DD02A090DE02B090C3
:10301000DF02C090E002D090E102E090E202F09086
:10302000E3020091E4021091E5022091E602309162
:10303000E7024091E8025091E9026091EA02709142
:10304000EB028091EC020E94E0120E9453140E9455
:1030500079118091ED028F3009F0F5CE1092DD07E5
:103060001092DE07672809F07AC0E12C0091BD02BA
:1030700022EE31E540E070E060E08AE290E00E94FC
:10308000FF0C8091D4029091D5028F709927892BE3
:1030900009F050C0CEE8D1E040E2242E312C00E40B
:1030A00010E059E0C52ED12CE12CF12C68E0862EE1
:1030B000912CA12CB12C74E2472E512C612C712C37
:1030C0008985811131C0398228821B830A830E943D
:1030D000D12FA70196010E942930645071098109FE
:1030E0009109982F872F762F66277D836C830E9406
:1030F000D12FA50194010E942930645071098109E2
:103100009109982F872F762F66277F836E830E94E1
:10311000D12FA30192010E942930DC01CB014496FA
:10312000A11DB11D898788872A968AEB92E08C17AA
:103130009D0731F688E00E94150C882309F483CEA0
:103140001092ED02809104018F5F8093040185311C
:1031500020F085E18093F40276CE8CE0FBCF80E115
:103160008093ED028091C70281116DCE81E169CE1D
:103170000E9424128090DC029090DD02A090DE027A
:10318000B090DF02C090E002D090E102E090E20255
:10319000F090E3020091E4021091E5022091E60232
:1031A0003091E7024091E8025091E9026091EA0211
:1031B0007091EB028091EC020E94E0120E94531485
:1031C000E12C0091BD0222EE31E540E070E060E0CC
:1031D0008AE290E00E94FF0C0E94791188E00E9430
:1031E000150C882309F42FCE80E00E9481041092F0
:1031F000ED021092CD0284E08093F40285E080938A
:10320000CE0221CE0E9424128090DC029090DD023A
:10321000A090DE02B090DF02C090E002D090E10208
:10322000E090E202F090E3020091E4021091E502E6
:103230002091E6023091E7024091E8025091E902C4
:103240006091EA027091EB028091EC020E94E01220
:103250000E945314E12C0091BD0222EE31E540E0C2
:1032600070E060E08AE290E00E94FF0C0E94791119
:1032700088E00E94150C882309F4E5CD86E16ACF29
:103280001F920F920FB60F9211248F939F938091EC
:10329000E1009091E100937F9093E10083FF0FC0E4
:1032A0001092E90091E09093EB001092EC0092E311
:1032B0009093ED0010920A0398E09093F00082FF43
:1032C00022C093E09093E9009091F200992319F0C5
:1032D0009AE39093E8009091FB02992341F090913A
:1032E000FB0291509093FB02911101C05D9A909165
:1032F0000903992341F09091090391509093090398
:10330000911101C0289A84FF18C08091E2008E7E3E
:1033100081608093E2008091E1008F7E8093E100E4
:103320008091FC028E7E80618093FC029F918F9140
:103330000F900FBE0F901F90189580FFF7CF8091D0
:10334000E2008E7E80618093E2008091E1008E7EBB
:103350008093E1008091FC028E7E8160E5CF1F9218
:103360000F920FB60F921124CF92DF92EF92FF923D
:103370000F931F932F933F934F935F936F937F937D
:103380008F939F93AF93BF93EF93FF93CF93DF936D
:10339000CDB7DEB76C97DEBFCDBF1092E90080914C
:1033A000E80083FF25C068E0CE0145960E94C60B69
:1033B00082EF8093E8008D8987FF39C09091E80003
:1033C00090FFFCCF982F907609F034C19E894F89E9
:1033D000588D2F89F88C911131C0803861F580911A
:1033E000FA028093F1001092F1008EEF8093E800D2
:1033F0006C960FB6F894DEBF0FBECDBFDF91CF91B4
:10340000FF91EF91BF91AF919F918F917F916F91BC
:103410005F914F913F912F911F910F91FF90EF90EE
:10342000DF90CF900F900FBE0F901F9018959EEFDA
:103430009093E800C7CF1092F100D5CF913059F4A6
:103440008111D3CF4130510581F68091FA028D7FF1
:103450008093FA02CACF933049F48111C6CF41302C
:10346000510519F68091FA028260F2CF953041F44D
:103470008091E80080FFFCCF20682093E300B5CF67
:10348000963009F0A9C00B8D1C8D22E01092E90046
:103490001092F8021092F702F2122EC01092F60269
:1034A0001092F5020E94950B1F8299E09983FA828F
:1034B00091E09E8390EA98879AEF99872091F7028E
:1034C0003091F802275F3F4F3C832B838D8310920E
:1034D000E9001092F8021092F7021093F60200939E
:1034E000F50249E050E0BE016F5F7F4F80E00E942F
:1034F0006F0B0E94950B79CF1093F6020093F502A3
:103500000E94AC0ADC0112960D911C910115110567
:1035100009F451C1D801ED91FC910480F581E02DB1
:10352000BE016B5E7F4FC8010995009709F03EC14F
:10353000F80100851185EACFF3E0FF120EC08F89F4
:10354000882309F440C0823061F440E867E08AE3F0
:1035500098E00E942B1C811148CF81E28093EB0000
:1035600047CF813029F440E86BE08EE298E0F1CF5C
:10357000833099F70E94AC0ADC011296ED90FC9022
:103580008E010F5F1F4F6801E114F10479F0D7013C
:10359000ED91FC910680F781E02DB801C7010995F6
:1035A000080F111DF701E084F184EECFD8011C92C1
:1035B000F60101900020E9F73197BF016C197D09F0
:1035C00040E0C601C6CF68E178E0FB01449150E0DD
:1035D00080E80E946F0B09CF973009F4BECF983076
:1035E00021F481E08093F10000CF993009F0FDCE05
:1035F000837009F0B2CFE2E5F1E081E031E096E3DB
:103600002191222371F08093E9003093EB00DF01D8
:1036100011972C912093EC009093ED008F5F8730F1
:1036200079F78EE78093EA001092EA008F89809301
:103630000A03DBCE8B8D9C8D1092E9001092F8026C
:103640001092F7029093F6028093F502898D811112
:1036500092C08E899D89913A49F4813209F07DCFDB
:1036600047E050E069E071E080E0B3CF913209F0CB
:1036700074CF833269F48F89988DB0E0A0E0809395
:10368000050190930601A0930701B0930801ADCE08
:10369000803269F48091E80082FFFCCF67E089E026
:1036A00091E00E94C60B8BEF8093E8009ECE8232A1
:1036B00009F09BCE8F8980931001EEEFFFE7859193
:1036C00094918B3F9C4D51F1E0E0F8E0809109012D
:1036D00090910A01A0910B01B0910C01803B9440A4
:1036E000A105B105F1F48091100180FD1AC0EE3FF3
:1036F0008AE0F80789F587E797E7918380838091CF
:1037000060008093F90288E19BE00FB6F894A895D9
:10371000809360000FBE9093600067CEEEEFFAE0FA
:10372000D5CF808191818737974709F05ECEA895E4
:10373000809160008861809360008091F90280939D
:103740006000EE3F2AE0F20789F08091FE0A909136
:10375000FF0A9183808349CE8081918187379807C2
:1037600051F29093FF0A8093FE0AC5CF1092FF0A90
:103770001092FE0A3ACE0E94AC0ADC0112960D911C
:103780001C910115110509F4E8CED801ED91FC91C9
:103790000190F081E02DBE016B5E7F4FC80109955D
:1037A000811123CEF80100851185EBCF181619067B
:1037B0000CF41BCED2CEF1E0FF12BECE6CE178E06D
:1037C00004CF0F920FB68F939F93EF93FF93809147
:1037D00081018D5F8D3708F08D5780938101EAE874
:1037E000F1E080818E4F808391819F4F9183828110
:1037F0008F4F828383818F4F8383E2E8F1E0808162
:103800008F5F808381818F4F818382818F4F8283FD
:1038100083818F4F83838FB18F6066991C9B88272C
:103820008F3681F480918001981B963068F0E0E03B
:10383000F8E087E78083818388E180936000F093DC
:103840006000FFCF90938001FF91EF919F918F9146
:103850000FBE0F901895EF92FF920F931F93CF9387
:10386000DF93F82E192FE62E042F81E0860F880FA4
:103870000E94410B83E00E94410BCF2DD12FEC0E13
:10388000FD2EF11CCE15DF05B9F007FF13C0FE01B8
:1038900084910E94410B182F80E00E94410B8123EC
:1038A00021968111EFCFDF91CF911F910F91FF9062
:1038B000EF9008958881EDCF81E0F5CF1092110748
:1038C0001092100788EE93E0A0E0B0E0809312071A
:1038D00090931307A0931407B09315078CE591E01C
:1038E00090930F0780930E078FEF9FEF90931B0726
:1038F00080931A0710921408109213088EE691E034
:1039000090931208809311081092DC071092DD0743
:103910001092DE071092DF0781E08093E00710929B
:10392000F4071092F3071092F6071092F507109221
:10393000F8071092F7071092FA071092F907109201
:10394000FC071092FB071092FD071092FE071092E1
:10395000FF071092000810920208109201081092BE
:10396000030810921008EEE5F7E01192119287E03B
:10397000E63DF807D1F71092D6070895CDB7DEB728
:10398000ED97DEBFCDBF789483E084BD83E085BD35
:1039900081E080936E00E1E8F0E083E08083E0E87E
:1039A00081E08083E1E983E08083E0E981E0808356
:1039B000E1EC87E08083E3EC81E08083E0EC82E06F
:1039C0008083E2EC81E08083EAE787E0808380689F
:1039D000808310920A031092FA021092FC028091E6
:1039E000D70081608093D70080EA8093D80089B5A2
:1039F000806189BD89B5826089BD09B400FEFDCFB3
:103A000081E090E00E942F0E8091D8008F7C806131
:103A10008093D8008091E000807F8093E0008091C7
:103A2000E1008E7E8093E1008DE08093E200559A64
:103A3000209A81EC80937C0081EF85B987EE84B970
:103A400082E38BB982EF8AB9769A6E9880EF81BB58
:103A500010BA80E58CBD81E08DBD0E94430E5F9A57
:103A60000E94430E5C98EEEBF6E085918EBD00005F
:103A70000DB407FEFDCFEB3CC1F75C9A81E8809363
:103A8000640081E08093650081E2809301010E94DF
:103A9000CD075E9AE4E1F0E08BED9BEF60EF7FEF06
:103AA00025913591559145912851354909F4CA011F
:103AB0008093860190938701259135915591459189
:103AC0002851354909F4BA0160930B0370930C0334
:103AD0008BEA0E94270E0E949D0748E1642E712CFC
:103AE00000918801002349F01092880180E090E065
:103AF000892BB1F30E940000F0CF90918A01809150
:103B00008901192F181B812F20910101121740F4F0
:103B10008F5F821758F781E083BF889513BEE6CF89
:103B200081E08093880190938901E4EDF2E0808147
:103B300091810196808391831091DB021093DA02C8
:103B40000E940D0CD82E8093DB02902FEDE0F3E065
:103B500091119FEF8FEF9193919391939193815056
:103B6000D0F71092D9021092D8021092D702109278
:103B7000D602E091F402E73108F085C0F0E0ED53A1
:103B8000F24E0C94BE30DA1DFA1E431E4320AD20C7
:103B90001721F82331241B25EA267E28C629CA29A5
:103BA0005B2AF42A1B2BC42BF12B0C2CC52DC52D05
:103BB000412FC82E1095D12299F1809164008E7FFB
:103BC0008093640080917A00806480937A00809171
:103BD0007A0086FDFCCF00917800109179000E9458
:103BE000CA0EAB01BC01C801B0E0A0E0DC0199271E
:103BF00088278C019D01040F151F261F371FC9013F
:103C0000B801209164002160209364006115710562
:103C10008105910511F00E94203081E08093F4022B
:103C200022E0E22E10E000E020E04CED56E070E0F3
:103C300060E083E390E00E94DF078091D4029091DE
:103C4000D50260E370E00E9496308831910530F42F
:103C50000C9708F4BFC004E4F02EBEC0B2E4FB2E03
:103C6000849710F493E4F92E41E064E170E08F2D25
:103C700090E00E94200CF0FC06C08BE48093D103FE
:103C80008BE28093D2033EE8C32E31E0D32EF601BF
:103C900086819781CC9697838683A481B58125EF11
:103CA00030E00E94C430BB2797FDBA95A92F982F0A
:103CB000872F95838483208131812034310554F00E
:103CC0000FE310E01183008366277727681B790BC9
:103CD00075836483F6018081918197FF09C0118209
:103CE0001082848195819195819591099583848332
:103CF000F601828193818138910534F000E810E06B
:103D00001383028317821682F6018281938197FFC3
:103D100002C017821682F60125812AAF220F220BDC
:103D20002BAF208131810AAD1BAD200F311F3183B4
:103D3000208327812CAF220F220B2DAF2CAD3DAD60
:103D4000821B930B9383828397FD1186F6018185F5
:103D5000882311F081508187F6018185882381F0C5
:103D6000608171816150710982819381EE24E394B5
:103D70000BEC16E020E04EEC56E001970E94DF07C6
:103D8000FAE0CF0ED11C0AEBC01602E0D00609F013
:103D90007ECF0E94CD07E091D607EE2309F4A6CE90
:103DA0008091D40280FDA2CEE150E093D607F0E0EE
:103DB000EE0FFF1FE25AF84F80819181809302013C
:103DC0008827811511E0910711F00C94752F10923E
:103DD00003018CCE85E4F82E12E0E12E10E000E025
:103DE00020E043ED56E06AE370E083E490E00E9457
:103DF000DF073ACF88E00E94150C882369F0109203
:103E0000D30211E01093D20280E00E945715109364
:103E1000040180E1809301018091D4029091D50248
:103E200060E670E00E94963066E070E00E94963096
:103E3000E12C062F20E030E040E070E060E090E010
:103E400080E00E94FF0C8091D202882309F4CBC04D
:103E50001091D302133308F4A8C000E02CEA34E236
:103E600040E06CE070E08CE490E00E94FF0CA0E188
:103E7000EA2E24E63EE240E070E060E090E080E080
:103E80000E94FF0C4091040150E022E068E28BE2C6
:103E90000E94D5134091F2025091F30224E06DE2AA
:103EA00080E20E94D5134091D10250E022E068E206
:103EB00085E10E94D5134091D00250E022E06BE2F0
:103EC0008AE00E94D513412F1D3608F04CE666E8C3
:103ED00072E184E00E94E50C5B01C82E1C3650F4B0
:103EE000F0E1EF2E00E0482F9B0170E060E090E0F1
:103EF00080E016C04CE650E0411B510925E0249FAC
:103F0000C001259F900D112463E070E00E94AA304B
:103F1000CB01E0E1EE2E00E04C2D950170E060E079
:103F20000E94FF0C41E0410F4093D3028091D202E6
:103F3000882309F4A8CE8091D302843909F0A3CE56
:103F400081E0809304011092D3021092D202109269
:103F5000DC071092E2071092E3071092E507109237
:103F6000E6071092E8071092E9071092EB0710920B
:103F7000EC071092EE071092EF071092F1071092E3
:103F8000F20785E18093E1078093E4078093E707D8
:103F90008093EA078093ED078093F00781E00E9409
:103FA000571581E2809301016ECE70E1E72E00E0AB
:103FB00028E933E240E070E060E081E090E00E94B8
:103FC000FF0C24E030E240E070E060E088E190E047
:103FD0000E94FF0C412F66E872E184E00E94E50C2C
:103FE0009B01482F82CF60E1E62E00E028E933E212
:103FF00040E070E060E081E090E00E94FF0C45E06E
:1040000063E370E08BE090E00E943B0C80910D0731
:104010008B3038F045E067E370E08BE090E00E9481
:104020003B0C40910D0750E06EE28CE00E9447127D
:10403000809103010E94E60EE12C082F2CEA34E265
:1040400040E06CE070E08CE490E00E94FF0C009196
:1040500002010F3F59F0EE24E39420EC38E240E0F7
:1040600065E170E083E690E00E94FF0C50E1E52EF0
:1040700000E024E030E240E070E060E088E190E0C1
:104080000E94FF0C53CF8091CF028F5F8093CF02AD
:104090008D3328F488E00E94150C882381F010925B
:1040A0000408109205081092060810920708109252
:1040B000080884E08093F40285E08093CE0280912A
:1040C000D4029091D50260E370E00E94963063E0E4
:1040D00070E00E949630E12C062F20E030E040E0B6
:1040E00070E060E090E080E00E94FF0C00E02CEACD
:1040F00034E240E06CE070E08CE490E00E94FF0C61
:1041000040E1E42E24E63EE240E070E060E090E032
:1041100080E00E94FF0C4091040150E022E068E240
:104120008BE20E94D5134091F2025091F30224E0F9
:104130006DE280E20E94D5134091D10250E022E06E
:1041400068E285E10E94D5134091D00250E022E060
:104150006BE28AE00E94D51396CD8091CD02863025
:10416000D1F407ED17E0F80185A581110EC00E947A
:10417000D12F26E030E040E050E00E9429306F5F10
:104180007F4F8F4F9F4FF80160830F5F1F4FF7E006
:104190000C3D1F0741F78091D40280FD05C080913E
:1041A000CD028F5F8093CD020E9424126091F202B3
:1041B0007091F302809104010E94AD138090DC02A3
:1041C0009090DD02A090DE02B090DF02C090E0028D
:1041D000D090E102E090E202F090E3020091E4026C
:1041E0001091E5022091E6023091E7024091E80249
:1041F0005091E9026091EA027091EB028091EC0229
:104200000E94E0120E9453140E9479118091CD0205
:10421000893009F038CD8091CE028093F40210925B
:10422000CD0282E00E9481041092DD072CCD8091A6
:10423000CB029091CC0201969093CC028093CB025A
:10424000811181C0E091CA02EF5FE093CA02E7707A
:10425000E150E73060F4F0E0E05DFE4D0C94BE30DC
:10426000A0216522C322C72239239623992381E204
:1042700090E09A838983CE0101960E945B0A8FE2C7
:1042800090E09A838983CE0101960E945B0A8EE2B8
:1042900090E09A838983CE0101960E945B0A8DE2A9
:1042A00090E09A838983CE0101960E945B0A8CE29A
:1042B00090E09A838983CE0101960E945B0A8BE28B
:1042C00090E09A838983CE0101960E945B0A8AE27C
:1042D00090E09A838983CE0101960E945B0A89E26D
:1042E00090E09A838983CE0101960E945B0A88E25E
:1042F00090E09A838983CE0101960E945B0A87E24F
:1043000090E09A838983CE0101960E945B0A86E23F
:1043100090E09A838983CE0101960E945B0A85E230
:1043200090E09A838983CE0101960E945B0A84E221
:1043300090E09A838983CE0101960E945B0A03C0B4
:1043400080E00E94E7108091D4029091D5020697F8
:1043500010F01092DD070E94BE0480E80E94150C48
:10436000882341F08091C902882309F4E5C1815076
:104370008093C90280E20E94150C8823B1F08091DD
:10438000C902823018F485E08093C9028091C90285
:10439000823019F486E08093C9028091C90283506B
:1043A000823018F487E08093C90280E40E94150CE3
:1043B0008823A1F08091C902853011F41092C902BE
:1043C0008091C902863019F482E08093C9028091FD
:1043D000C902873019F484E08093C90280E10E9409
:1043E000150C882341F08091C902873009F4A6C1D9
:1043F0008F5F8093C9020E940D0C82FF09C08091DB
:10440000F0029091F10201969093F1028093F002F4
:1044100012FF0FC0D2FC0DC08091F0029091F1020A
:10442000409718F481E18093F4021092F102109207
:10443000F00288E00E94150C882369F0E091C9021F
:10444000E53008F07FC1F0E0E952F84F85A5811111
:1044500077C182E085A70E9424126091F2027091D8
:10446000F302809104010E94AD138091F0029091BB
:10447000F102419708F4B0C18090F3079090F407DF
:10448000A090F507B090F607C090F707D090F80716
:10449000E090F907F090FA070091FB071091FC07F4
:1044A0002091FD073091FE074091FF0750910008D1
:1044B0006091010870910208809103080E94E01247
:1044C0000E9453140E947911DECB87E190E09A8319
:1044D0008983CE0101960E945B0A86E190E09A836F
:1044E0008983CE0101960E945B0AB5E1EB2EF12C87
:1044F000FA82E982CE0101960E945B0AFA82E98281
:10450000CE0101960E945B0A84E1E82EF12CFA822A
:10451000E982CE0101960E945B0AFA82E982CE010D
:1045200001960E945B0A93E1E92EF12CFA82E9825E
:10453000CE0101960E945B0AFA82E982CE010196C1
:104540000E945B0A22E1E22EF12CFA82E982CE017E
:1045500001960E945B0AFA82E982CE0101960E94CE
:104560005B0A31E1E32EF12CFA82E982CE01019659
:104570000E945B0AFA82E982CE0101960E945B0AE0
:104580008CE090E0D6CE80E00E945910DCCE4BE06B
:10459000E42EF12CFA82E982CE0101960E945B0A98
:1045A000FA82E982CE0101960E945B0A5AE0E52E6A
:1045B000F12CFA82E982CE0101960E945B0AFA820E
:1045C000E982CE0101960E945B0A69E0E62EF12C99
:1045D000FA82E982CE0101960E945B0AFA82E982A0
:1045E000CE0101960E945B0A78E0E72EF12CFA8258
:1045F000E982CE0101960E945B0AFA82E982CE012D
:1046000001960E945B0AE7E0EE2EF12CFA82E98225
:10461000CE0101960E945B0AFA82E982CE010196E0
:104620000E945B0AF6E0EF2EF12CFA82E982CE01BD
:1046300001960E945B0AFA82E982CE0101960E94ED
:104640005B0AA5E0EA2EF12CFA82E982CE010196FE
:104650000E945B0AFA82E982CE0101960E945B0AFF
:104660001A821982CE0101960E945B0A1A8219826F
:1046700062CE2BE0E22EF12CFA82E982CE01019685
:104680000E945B0AFA82E982CE0101960E945B0ACF
:104690001A821982CE0101960E945B0A1A8219823F
:1046A000CE0101960E945B0AAA24A394B12CBA827F
:1046B000A982CE0101960E945B0ABA82A982CE012C
:1046C00001960E945B0ABA82A982CE0101960E94DD
:1046D0005B0ABA82A982CE0101960E945B0ABA8265
:1046E000A982CE0101960E945B0ABA82A982CE01FC
:1046F00001960E945B0ABA82A982CE0101960E94AD
:104700005B0ABA82A982CE0101960E945B0ABA8234
:10471000A982CE0101960E945B0ABA82A982CE01CB
:1047200001960E945B0ABA82A98296CF0E948F0FDF
:104730000ACE0E94F50E07CE87E01ACE80E059CE51
:1047400015A689CEE73041F51092D5021092D40219
:1047500091E09093DD07E4E0F8E09191911101C0C0
:10476000082F18E0E930F107C1F78091C8028823CB
:1047700009F471CE002309F46ECE81508093C802F3
:1047800081E08093DF0794E09093F40295E09093AA
:10479000CE028093CD025FCEE53091F481E080932C
:1047A000DE070E94BE048091C70281508093C70239
:1047B0001092E00786E08093F4021092CF024BCE75
:1047C000E63009F048CE85E08093CE021092C60212
:1047D00084E18093F4023FCEE12C00E024EF39E342
:1047E00040E070E060E090E080E00E94FF0C68CE66
:1047F00020910108309102088091F2029091F30219
:10480000281739070CF061C0821B930B9093EF02BD
:104810008093EE021092ED021092DD021092DC0203
:104820001092DF021092DE021092E1021092E0027A
:104830001092E3021092E2021092E5021092E4025A
:104840001092E6021092E7021092E8021092E9023A
:104850001092EB021092EA021092EC0287E0809331
:10486000F4028091ED028B3098F5813008F46FC02E
:1048700083E00E9481048090DC029090DD02A09091
:10488000DE02B090DF02C090E002D090E102E09042
:10489000E202F090E3020091E4021091E50220911F
:1048A000E6023091E7024091E8025091E9026091FE
:1048B000EA027091EB028091EC020E940715809150
:1048C000ED028F5F8093ED02DEC990E080E09ECF25
:1048D0008B3009F447C0803108F0D5C95524539472
:1048E000580E5092ED028090DC029090DD02A09074
:1048F000DE02B090DF02C090E002D090E102E090D2
:10490000E202F090E3020091E4021091E5022091AE
:10491000E6023091E7024091E8025091E90260918D
:10492000EA027091EB028091EC020E9407153FE0D1
:104930005312A9C91092ED028091F5079091F607E4
:10494000892B09F46FC088E08093F4029CC982E04F
:104950000E94810481E08093ED021092C5020E94C2
:10496000E71086CF5090C50253945092C50282E062
:104970000E9481048091D40280FD1BC08091E402DA
:104980009091E5022091F3073091F4078217930785
:1049900080F401969093E5028093E4021092E9027C
:1049A0008091EA029091EB0201969093EB02809342
:1049B000EA028090DC029090DD02A090DE02B090CE
:1049C000DF02C090E002D090E102E090E202F090BD
:1049D000E3020091E4021091E5022091E602309199
:1049E000E7024091E8025091E9026091EA02709179
:1049F000EB028091EC020E94071589E00E94E4140A
:104A000020E3251508F03FC92091E4023091E5022A
:104A10008091F3079091F4072817390709F033C9FB
:104A20008CE050CF8091F7079091F807892B09F41B
:104A30005CC389E089CF1091ED021B3008F042C0C1
:104A4000113008F48EC083E00E9481048090DC0263
:104A50009090DD02A090DE02B090DF02C090E002F4
:104A6000D090E102E090E202F090E3020091E402D3
:104A70001091E5022091E6023091E7024091E802B0
:104A80005091E9026091EA027091EB028091EC0290
:104A90000E9407158091ED028F5F8093ED028B30AD
:104AA00009F0F1C81092C50282E00E948104809151
:104AB000FD07882309F4E7C88091E9028F5F80939E
:104AC000E902E1C81B3009F457C0103108F0DBC817
:104AD00082E00E94810455245394510E5092ED02BD
:104AE0008090DC029090DD02A090DE02B090DF02A8
:104AF000C090E002D090E102E090E202F090E30288
:104B00000091E4021091E5022091E6023091E70263
:104B10004091E8025091E9026091EA027091EB0243
:104B20008091EC020E9407153FE05312ACC810922E
:104B3000ED028091F7079091F807892B09F079CF62
:104B40008091FE07811175CF8091F9079091FA0746
:104B5000892B09F0D1C28091FF078111CDC28BE072
:104B6000F3CE82E00E94810481E08093ED021092F6
:104B7000C5020E94591067CF5090C50253945092BD
:104B8000C50281E1E3EFF7E0DE01999601900D9215
:104B90008A95E1F7E0910308E150E83008F03AC067
:104BA000F0E0EB52FA4D0C94BE308F26D526DD2571
:104BB000C626B326B726B326B32681E08093040821
:104BC000809305088093060880930708809308085F
:104BD00060E082E00E944C0497EDE92E97E0F92E08
:104BE000870192E0F80121918F01821301C094A7FF
:104BF000F7E00C3D1F07B1F7682F82E00E944C04DC
:104C000092E0F70121917F01821301C094A70E1554
:104C10001F05B9F78091F5079091F6078B30910544
:104C200040F42091D4023091D50223703327232BF6
:104C300041F52091E4023091E5026091F307709113
:104C4000F407AC01460F571F24173507D0F44091E5
:104C5000E9022F5F3F4F3093E5022093E402E09199
:104C6000FD07261B370B6E2F70E00E949630C9019E
:104C70000E949630892B29F44E1718F44F5F409309
:104C8000E9022091E9028091E4029091E502222359
:104C900009F49BC0289FA001299F500D1124509317
:104CA000EB024093EA028090DC029090DD02A0903B
:104CB000DE02B090DF02C090E002D090E102E0900E
:104CC000E202F090E3020091E4021091E5022091EB
:104CD000E6023091E7024091E8025091E9026091CA
:104CE000EA027091EB028091EC020E94071580911C
:104CF00003080E94E41420E3251510F00C94431ED1
:104D00008091F3079091F4072091F5073091F60711
:104D1000820F931F2091E4023091E5027DCE81E065
:104D20008093040880930508809306088093070801
:104D300080930808A7EDB7E0FD01E75DF7408D918E
:104D40008130D1F7E952F84F82E085A7A7EDB7E0AF
:104D5000FD01E75DF7408D918630D1F7E952F84FBC
:104D600082E085A757CF82E00E94810453CF60E0A4
:104D700084E00E944C04E7EDF7E091E0219182137A
:104D800094A707E0EC3DF007C9F744CF60E083E06B
:104D90000E944C04E7EDF7E091E02191821394A783
:104DA00017E0EC3DF107C9F735CF60E082E00E94E3
:104DB0004C04E7EDF7E02CED37E091E041918413EE
:104DC00094A72E173F07D1F725CF9093EB0280933E
:104DD000EA0269CF5090ED0240E1451510F40C94C1
:104DE000431EE52DF0E0E950F94D0C94BE30082744
:104DF00010271027102710271027102710271027FB
:104E0000102710274C27E52747284A284A284A28F0
:104E100082E00E94810481E08093ED020E94CB1524
:104E200083E00E9481048090DC029090DD02A090DB
:104E3000DE02B090DF02C090E002D090E102E0908C
:104E4000E202F090E3020091E4021091E502209169
:104E5000E6023091E7024091E8025091E902609148
:104E6000EA027091EB028091EC020E94071580919A
:104E7000ED028F5F8093ED028B3011F00C94431E96
:104E80001092C5028091F7079091F807892B09F4D9
:104E9000C7CD8091FE070DCE82E00E948104509024
:104EA000C50253945092C5028091F7079091F8077C
:104EB0008A30910540F42091D4023091D5022370BC
:104EC0003327232B51F52091E4023091E5024091E4
:104ED000F3075091F407840F951F4091F507509107
:104EE000F607840F951F28173907B8F42F5F3F4F37
:104EF0003093E5022093E4029091FE07992369F034
:104F00008091E9022091FD07290F3327331F821773
:104F100013061CF48F5F8093E9022091E9028091CF
:104F2000E4029091E502222331F0BC01269FC001EA
:104F3000279F900D1124682F9093EB028093EA0233
:104F40008090DC029090DD02A090DE02B090DF0243
:104F5000C090E002D090E102E090E202F090E30223
:104F60000091E4021091E5022091E6023091E702FF
:104F70004091E8025091E9027091EB028091EC02BD
:104F80000E9407158AE00E94E41470E3751510F082
:104F90000C94431E8091F3079091F4072091F5073C
:104FA0003091F607820F931F2091F7073091F80791
:104FB000820F931F2091E4023091E50228173907F0
:104FC00011F00C94431E8DE07DCC82E00E948104A0
:104FD0005090C50253945092C502852D8770E1F41C
:104FE0008091E9022091FD079091FE07290F332758
:104FF000331F8217130684F48F5F8093E902409178
:10500000E4025091E502849F9001859F300D1124A8
:105010003093EB022093EA028090DC029090DD0254
:10502000A090DE02B090DF02C090E002D090E102DA
:10503000E090E202F090E3020091E4021091E502B8
:105040002091E6023091E7024091E8025091E90296
:105050006091EA027091EB028091EC020E940715C8
:105060008AE00E94E41480E3851510F00C94431E3E
:105070002091E9028091FD079091FE07890F992701
:10508000991F2817190611F00C94431E9CCF82E03B
:105090000E9481048090DC029090DD02A090DE02EC
:1050A000B090DF02C090E002D090E102E090E20216
:1050B000F090E3020091E4021091E5022091E602F3
:1050C0003091E7024091E8025091E9026091EA02D2
:1050D0007091EB028091EC020E94071581E0850D32
:1050E0008F3009F0EFCB1092ED028091F90790918B
:1050F000FA07892B09F433CD8AE026CC1091ED0212
:105100001B30C0F5113008F46FC083E00E948104A9
:105110008090DC029090DD02A090DE02B090DF0271
:10512000C090E002D090E102E090E202F090E30251
:105130000091E4021091E5022091E6023091E7022D
:105140004091E8025091E9026091EA027091EB020D
:105150008091EC020E9407158091ED028F5F809391
:10516000ED028B3011F00C94431E1092C502809119
:10517000FF079FCC1B3009F440C0103110F00C9495
:10518000431E82E00E94810455245394510E509294
:10519000ED028090DC029090DD02A090DE02B090E3
:1051A000DF02C090E002D090E102E090E202F090D5
:1051B000E3020091E4021091E5022091E6023091B1
:1051C000E7024091E8025091E9026091EA02709191
:1051D000EB028091EC020E940715FFE05F120C9435
:1051E000431E1092ED02BBCC82E00E94810481E05C
:1051F0008093ED020E94CB1588CF82E00E9481044B
:105200004091C5024F5F4093C502E091F907F091CC
:10521000FA07EA30F10548F48091D4029091D50262
:1052200083709927892B09F044C08091E402909102
:10523000E502E090F307F090F4070091F507109174
:10524000F607A091F707B091F8079F012E0D3F1DBB
:10525000200F311F2A0F3B1F8217930750F501962D
:105260009093E5028093E4026091FF079C012E1960
:105270003F09201B310B2A1B3B0B062F10E0CF01EF
:10528000B8010E949630C9010E949630892B89F49A
:105290008091E9026091FD079091FE07690F7727E1
:1052A000771F600F711F861717061CF48F5F80939E
:1052B000E9028091E9022091E4023091E50288231D
:1052C00009F45FC0829FB001839F700D1124709319
:1052D000EB026093EA02413358F14091F307509199
:1052E000F407E40FF51F4091F5075091F607E40F1E
:1052F000F51F4091F7075091F807E40FF51FE217EB
:10530000F307B1F42091FD079091FE07E22FE90F1A
:10531000FF27FF1F2091FF072E0F3F2F311D821700
:1053200013061CF48F5F8093E9028CE08093ED02FA
:105330008090DC029090DD02A090DE02B090DF024F
:10534000C090E002D090E102E090E202F090E3022F
:105350000091E4021091E5022091E6023091E7020B
:105360004091E8025091E9026091EA027091EB02EB
:105370008091EC020E9407158BE00E94E4140C94CB
:10538000431E3093EB022093EA02A5CF0E948316BE
:105390000C94431E1091040180910D07811720F495
:1053A00010930D070E94EB0984E1E5E1F1E0DE01D5
:1053B000559601900D928A95E1F784E1E9E2F1E0DA
:1053C000DE01119601900D928A95E1F7212F22506E
:1053D000330BC901E1E0F0E0EC0FFD1FE20FF31F1A
:1053E000C080D12CF12CE12C45E150E04C0F5D1F29
:1053F000840F951FFC011081812E912CB12CA12CC2
:105400008C149D04AE04BF048CF4C818D908EA08B3
:10541000FB0841F00E94D12FA70196010E9429307C
:105420006B017C018C0C9D1CAE1CBF1C182D809147
:1054300004018250990BE1E0F0E0EC0FFD1FE80F52
:10544000F91FC080D12CF12CE12C25E130E02C0F8C
:105450003D1F820F931FFC018080912CB12CA12C49
:105460008C149D04AE04BF048CF4C818D908EA0853
:10547000FB0841F00E94D12FA70196010E9429301C
:105480006B017C018C0C9D1CAE1CBF1C181579F2A5
:10549000E12FF0E0E35CFE4F80818093C302E82DB2
:1054A000F0E0E35CFE4F80818093C2028DE0809348
:1054B000F4021092C40280E40E94150C882309F4BF
:1054C00058C08091C402882309F453C0815080934E
:1054D000C402E12C00E02AE63DE740E070E060E035
:1054E00083E790E00E94FF0C26ED3DE740E070E08E
:1054F00060E090E080E00E94FF0C4091C30266E50E
:1055000070EB80E00E94E50C9B01482F70E060E0AA
:1055100080E490E00E94FF0C4091C20266E570EBCF
:1055200080E00E94E50C9B01482F70E060E080E184
:1055300090E00E94FF0C8091D4029091D502B301BB
:105540000E9496300C9710F00C94431E2091C402D8
:1055500010ED1203C0011124EE24E39426E131E89A
:1055600040E070E060E0805C9F4F0E94FF0C0C9474
:10557000431E80E20E94150C882321F08091C40212
:10558000882361F088E00E94150C811109C084E035
:105590000E94150C882309F49CCF1CC081E097CF92
:1055A0008091C3022091C2029091C402992319F004
:1055B000913009F4822FE091DC07E63068F491E045
:1055C0009E0F9093DC0703E0E09FF0011124EF5160
:1055D000F84F80838EE005C0809300011092C602D0
:1055E00083E18093F40275CF1092090810920A08A3
:1055F00010920B0810920C0810920D0810920E08D1
:1056000010920F081092100813E001E00E94D12FB1
:1056100027E030E040E050E00E942930E62FF0E043
:10562000E952F84F82A98111F1CF02AB115071F705
:105630008FE08093F40280E40E94150C1091C10267
:10564000882309F474C0112309F471C01150109318
:10565000C1021091C102C12C112331F0CC24C3949A
:10566000123011F002E0C02EA4E5FA2ED12CB2E0E7
:10567000BB2E2B2D2D19E1E1F8E090E087E032916F
:10568000332309F47BC0291378C0282EEF2DF0E0D6
:10569000E12C022D1D110FC08091D4029091D502F2
:1056A000B3010E9496300C9708F06CC080E008E0CF
:1056B000020D080FE12C2AE53AE640E070E060E0D8
:1056C000CF010E94FF0C2FEDF20ED39431EFF312B5
:1056D000D0CFE12C0C2D2EEE38E640E070E060E0FB
:1056E00090E080E00E94FF0C00E022E838E640E015
:1056F00070E060E083E790E00E94FF0C8091D402AC
:105700009091D502B3010E9496300C9710F00C9442
:10571000431E4FED4103C0011124EE24E3942EE516
:105720003CE740E070E060E0805B9F4F1ECF80E28E
:105730000E94150C882311F01230C0F088E00E94FE
:10574000150C882309F485CFE9E0F8E090E080E0CB
:105750002191222371F019130BC098E0392E381AC9
:105760003092100881E00E94571573CF1F5F6FCFF2
:105770009F5F8F5F873061F7F3CF9F5F815008F0A5
:105780007ECF84CF88E093CFE12C00E026E33CE598
:1057900040E070E060E080E790E00E94FF0C2AEBC0
:1057A0003CE540E070E060E08DEF9FEF0E94FF0C71
:1057B0004091C00266E570EB80E00E94E50C9B0121
:1057C000482F70E060E081E490E00E94FF0C88E0E8
:1057D0000E94150C882311F40C94431E8091CE0274
:1057E000B3C880E490E09093BF028093BE0282E150
:1057F0008093F4020E94DD0F81E090E09093D50247
:105800008093D4020E94D12F24E030E040E050E0A9
:105810000E9429306093BD028091D4029091D502FC
:1058200060E670E00E949630892B11F40E948F0F81
:1058300088E00E94150C882319F085E08093F4021B
:105840000E940D0C85FF10C08091BE029091BF0296
:105850002091BB023091BC02821793072CF4029670
:105860009093BF028093BE020E940D0C86FF0CC075
:105870008091BE029091BF02813491052CF0029775
:105880009093BF028093BE024090BE025090BF0230
:10589000E12C00E028E43DE440E064E070E0C20177
:1058A0000E94FF0C4091F3075091F4076DE2842DA4
:1058B0000E944513520157E0A51AB1080091030850
:1058C0000023A1F024E83DE440E064E070E0C5017D
:1058D0000E94FF0C4091F5075091F6076DE28A2D6A
:1058E0000E94451352016EE0A61AB10810E0F3E0E1
:1058F000FF2E8091DC07181710F57F2D1702C001CD
:105900001124FC01EF51F84F6F0181818823A9F028
:10591000E12C008122E43EE740E064E070E0C50154
:1059200001970E94FF0CF601418150E06DE28A2D43
:105930000E944513F7E0AF1AB1081F5FDACF8091DC
:10594000F9079091FA07892BA9F0E12C00E026E9EC
:105950003EE440E064E070E0C5010E94FF0C40912D
:10596000F9075091FA076DE28A2D0E94451307E06E
:10597000A01AB1084091FB075091FC076DE28DEF32
:105980008A0D0E944513650114E0C10ED11C02E38B
:1059900010E041E0B801C6010E94200C0F5F1F4FCC
:1059A0000D331105B1F7E12C00E021EC3EE440E0BD
:1059B00064E070E0C5010F970E94FF0C650128E1CB
:1059C000C21AD10800910308002399F024E83DE4AD
:1059D00040E064E070E0C6010E94FF0C4091FD07CA
:1059E00050E06DE28C2D0E94451365013FE1C31A22
:1059F000D10810E0E3E0FE2E8091DC07181718F5BF
:105A00004F2D1402C0011124BC016F51784F5B016E
:105A1000FB0182818823A9F0E12C008122E43EE78A
:105A200040E064E070E0C60101970E94FF0CF501C0
:105A3000428150E06DE28C2D0E944513F7E0CF1AB1
:105A4000D1081F5FD9CF8091FF078823A1F0E12CF7
:105A500000E026E93EE440E064E070E0C6010E9418
:105A6000FF0C4091FF0750E06DE28C2D0E94451322
:105A700007E0C01AD1084091000850E06DE28DEFB8
:105A80008C0D0E944513560114E0A10EB11C02E3D7
:105A900010E041E0B801C5010E94200C0F5F1F4FCC
:105AA0000D331105B1F746012AE0821A9108E12C65
:105AB00000E02EEA3EE440E064E070E0560151E18F
:105AC000A51AB108C5010E94FF0C40910108509130
:105AD00002086DE28A2D0E9445130CE210E041E0BD
