:100000000C942A130C9452130C9452130C94521304
:100010000C9452130C9452130C9452130C945213CC
:100020000C9452130C9452130C94A7260C9416277C
:100030000C9452130C9452130C9452130C945213AC
:100040000C9452130C9452130C9452130C9452139C
:100050000C9452130C9452130C9452130C94482980
:100060000C9452130C9452130C9452130C9452137C
:100070000C9452130C9452130C9452130C9452136C
:100080000C9452130C9452130C9452130C9452135C
:100090000C9452130C9452130C9452130C9452134C
:1000A0000C9452130C9452130C945213FFFFFFFF45
:1000B000FFFFFFFFFFFFFFFFFFFEFCFFFFFFFFFF54
:1000C000FFFF3FFFFFFFFFFFFFFD030303030303EA
:1000D000030003030303030303FFFFFFFFFFFFFF0F
:1000E0000000FFFFFFFFFFFFFF1F3F7FFFFFFFFF3E
:1000F000FCFCFFFFFFFF7F3F1F0000000001030328
:10010000030303030100000000FCFEFFFFFFFFFFED
:100110003F3FFFFFFFFFFFFEFCFFFFFFFFFFFFFF73
:10012000F0F0FFFFFFFFFFFFFF00010303030303E6
:10013000030303030303030100FFFFFFFFFFFFFFB0
:10014000FFFFFFFF3F3F3F3FFFFFFFFFFFFFFFFFBF
:10015000FFFFFFF0F0F0F0030303030303030303C7
:10016000030303030303FFFFFFFFFFFFFFFEFCFE8C
:10017000FFFFFFFFFFFFFFFFFFFFFFFFFFFF0F0F6F
:100180000FFFFFFFFFFFFFFF030303030303030052
:10019000000003030303030303F8FCFEFFFFFFFF5C
:1001A000FFFFFFFFFFFFFEFCF8FFFFFFFFFFFFFF6A
:1001B0001F1FFFFFFFFFFFFFFF03030303030303F3
:1001C000000003030303030303FCFEFFFFFFFFFF25
:1001D000FFFFFFFFFFFFFFFEFCFFFFFFFFFFFFFF33
:1001E000FFFFFFFFFFFFFFFFFF0001030303030308
:1001F0000303030303030301000F1800FE020202BE
:10020000F292929262020204F80000FF000000F8ED
:10021000080810E0000205F80000010101010100DA
:100220000000010101010100101800FE020202FE9F
:1002300000000000FE020202FE00000F10204087B6
:1002400008101008874020100F0000000000000078
:10025000010101010000000000000F1800FE020271
:1002600002F2929292921212121E0000FF000000FF
:100270003C24242427202020E0000001010101016A
:10028000010101010101010100111800FE02020239
:1002900082040810080482020202FE0000FF00002F
:1002A00000FF0102040201FF000000FF0000010145
:1002B000010101000000000001010101010010180E
:1002C00000F0080402E212121212E2020408F00026
:1002D00000FF000000F909090909F9000000FF000A
:1002E0000001010101010000000001010101010004
:1002F000010101010101FF030509112141810141B2
:10030000414141414141E1F1F1F1FFF1F1F1E141BF
:100310004141414141410181412111090503FF0151
:10032000010101010000002020203F20202020208A
:100330002020212224283020203C7EFFFFFFFFFFC9
:10034000FFFF7E3C20203028242221202020202056
:1003500020203F20202000000000000000000000BE
:10036000000000000000000000001F040201000067
:10037000010101010100000102041F000000000052
:10038000000000000000000000000000341801011F
:1003900001010101FF0305091121418101014141D1
:1003A000414141414141C1C1FEC1C1414141414180
:1003B000414101010181412111090503FF010101B1
:1003C00001010000002020203F20202020202020AC
:1003D000212224283020203C428100181918008155
:1003E000423C2020302824222120202020202020B0
:1003F0003F2020200000000000000000000000005E
:1004000000000000000000001F04020100000101C4
:1004100001010100000102041F00000000000000B3
:10042000000000000000000000003418010101017C
:100430000101FF03050911214181010101010101B0
:100440000101E111919191919111E10101010101EC
:1004500001010181412111090503FF010101010190
:100460000000002020203F202020202020202122CA
:1004700024283020203C4281001818180081423C7A
:1004800020203028242221202020202020203F202E
:10049000202000000000000000000000000000001C
:1004A0000000000000001F04020100000101010122
:1004B0000100000102041F00000000000000000015
:1004C0000000000000000000010101010101FF0324
:1004D0000509112141810141414141E1F1F1FFFF54
:1004E000F1F1E1414141410181412111090503FF40
:1004F000010101010000000808080F0808080808A9
:100500000808090ACC885E3F7F7F7F7F7F7F3F5E40
:1005100088CC0A09080808080808080F0808080015
:1005200000000000000000000000000000000000CB
:1005300003000000000000000000000000030000B5
:100540000000000000000000000000002C18010165
:1005500001010101FF0305091121418101414141CF
:100560004141C1C1FEFEC1C1414141414101814101
:100570002111090503FF010101010000000808081D
:100580000F08080808080808090ACC885E214040BE
:1005900045454040215E88CC0A090808080808083B
:1005A000080F08080800000000000000000000001C
:1005B0000000000000000300000000000000000038
:1005C0000000000300000000000000000000000028
:1005D00000002C18010101010101FF03050911218F
:1005E00041810101010101E191D1D1D1D191E1011B
:1005F0000101010181412111090503FF01010101EF
:100600000000000808080F08080808080808090A78
:10061000CC885E21404044444040215E88CC0A0999
:10062000080808080808080F08080800000000006B
:1006300000000000000000000000000003000000B7
:1006400000000000000000000003000000000000A7
:100650000000000000000000010101FF0305091176
:100660002141A121A1F1F9FFFFF9F1A121A141212E
:1006700011090503FF01010100010101010101014F
:10068000010139110B070F0F0F0F070B1139010172
:100690000101010101010100200E010101FF03051B
:1006A00009112141A121A161217E7E2161A121A108
:1006B000412111090503FF010101000101010101AF
:1006C0000101010139110B0408090908040B113952
:1006D00001010101010101010100200E010101FFE1
:1006E000030509112141810181712929292971817C
:1006F0000181412111090503FF01010100010101EF
:1007000001010101010139110B0408090908040B59
:1007100011390101010101010101010001417F4382
:10072000454951E14179FDFDFD7941E1514945439B
:100730007F410100000000000000030100000000F4
:1007400000010300000000000000171001417F437A
:10075000454951A9496999AE996949A95149454302
:100760007F410100000000000000030100000000C4
:1007700000010300000000000000171001417F434A
:10078000454951A1417995A5957941A151494543E3
:100790007F41010000000000000003010000000094
:1007A0000001030000000000000001213F23252973
:1007B000F5357D7F7D35F52925233F21011308017E
:1007C000213F212529E5354D4E4D35E52925213F90
:1007D0002101130801213F212529E1314D4D4D31E2
:1007E000E12925213F21010105070D050D0705011F
:1007F00009080105070D050D0705010001FF00FCB3
:1008000000F700F000E800DE00D200C400B500A54B
:1008100000930080006C00580042002C001600007D
:1008200000000016002C00420058006C008000936D
:1008300000A500B500C400D200DE00E800F000F71B
:1008400000FC00FF000001000200029A013B0100D1
:1008500001DB00C000AB009A008C00800076006EC7
:1008600000660060005A0018180000000000000038
:100870000000000000000000000000000000000078
:10088000000000000000000000187C7C3E7C7C1012
:100890000000000000000000000000000000000058
:1008A0000000000000000000000000000000000048
:1008B000000000000000008080C000000080800078
:1008C0000000000000000000000000000000000127
:1008D000031F7F7E1E7F7D100000000000000000CF
:1008E0000000000000000000000000000000000008
:1008F00000000000000000000000000000000040B8
:100900006070000000000080C0C000000000000017
:100910000000000000000080800C0C0C1E7C7C118C
:1009200081800000000000000000000000000001C5
:1009300003030000000000030707000000000000A0
:10094000000000000000B0381800000000000000A7
:1009500030704008080000000000000002020100A2
:1009600000187C7C3E7C7C10000000808000000031
:100970000000000003030404040000000000000065
:1009800000000307070300000000000088880E0035
:100990000000000000000080000038303000060633
:1009A0000002020081818010100C1C1C1E0C0C0126
:1009B00000000C0000000000001818202020030098
:1009C0000000000004000000000000060703000013
:1009D000000000860101000000000000000000008F
:1009E0000000400E0E080000010000010000001091
:1009F00010000E0E1200000000000000000C0000AD
:100A000000202043C7C600000000000018000000BE
:100A100000000000001C04040080800100000000B1
:100A20000000000000000000000000404001070638
:100A3000000101000000100000000C0C620000002A
:100A40000000000000081C0C002323C4C08000002C
:100A50000000000020000000000000000000202036
:100A600018000000000000000000000080000000EE
:100A70000000000000000101000000000000100064
:100A80000000000001808000000000000000000065
:100A90000C0000C00000000000000000000000008A
:100AA0000000000000000000C01010000000000066
:100AB0008080C080000000000000000000000000F6
:100AC00001030103010000000000000000000020FD
:100AD000F0C0C0A000000000000000000000000006
:100AE00001030103010000000000000000000010ED
:100AF0009880C08020300000000000000000000C42
:100B000008000103091C0000000000000040280C40
:100B10000080C080001810040000000000081010C1
:100B2000010301030100081C080000400024060026
:100B30008080C08020008C080002002040440C010E
:100B40000001110000000018080000002201000050
:100B500000C0400000001006840001408898000199
:100B60000000210000000000301000200100000003
:100B700000804000000000100182004890800100C9
:100B800000004200000000000040200000000000C3
:100B90000000200000000000000180008000010033
:100BA0000000000400000000000080202000000081
:100BB0000000000000000000000000000000000035
:100BC0000000000000000000000000000000000025
:100BD0000000000000000080C0C0E0F0F0C0E0E0D5
:100BE0000000000000000000000000000000000005
:100BF0000000000000000003070F0F03070F0F079E
:100C000003000000000000000000000000000000E1
:100C100000000000000000000000000000000000D4
:100C200000000000000000000000000000000000C4
:100C300000000000000000000000000000000000B4
:100C400000000000000000000000000000000000A4
:100C500000000000000C1EFFFFF8F0F0F8ECCC00E4
:100C60004000000000000000000000000000000044
:100C70000000000000000003070F0703030F0F0729
:100C80000300000000000000000000000000000061
:100C90000000000000000000000000000000000054
:100CA0000000000000000000000000000000000044
:100CB00000000000000000C0C000000000000000B4
:100CC0000000000000000000000000000000000024
:100CD00000000000000303C3C3C0C0F0F0C0C00C9C
:100CE0000C0F0F00000000000000000000000000DA
:100CF0000000000000F0F0C0C0000003030F0FC3AD
:100D0000C3F0F00000000000000000000000000040
:100D100000000000000000000000000000000000D3
:100D200000030300000000000000000000000000BD
:100D3000000000C0C0F0F000000000000000000053
:100D400000C0C08000303000000000000000000043
:100D50000030380C0C000000C0C0E0F0F0C0C080D3
:100D600000010B0303000000000000000000000071
:100D700000C0C08000000003070F0F03070F0F071C
:100D8000030000C0E0B0F0E0C00000000000000080
:100D90000000010303030100000000000000000048
:100DA000000000000001030100000000000000003E
:100DB0000030383C1C000000000000000000000073
:100DC00000000070F0E0C000000C0C0000303000AB
:100DD000000C0C00000080C0C0C0E0F0F0C0C00CEF
:100DE0000C0000C0C0000000000000000000000077
:100DF000003070F0E0030301000103030301000071
:100E0000000000000080C0C0C0000000000C0C38D2
:100E10003830300000000000000000030300000034
:100E20000000000000030301000000000000000CAF
:100E30000C030300000000000000000000000000A0
:100E400000000000001C1C38300000030300000CF0
:100E50000C0000000000000000E0F0703000000016
:100E600000000003030000C0C0000000000000C03C
:100E7000C0C0800000030300000000030300000066
:100E8000000000000000000000000000003030E022
:100E9000C1C3C300000000000000000C0C000000F3
:100EA000000000000000000E0F030300000000031C
:100EB000030000000000000000000000000000002F
:100EC0000000000000000003030C0C00000C0C00EC
:100ED000000000000000000000C0C0303000000032
:100EE000000000000003030000C0C00000C0C000FC
:100EF00000000003030000000000000C0C000000D4
:100F0000000000000000000000000000003030E39E
:100F1000C3C0C0000000000000000030200000003E
:100F200000000000000000000030381C0800000035
:100F300000000000000000000000000000000000B1
:100F4000000000000000000000030300000000009B
:100F500000000000000000000000000C0400000081
:100F60000000000000000000000000C0C000000001
:100F7000000000030300000000000000003030000B
:100F8000000000000000000000000000000000C0A1
:100F900080000000000000000000000000000000D1
:100FA0000000000000000000000000C0C0D5F08D6F
:100FB00014A1C881CFD9F1AF2000260800002E2A45
:100FC0003A003E2222003E223E003E0A36003E2AE1
:100FD00022001400003E223E003E223E003E223E01
:100FE0000000C9019901660139010901D9003901DF
:100FF000AC006B12BE0289025A029D1228025A02EC
:10100000F9010312213141505F6D030508090B0DF1
:10101000050B060AC0E0FEFEFEFEFEFCF0E0C0C0CE
:10102000C0C0C0DCDCFEFEFEFEFFFFFFFFFFFFFFD7
:10103000FFDEC0F0F0F00101070F0F0F0F1F1F1FA1
:101040001F1F3F3F3F3F7F7FFFFFFFFFFFFFFFFF70
:10105000FFFFFF7F7F7F7F7F000000000000000018
:10106000000000000000000000000000070F0F0F4C
:101070000F0F070000000000000022180080C0BC15
:10108000A4A4B860C0808080808080808888949488
:1010900094F492D2D2F292928C8000000000000070
:1010A00000020504040408080808081014141A2A89
:1010B0002A4A49C9596959C94640313F1F020200AD
:1010C0000000000000000000000000000000000020
:1010D00000000000000304050403000000000000FD
:1010E00000003D0800003E0A0E003E0A36003E2A7F
:1010F00022002E2A3A002E2A3A0000003E0A3E0024
:101100000000023E02003E223E0000002E2A3A006D
:10111000023E02003E0A3E003E0A3600023E020047
:101120000073108040F078B870E07CBE7FFF7FBE17
:101130007CE070B878F870A070F87CBC7CFC7CB85F
:1011400070F070B060C000000000000000000000FF
:10115000C0E0E0C080C0E0F0F0F0E0C080C0E0E0BF
:10116000E0C080C0E0F0F0F0F8F8F8F8F8F0C080E7
:10117000000000000000000040A078BC5CB870B81F
:101180005CBE7EBE5EBC70B85CBC7CB850B87CBE39
:101190005EBE7EBE5C300001000102010201020160
:1011A0000201020102010001000100010001000131
:1011B000000100010001000100000000000000002B
:1011C00000020103050205030502050305020503EC
:1011D000050205030502050B050A050B050A050BAB
:1011E000050A0503000000000000000000000001E7
:1011F00000010001000100010001000000000000EA
:101200000000000000000000000D100F090909F99E
:10121000010101F90909090F00000000FF80808029
:10122000FF000000000E10FF0101013F20202020E0
:101230003F010101FFFF808080FE02020202FE806A
:101240008080FF0510FF010101FFFF808080FF0DFE
:1012500010FF01010179494949C90909090FFF80B6
:101260008080FC0404040700000000101800F8044B
:101270000202F212121212724242447800007F807F
:1012800000003F20202F29390101817F000000004C
:10129000010101010101010101010000001018001C
:1012A000F8040202E212121212E2020204F8000032
:1012B0007F8000001F202020201F0000807F000072
:1012C0000000010101010101010101010000000E06
:1012D00010FF010101F909090909F1010102FCFFEF
:1012E0008080809F909090908F8080403F0208D4B3
:1012F000D205087F7F3E1C084120FE0105F1F1F177
:1013000011D1B1D111F1515151515151515151514D
:10131000515151510000FF00007F7F09090F060065
:101320007F7F19396F46007F7F4949414100266F11
:1013300049497B3200266F49497B32FF0000FFFF9D
:10134000FFFEFFFEFF0279CD95A5CD7901111111A8
:1013500001F9F901010000FF00007F7F09090F0674
:10136000007F7F40404040007C7E0B0B7E7C00076E
:101370000F78780F0700000000000000FF00001F3A
:101380003F3F33333333333E36363E363E363E36DA
:10139000363E36363E360000FF00003E7F41417F3C
:1013A0003E007F7F0E1C7F7F0000000000000000D9
:1013B000000000000000000000000000003F40505E
:1013C0004040407846414159594141414159594174
:1013D0004141414141414100007F000001017F7FC7
:1013E0000101007C7E0B0B7E7C007F7F09090F06CC
:1013F000007F7F4949414100000000000000080BC8
:1014000000020202000009040000010202000005BF
:10141000240010010524010101042402060524060C
:1014200000010705810310004009040100020A00C1
:10143000000007050202400000070583024000008B
:101440000403090412010002EF0201404123368027
:1014500000010102030141726475696E6F204C4CFA
:10146000430041726475626F7900F007F007E70787
:101470000502D207BD07AA070A047A074A071C0714
:101480000C05DA06980658061007D2054C05C80464
:1014900016082A048C03F0021A0A12100000F0F851
:1014A000FCFCFCF8F0F0F8FCFCFCF8F0000000009C
:1014B000000103070F1F3F3F1F0F0703010000003C
:1014C00000000000F0F8FCFCF0F0FCFCF8F000007C
:1014D00000000000000000030F1F3F3F1F0F03002C
:1014E00000000000000000000000F0F8FCFCF8F034
:1014F00000000000000000000000000000033F3F6B
:1015000003000000000000000000000000000000D8
:10151000FCFC0000000000000000000000000000D3
:1015200000003F3F0000000000000000000000003D
:101530000000F0F8FCFCF8F00000000000000000E3
:101540000000000000033F3F030000000000000017
:1015500000000000F0F8FCFCF0F0FCFCF8F00000EB
:1015600000000000000000030F1F3F3F1F0F03009B
:10157000000000000D10003C7EFEFEF8F8FEFE7E2E
:101580003C00000000000001030301000000000017
:101590000000003CFEFEF8FEFE3C000000000000E3
:1015A00000000103010000000000000000003CFEFC
:1015B000FE3C0000000000000000000003030000EB
:1015C000000000000000000000FE0000000000001D
:1015D0000000000000000300000000000000000008
:1015E00000003CFEFE3C0000000000000000000087
:1015F00003030000000000000000003CFEFEF8FEB7
:10160000FE3C00000000000000000103010000009B
:1016100000000908000C1E3E7C3E1E0C0000000C61
:101620003E7C3E0C00000000000C7E0C0000000020
:101630000000007E000000000000000C7E0C000096
:101640000000000C3E7C3E0C000004040606070F60
:101650000F0F0E0E0C0C0C04000004040607070705
:10166000060606040404040000000202060707033D
:101670000302020000000000000005120918040E19
:101680001C08160D00020406080A0C0E10000205C4
:1016900006090A0D0F1100030507090B0D0F1100B4
:1016A0000306070A0B0E0F11000406080A0C0E10A1
:1016B00012000205080B0E111417000306090C0F87
:1016C0001215180003060A0D0F1315190004070A56
:1016D0000D1013161A0005080B0E1114171A030823
:1016E0007D457D497D4175555D45557D1D117D5D6E
:1016F00055757D557505750D7D557D5D557D7CFE5A
:10170000FFFFFFFFFFFFFFFFFFFFFFFFFFFFFFFFE9
:10171000FFFFFFFFFFFFFFFFFE00000103070707BA
:101720000707070707070707070707070707070749
:10173000070707037CFEFFFFFFFFFFFFFFFFFFFF21
:10174000FFFFFFFFFFFFFFFFFFFFFFFFFFFFFE00A9
:10175000000103070707030707070707070707072E
:10176000070707070707070707037CFEFFFFFFFFC1
:10177000FFFFFFFFFFFFFFFFFFFFFFFFFFFFFFFF79
:10178000FFFFFFFFFE00000103070707030707072E
:1017900007070707070707070707070707070703DD
:1017A0007CFEFFFFFFFFFFFFFFFFFFFFFFFFFFFFCD
:1017B000FFFFFFFFFFFFFFFFFFFFFE00000103072A
:1017C00007070307070707070707070707070707AD
:1017D0000707070707037CFEFFFFFFFFFFFFFFFF71
:1017E000FFFFFFFFFFFFFFFFFFFFFFFFFFFFFFFF09
:1017F000FE0000010307070703070707070707079E
:101800000707070707070707070707031B10003825
:1018100044820204229244380202020202020202BC
:1018200002020202020202FC0000000000010201AA
:10183000000002020202020202020202020202028C
:101840000202010000387CFEFEFCFEDE6C38020263
:10185000FAFA0202020202020202020202FC000082
:101860000000000103010000020202020202020263
:101870000202020202020202010000387CFEFEFCAB
:10188000FEDE6C380202FAFA02FAFA0202020202E0
:10189000020202FC0000000000010301000002023D
:1018A000020202020202020202020202020201001B
:1018B00000387CFEFEFCFEDE6C380202FAFA02FA08
:1018C000FA02FAFA0202020202FC00000000000121
:1018D00003010000020202020202020202020202EC
:1018E00002020202010000387CFEFEFCFEDE6C38C3
:1018F0000202FAFA02FAFA02FAFA02FAFA0202FC0E
:1019000000000000000103010000020202020202C6
:101910000202020202020202020201003010000072
:101920008040404040404040404040404040404077
:1019300040404040404040404040404040404040A7
:101940004040404040404040404040800000001F38
:101950002040405F555B405F5551405F445F405FB2
:10196000405F415F405F514E404040475847405FB5
:10197000515F405F505F4040574040201F000808C3
:101980000C12224422120C000C1E224422120C00C3
:101990000C1E3E4422120C000C1E3E7C22120C0037
:1019A0000C1E3E7C3E120C000C1E3E7C3E1E0C00AB
:1019B0001C12048241402020202040418204F9036F
:1019C00003F90482414020202020404182045244F7
:1019D00048505050901050486472797C7C79726401
:1019E00048501090505050484452000000000000F1
:1019F00000010101010101010101010101010100D9
:101A00000000000000000E10F309040201196181BA
:101A10000101020409F2F3E4C890A02020A1A6A0CD
:101A20009088A4B3F3090402093141810101020441
:101A300009F2F3E4C890A02020A0A3A49088A4B346
:101A4000F3090402112141810101020409F2F3E4C6
:101A5000C890A02020A0A1A29088A4B3F3090412EA
:101A6000212141810101020409F2F3E4C890A02080
:101A700020A0A1A19288A4B3F309042221414181AD
:101A80008101020409F2F3E4C890A02020A0A0A1E3
:101A90009188A4B3F3090422414141818181020468
:101AA00009F2F3E4C890A02020A0A0A09188A4B3DC
:101AB000F3090442414141818181820409F2F3E446
:101AC000C890A02020A0A0A09088A4B3F30904820D
:101AD000818181818181820409F2F3E4C890A02090
:101AE00020A0A0A09088A4B3F00804828181814145
:101AF0004141420409F2F3E4C890A02020A0A0A034
:101B00009088A4B3F30904028181814141412204F8
:101B100009F2F3E4C891A02020A0A0A09088A4B36B
:101B2000F3090402018181414121220409F2F3E415
:101B3000C891A12020A0A0A09088A4B3F30904021A
:101B4000010181412121120409F2F3E4C892A1218B
:101B500020A0A0A09088A4B3F30904020101814150
:101B60002111020409F2F3E4C890A22120A0A0A050
:101B70009088A4B3F30904020101814131090204F0
:101B800009F2F3E4C890A42320A0A0A09088A4B3F5
:101B9000F3090402010181611901020409F2F3E46D
:101BA000C890A02621A0A0A09088A4B30E10F2098E
:101BB0000402010101010101020409F3B3A48890A8
:101BC000A0B0B03030A090C8E4F3F20904020101E3
:101BD00001010101020409F3B3A48890A0A8A82878
:101BE00028A090C8E4F3F2090402010101010101F7
:101BF000020409F3B3A48890A4A4A42424A490C844
:101C0000E4F3F2090402010101010101020409F3F4
:101C1000B3A48892A2A2A22222A292C8E4F3F2095B
:101C20000402010101010101020409F3B3A4899135
:101C3000A1A1A12121A191C9E4F3F20984828181AA
:101C400081818181828409F3B3A48890A0A0A0201F
:101C500020A090C8E4F3F20944424141414141418E
:101C6000424409F3B3A48890A0A0A02020A090C86B
:101C7000E4F3F2092422212121212121222409F344
:101C8000B3A48890A0A0A02020A090C8E4F3F209FB
:101C90000412111111111111120409F3B3A4889047
:101CA000A0A0A02020A090C8E4F3F2090402090932
:101CB00009090909020409F3B3A48890A0A0A0208F
:101CC00020A090C8E4F3F20904020105050505010E
:101CD000020409F3B3A48890A0A0A02020A090C87B
:101CE000E4F3F2090402010303030301020409F30C
:101CF000B3A48890A0A0A02020A090C8E4F303087B
:101D00001F111F121F101D151711151F07041F1774
:101D1000151D1F151D011D031F151F07051F0D088C
:101D20007C447C007C447C007C447C0000070707EA
:101D3000070707070707070707070707C7F7FFFF93
:101D4000FFFFF7C707070707070707070707070783
:101D50000707070707070707070707070707070713
:101D60000707070707070707070707070707070703
:101D700007070707070707070707070707070707F3
:101D800007070707070707070707070707070707E3
:101D9000070707070707C7F7FFFFFFFFF7C7070793
:101DA00007070707070707070707070707000000D8
:101DB0000000000000000000C0F0FC3F0F03FFFF28
:101DC000FFFF030F3FFCF0C0000000000000000018
:101DD0000000000000000000000000000000000003
:101DE00000000000000000000000000000000000F3
:101DF00000000000000000000000000000000000E3
:101E000000000000000000000000000000000000D2
:101E10000000C0F0FC3F0F03FFFFFFFF030F3FFC7C
:101E2000F0C00000000000000000000000F0C00052
:101E300000000000C0F0FC3F0F0300000000FFFFA7
:101E4000FFFF00000000030F3FFCF0C00000000097
:101E50000000000000000000000000000000000082
:101E6000000000000000000000000080C0800000B2
:101E70000000000000000000000000000000000062
:101E80000000000000000000000000000000C0F0A2
:101E9000FC3F0F0300000000FFFFFFFF00000000F9
:101EA000030F3FFCF0C00000000000C0F0030F3F34
:101EB000FCF0FC3F0F030000000000000000FFFFEB
:101EC000FFFF0000000000000000030F3FFCF0C017
:101ED0000000000000000000000000000000000002
:101EE00000000000000000081C3EDDFFFFFFDD3E9B
:101EF0001C080000000000000000000000000000BE
:101F000000000000000000000000C0F0FC3F0F03D4
:101F10000000000080C0C080DFDF9F1F80C0C08045
:101F2000C0C0800083CFDF9CD0DC9F0F03E0F87E31
:101F30001F071F7EF8E08000000000000000FFFF88
:101F4000FFFF000000000000000000000000030F81
:101F50003FFCF0C00000000000000000F0F8FC1C96
:101F60001C0E0E0E8E8E8787C7C7C7C7C7C7C7C7C9
:101F7000C7C7878E8E8E0E0E1C1CFCF8F00000006A
:101F8000000000000000C0F0FC3F0F030000000054
:101F90000000E0E3E7EFFFFFFFEFE7E3E7EFFFFF1E
:101FA000FFEFE7E3E7EFFFFFFFEFE7E3E007010005
:101FB0000000000001071F7EF8E080000000FFFF26
:101FC000FFFF000000000000000000000000000013
:101FD0000000030F3FFCF0C00080F8FFFFFFFCFC97
:101FE000FEFEFFFFFFFFFFFFFFFFFFFFFFFFFFFF03
:101FF000FFFFFFFFFFFFFFFFFEFEFCFFFFFFF8C03C
:102000008000C0F0FC3F0F03000000000000000053
:102010000000FFFFFFFFFFFFFFFFFFFFFFFFFFFFCE
:10202000FFFFFFFFFFFFFFFFFFFFFFFFFF000000BD
:10203000000000000000000001071F7EF8E0FFFF25
:10204000FFFF000000000000000000000000000092
:102050000000000000E0F9FFFFFFFFFFFFFFFFFFB0
:10206000FFFFFFFFFFFFFFFFFFFFFFFFFFFFFFFF80
:10207000FFFFFFFFFFFFFFFFFFFFFFFFFFFFFFFF70
:10208000FFFFFFF9E000000000000000000000007A
:102090000000FFFFFFFFFFFFFFFFFFFFFFFFFFFF4E
:1020A000FFFFFFFFFFFFFFFFFFFFFFFFFFF0F0F06D
:1020B000F0F0F0F0F0F0F0F0F0F0F0F0F1F7FFFFFA
:1020C000FFFFF0F0F0F0F0F0F0F0F0F0F0F0F0F0F2
:1020D000F0F0F0F0F0FFFFFFFFFFFFFFFFFFFFFF5B
:1020E000FFFFFFFFFFFFFFFFFFFFFFFFFFFFFFFF00
:1020F000FFFFFFFFFFFFFFFFFFFFFFFFFFFFFFFFF0
:10210000FFFFFFFFFFF0F0F0F0F0F0F0F0F0F0F084
:10211000F0F0FFFFFFFFFFFFFFFFFFFFFFFFFFFFED
:10212000FFFFFFFFFFFFFFFFFFFFFFFFFF804002FA
:10213000030202020302020203020202030202C2BB
:1021400033FEFE32C3020202030202020302020253
:10215000030202020302020203020202030202025B
:10216000030202020302020203020202030202024B
:10217000030202020302020203020202030202023B
:10218000030202020302020203020202030202022B
:10219000030202020302020203C232FEFF32C20243
:1021A000030202020302020203020202030202000D
:1021B0000000000000000000000000C0300C030020
:1021C00000FFFF0000030C30C00000000000000012
:1021D00000000000000000000000000000000000FF
:1021E00000000000000000000000000000000000EF
:1021F00000000000000000000000000000000000DF
:1022000000000000000000000000000000000000CE
:102210000000000000C0300C030000FFFF000003BE
:102220000C30C0000000000000000000000000C0F2
:1022300000000000000000C0300C0300000000009F
:1022400000FFFF000000000000030C30C000000091
:10225000000000000000000000000000000000007E
:1022600000000000000000000000000000008000EE
:10227000000000000000000000000000000000005E
:10228000000000000000000000000000000000004E
:1022900000C0300C03000000000000FFFF00000041
:1022A000000000030C30C000000000000000C0006F
:1022B000030C30C0300C03000000000000000000E0
:1022C00000FFFF00000000000000000000030C30D1
:1022D000C00000000000000000000000000000003E
:1022E00000000000000000000000081C0849FF4931
:1022F000081C0800000000000000000000000000B2
:1023000000000000000000000000000000C0300CD1
:1023100003000000000000000000003F3F0000003C
:1023200000000000000000030C3000300C030080AF
:102330006018060106186080000000000000000020
:1023400000FFFF000000000000000000000000008F
:1023500000030C30C000000000000000000000F08E
:102360000808080404040404020282828282838230
:1023700082828282020404040404080808F0000037
:10238000000000000000000000C0300C030000004E
:102390000000000000C040404040404040404040FD
:1023A000404040404040404040404040404040016C
:1023B000000000000000000106186080000000001E
:1023C00000FFFF000000000000000000000000000F
:1023D0000000000000030C30C0000000807827904F
:1023E00048288444222A292D2D2D4C9E3E7EFEFE17
:1023F0007E3E9E4C2D2D2D292A2244842848973834
:102400004080000000C0300C03000000000000000D
:102410000000000000FF0000401000040002000166
:102420000001000100010002000400104000000053
:10243000000000000000000000000001061860809D
:1024400000FFFF000000000000000000000000008E
:102450000000000000000000E019C6F1FCFEFF00D3
:102460007E8108080808080808080808817E00001E
:102470007E8100101010101010101000817E00FFDF
:10248000FEFCF1C619E000000000000000000000A2
:102490000000000000FF00550000000000000000E8
:1024A00000000800000000000000000000550020AF
:1024B000E0202020E0202020E0202020E02020211B
:1024C000E63F3F20E0202020E0202020E0202020C8
:1024D000E0202020E0202020FF00FFFF1FCF271753
:1024E0001614111214141424445452595C5E5F5F84
:1024F0005E5C5952544424141414121114161727F4
:10250000CF1FFFFF00FF202020E0202020E0202020
:1025100020E0202000FF0000010400100020004007
:1025200000400040004000200010000401000000B6
:10253000071F7FFEFEFEFCF8F8F8F0F0F0F8F8F860
:10254000FCFCFEFE7F3F0F00000080C1E7FFFFFFA5
:10255000FFFFFFFFFFFFFFFFFFFBF3E0C000003CBA
:102560003E3F3F3F1F0F07030101030303070F1FF8
:102570001F3F3F3F7F7F7800000000000000008089
:10258000F8FCFEFFFEF8F0C0800000000000000034
:10259000000C1E3E3F3F7FFFFFFFFFFFFFFFFFFFDF
:1025A000FFFFFE7E7C3810000000000000000000ED
:1025B0001F7FFFFFFF7F3F070300000000000018A0
:1025C000180000061E7CFCFCF8F0F0F0E0E0E0F003
:1025D000F0F0F8F8FC7C3E0E000000000080C1E73F
:1025E000FFFFFFFFFFFFFFFFFFFFFBF1E0C0000069
:1025F00000001C1E1F1F0F07030100000101010343
:10260000070F0F1F1F1F3F380000000000000000D1
:10261000000080F8FCFEF8F0C08000000000000020
:10262000000000000C1C1E1E3E7FFFFFFFFFFFFF8F
:10263000FFFFFF7E7C3C381000000000000000001F
:102640000000001F7F7F7F3F0703000000000000A5
:102650000000C52911241FBECFEFDAE0DEBFCDBFD9
:1026600011E0A0E0B1E0EEE6F3E702C005900D92C4
:10267000A436B107D9F727E0A4E6B1E001C01D9266
:10268000AA33B207E1F713E1CAE2D3E104C021970C
:10269000FE010E944338C932D107C9F70E94732A4C
:1026A0000C94B5390C940000E4E0F7E024853585FE
:1026B0004685578560897189828993890895803814
:1026C0009105C0F460347105A8F490E121E031E097
:1026D00061FD34E060FD330F62FD3295687F969FA7
:1026E000D0011124A80FAA52BE4F0C90032A20FF3C
:1026F00003260C920895E6EDF1E0A0E0B8E000803A
:102700000EBC8111012C1197A0FDFDCF0192B9F7EC
:102710000DB40895409112015091130196B54927C7
:102720009A013695279540FF02C094EB39273093E4
:10273000130120931201682F70E0C9010E941B3819
:1027400008952F923F924F925F926F927F928F9255
:102750009F92AF92BF92CF92DF92EF92FF920F9330
:102760001F93CF93DF93EC018B017A016901C61AA5
:10277000D70AD7FE03C0D194C194D10847018C1A5F
:102780009D0A97FE03C09194819491088C149D0436
:1027900054F49E2D8F2D7901292F382F9C2F8D2FAA
:1027A000E801092F182FEC16FD0654F4902F812F05
:1027B0008901292F382F9C2F8D2FE701E92EF82E24
:1027C00017012C1A3D0A2901401A510A57FE03C06D
:1027D000519441945108310137FE03C08FEF681ABC
:1027E000780A759467948FEF021713070CF481E051
:1027F000A82E880FBB08EC16FD069CF0BE01C80190
:102800008C149D0414F0B801CE010E945F1364186B
:10281000750877FE04C00A0D1B1D620C731C2196FF
:10282000EACFDF91CF911F910F91FF90EF90DF9052
:10283000CF90BF90AF909F908F907F906F905F9060
:102840004F903F902F900895FC018091C6018823FE
:1028500011F13FB7F89482E08093E9002091F200F3
:10286000822F90E01816190614F481E090E0882376
:1028700039F0289844E64093C5014091F100408327
:10288000222339F02091F200211103C02BE620937E
:10289000E8003FBF08958FEF9FEF08952FB7F8949A
:1028A00083E08093E9009091E800892F807295FF82
:1028B00004C09091F20080E4891B2FBF089580919D
:1028C000BD0181110DC082E08093B90184E0809345
:1028D000BA011092BC011092BB0181E08093BD014E
:1028E00089EB91E00895CF93DF931F92CDB7DEB7C8
:1028F0006983DC01ED91FC910280F381E02D41E0E0
:1029000050E0BE016F5F7F4F09950F90DF91CF912F
:10291000089583E08093E9008091F200882319F004
:102920008AE38093E80008950E944E1490E0089591
:10293000CF93DF931F92CDB7DEB7FC0184859585D9
:1029400097FD08C02FEF3FEF358724870F90DF9169
:10295000CF910895CE0101960E942414019719F495
:10296000898190E0F3CF8FEF9FEFF0CF0F931F930C
:10297000CF93DF931F92CDB7DEB78C01FC01848526
:10298000958597FF0BC0CE0101960E9424140197F4
:1029900071F4898190E0F80195878487F801848536
:1029A00095850F90DF91CF911F910F9108958FEF33
:1029B0009FEFF1CFFC018485958597FD0BC09FB7F4
:1029C000F89482E08093E9008091F2009FBF90E04C
:1029D000019608959FB7F89482E08093E900809172
:1029E000F2009FBF90E008954091B3015091B4016F
:1029F0002091B1013091B20142175307B4F4909184
:102A0000E8009570E1F39091E80092FD19C0809381
:102A1000F1008091B3019091B40101968F739927D1
:102A2000892B19F48EEF8093E8008091B301909187
:102A3000B40101969093B4018093B30181E00895AD
:102A400080E00895DF92EF92FF920F931F93CF9350
:102A5000DF93D82E8A01EB017B01E40EF51ECE1523
:102A6000DF0559F0D7FE12C0FE0184910E94F414D4
:102A700021968111F4CF0FEF1FEFC801DF91CF91A5
:102A80001F910F91FF90EF90DF9008958881EECF16
:102A90000F931F93CF93DF931F92CDB7DEB782E0E2
:102AA000898342E450E06EEF73E180E80E942215D2
:102AB0000E945F14DC0112960D911C910115110505
:102AC00089F0D801ED91FC910280F381E02DBE01E7
:102AD0006F5F7F4FC801099597FD04C0F80100851D
:102AE0001185ECCF89810F90DF91CF911F910F91CC
:102AF0000895615030F02091F100FC01208301968F
:102B0000F8CF289884E68093C5010895FC010E94BF
:102B10001D16319728F068517C4F8F4F9F4FF9CF8A
:102B2000AB01FC010E941D16641775078E079F07F5
:102B3000C8F308958F929F92AF92BF92CF92DF9287
:102B4000EF92FF920F931F93CF93DF936C017B0162
:102B50008A0180911001882309F45AC08091C6012E
:102B6000882309F455C08091B80180FF05C0809189
:102B7000E00082608093E000E801B12C8AEFA82E8B
:102B800093E0892E2AE3922E209711F4BB20C9F1FD
:102B90000E944E14811108C0AA94AA20C9F181E0B4
:102BA00090E00E948615F0CF8C171D0611F00CF0F6
:102BB0008C2F9FB7F8948092E9002091E80025FDC2
:102BC00002C09FBFE1CF282F30E0C21BD30BF7011B
:102BD000815020F041914093F100FACFE20EF31EB4
:102BE000BB2021F09092E800B12CEBCF8091E8005F
:102BF00085FDE7CF9092E800BB24B394209709F3BA
:102C0000F3CF5D9884E68093B701101611063CF06F
:102C100081E090E0F6019383828310E000E0C80138
:102C2000DF91CF911F910F91FF90EF90DF90CF90A8
:102C3000BF90AF909F908F900895ADEAB1E02FB70D
:102C4000F8947D918D919C9166B52FBFA89B05C08E
:102C50006F3F18F47F5F8F4F9F4F22E0660F771F03
:102C6000881F991F2A95D1F708956F927F928F92AE
:102C70009F92AF92BF92CF92DF92EF92FF920F930B
:102C80001F93CF93DF934C01DB0158017C2D41153D
:102C9000510509F49DC0FA016491319684914E5F0B
:102CA0005F4FC62FD0E0211102C0EE2009F1E1E014
:102CB000F0E0982F977011F4F0E0E0E0082F06950F
:102CC000069506950E0F1F2F111D0C9FF0010D9FED
:102CD000F00D1C9FF00D1124733009F088C0EE0F29
:102CE000FF1F2E9F80012F9F100D1124400F511F99
:102CF00084010C0F1D1F101611060CF069C0F0E8BE
:102D00008F1691040CF064C09D01280F311D12161E
:102D100013060CF05DC0A034B1050CF059C041158C
:102D2000510509F455C03A2F3770FD01B7FD3796AC
:102D300093E0F595E7959A95E1F72E2FB7FF04C03C
:102D4000332311F02FEF2E0FEE27FF27E819F90993
:102D500097FC02C0F0E0E0E090E898190038110517
:102D60000CF4962F9E1BA22F022E000CBB0B1A2FC9
:102D700010952F3F0CF010E0DD24D394082F07703E
:102D800009F4D12C869586958695D80EAD0DB11D8A
:102D900019971CF0A8E0DA2ED21AD11A210F00E8F8
:102DA0002003D0011124A80DB91DAE0FBF1F619FD4
:102DB000E00DF11D11244E0F5F1FE32E032E000CBA
:102DC000FF08723009F454C0F0F4713009F499C06E
:102DD000DF91CF911F910F91FF90EF90DF90CF90F7
:102DE000BF90AF909F908F907F906F900895A114A7
:102DF000B10409F476CFEE9E8001EF9E100D1124F0
:102E0000A00EB11E6ECF733009F4C5C00D2D020F98
:102E10007A3FF1F62017E1F2BD016A527E4FD12CC4
:102E2000C12CC91608F067C0FA01EC0DFD1DE49134
:102E3000F0E04F010E2C02C0880C991C0A94E2F7B6
:102E400027FD04C0FB01808188298083332351F052
:102E5000273044F45B01F0E8AF0EB11CF50180812E
:102E600089298083FFEFCF1ADF0A6F5F7F4FD9CFA9
:102E70006FEF70E0032E02C0660F771F0A94E2F72F
:102E800060957095972E8D2C820E281509F4A0CF91
:102E90008D010A521E4FD12CC12CC91630F5FA01F2
:102EA000EC0DFD1DE491F0E03F010E2C02C0660C1C
:102EB000771C0A94E2F727FD05C0F801808186237C
:102EC00086298083332359F027304CF45801F0E8E9
:102ED000AF0EB11CF5018081892187298083FFEF26
:102EE000CF1ADF0A0F5F1F4FD8CF2F5F4C0F5D1F28
:102EF000A058BF4FCACF2F5F4C0F5D1FA058BF4FC8
:102F000089CF85010E0F1F1F8D2D820F821709F4A7
:102F10005FCFBD016A527E4FD12CC12CC91698F5E6
:102F2000F801EC0DFD1DA490B12C0E2C02C0AA0CD2
:102F3000BB1C0A94E2F7A094B094FA01EC0DFD1DBD
:102F40008490912C0E2C02C0880C991C0A94E2F7F4
:102F500027FD08C0FB017080E72DEA217E2E78282E
:102F6000FB017082332349F027303CF4FB01E05829
:102F7000FF4FA080BA20B928B082FFEFCF1ADF0A36
:102F80006F5F7F4FCBCF2F5F4C0F5D1F0C0F1D1F4F
:102F9000A058BF4FBBCFE92EF12CE40FF51FAA526A
:102FA000BE4F60E870E06E197F09CE19DF09AE01EF
:102FB000440F551FC1E0D0E07E01032E01C0EE0C8E
:102FC0000A94EAF7192F0D2D892E932ECF93DF93B4
:102FD000ED01EF96EF962296A590C590992059F0B5
:102FE000AE9C5001CE9C600127302CF4F880D09428
:102FF000FD20FB28F99222233AF0FC90C094FC209B
:10300000FA28FD920C94051811961A9529F70A953D
:1030100051F0182D23951124E40FF11DA60FB11DB9
:10302000C60FD11DD9CFDF91CF911124D1CECF9230
:10303000EF920F931F9332E0C32EE12C10E000E0DB
:103040000E9435161F910F91EF90CF90089590E058
:103050000C9486158FB18095807F669B88601C9B41
:10306000846008955C988EBD00000DB407FEFDCF0E
:103070005C9A08959091A501982329F49091A60156
:10308000982381E009F480E00895CF92EF920F93A6
:103090001F934130E1F04430F0F0E0E14BEA5BE0B7
:1030A000F0E0062E000C770B6E1B7F0B082E000C39
:1030B000990B3AEFC32EE12C10E000E08E1B9F0B22
:1030C0000E9435161F910F91EF90CF900895E8E080
:1030D00049EA5AE0E5CFECE047E658E0E1CF84E684
:1030E0000E948A13082E000C990BC297092E000C1F
:1030F000AA0BBB0BBA2FA92F982F88278093DF0626
:103100009093E006A093E106B093E20684E60E9465
:103110008A13082E000C990BC297092E000CAA0BDB
:10312000BB0BBA2FA92F982F88278093E306909383
:10313000E406A093E506B093E6061092E706109227
:10314000E8061092E9061092EA06EFEEF6E0108229
:10315000118212821382148215821682178281E0F4
:103160008093F8061092F9068093F7060895FC0103
:103170004081518162817381BB2777FDBA95A72F6A
:10318000962F852F917030E020E077FF02C020E07D
:103190003EEF822B932B08956F927F928F929F9296
:1031A000AF92BF92CF92DF92EF92FF920F931F9355
:1031B000CF93DF93FC01608071801281D381C48141
:1031C000B581A681E7819301412F5D2F6C2F7B2F65
:1031D0008A2F9E2F00E10E947A3949015A0181E02D
:1031E000A822BB249301412F5D2F6C2F7B2F8A2FA8
:1031F0009E2FA0E00E94A039C4F080E090E0DC01A6
:10320000BC01CD01682979298A299B29DF91CF91B9
:103210001F910F91FF90EF90DF90CF90BF90AF90F4
:103220009F908F907F906F90089580E090E0AEEF38
:10323000BFEFE6CFFC01208131814281538164815F
:103240007581868197810895CF93DF93CDB7DEB7DF
:1032500028970FB6F894DEBF0FBECDBFFC012081CA
:10326000318142815381648175818681978148567D
:103270005140610971098109910929833A834B837E
:103280005C836D837E838F839887CE0101960E9435
:103290001A1928960FB6F894DEBF0FBECDBFDF9186
:1032A000CF910895AF92BF92CF92DF92EF92FF92AB
:1032B0000F931F93CF93DF93CDB7DEB728970FB649
:1032C000F894DEBF0FBECDBFFC019B01932F990F79
:1032D000990B492F592F692F792F892F00E10E94CF
:1032E0006139A080B180C280D380E480F5800681FE
:1032F00017810E94973929833A834B835C836D83BE
:103300007E838F839887CE0101960E941A19289692
:103310000FB6F894DEBF0FBECDBFDF91CF911F91E6
:103320000F91FF90EF90DF90CF90BF90AF900895F6
:103330006F927F928F929F92AF92BF92CF92DF92C5
:10334000EF92FF920F931F93CF93DF9337014801C2
:10335000661A770A880A990AD401C30164E0B59510
:10336000A795979587956A95D1F7EC017601650148
:10337000C21AD30AE40AF50A74E0F594E794D794E4
:10338000C7947A95D1F78601009729F430E020E0C0
:10339000C114D10471F1AC01D7FF04C044275527F3
:1033A000481B590BD60117FF04C0AA27BB27AC192D
:1033B000BD094D010B2E000CAA08BB086A01052EA1
:1033C000000CEE08FF082DE230E0A417B5070CF161
:1033D000DA010E944938A50194010E94BF3717FD08
:1033E00025C0D7FF06C088E691E0AC01421B530B15
:1033F0009A01C901DF91CF911F910F91FF90EF903A
:10340000DF90CF90BF90AF909F908F907F906F9004
:1034100008950E944938A70196010E94BF378AE5A6
:1034200090E04C01821A930A9401D9CFD7FD07C0CE
:1034300084EB90E0BC01621B730B9B01DACF2C5430
:103440003F4FD7CF9B01281B390BC901853B910505
:103450001CF088569140FACF8C343FEF93071CF450
:1034600088599E4FF9CF08950F93FB01DC016D91B0
:103470007D918D919C9120813181428153810E9467
:10348000503808E00E947A39B901CA010F910895B5
:103490004F925F926F927F928F929F92AF92BF9264
:1034A000CF92DF92EF92FF920F931F93CF93DF9310
:1034B000CDB7DEB768970FB6F894DEBF0FBECDBFAD
:1034C000ED86FE860F87188B298B3A8B4B8B5C8B96
:1034D0006D8B7E8B8F8B988F4D885E886F88788CF4
:1034E00080E84816510461047104DCF460E070E285
:1034F00080E090E068960FB6F894DEBF0FBECDBFB7
:10350000DF91CF911F910F91FF90EF90DF90CF90BF
:10351000BF90AF909F908F907F906F905F904F90F3
:10352000089523E030E040E050E0411480E5580683
:1035300061047104E4F4C301B20145E0660F771F32
:10354000881F991F4A95D1F720E03AE040E050E00B
:103550000E94DE37203108F073C0E22FF0E0EE0F5A
:10356000FF1FE95BF74F2591349150E040E04501A2
:1035700056012D833E834F835887BE016B5F7F4F7B
:10358000CE010D960E94341A6B017C0122E0F59465
:10359000E794D794C7942A95D1F78BA59CA5ADA5A0
:1035A000BEA5881A990AAA0ABB0A89869A86AB869A
:1035B000BC86BE016B5F7F4FCE0109960E94341A14
:1035C0004B015C0167E171E0CE018F960E94341AD5
:1035D00069837A838B839C83CE0101960E94B718FE
:1035E000182FCE0145960E94B718181619068CF5AB
:1035F0008038910584F5682F70E088E290E00E94A1
:103600002F3881E06115710531F0CB01673071050C
:1036100014F086E090E09601285B3F4F2139310598
:1036200008F064CF60E46C0D92E0B594A794979491
:1036300087949A95D1F7712F7819705E91E05ACFDF
:1036400060E078EB81E090E0A30192010E94DE3718
:103650008ECF81E0D0CF8FE7CECF6F927F928F92C7
:103660009F92AF92BF92CF92DF92EF92FF920F9311
:103670001F93CF93DF93CDB7DEB764970FB6F8945F
:10368000DEBF0FBECDBF3C014D835E836F83788765
:1036900009871A872B873C87CD86DE86EF86F88AD6
:1036A000898A9A8AAB8ABC8ABE016F5E7F4FCE013F
:1036B00009960E94341A6B017C01BE01635F7F4F43
:1036C000CE0105960E94341AC60ED71EE81EF91EBA
:1036D000F301C082D182E282F382148215821682C3
:1036E0001782BE01635F7F4FCE0109960E94341A94
:1036F0006B017C018D819E81AF81B885B095A095CD
:10370000909581959F4FAF4FBF4F89839A83AB832D
:10371000BC83BE016F5E7F4FCE0101960E94341ABA
:10372000C60ED71EE81EF91EF301C086D186E286BA
:10373000F386C30164960FB6F894DEBF0FBECDBF0B
:10374000DF91CF911F910F91FF90EF90DF90CF907D
:10375000BF90AF909F908F907F906F9008950F9340
:103760001F93CF93DF939C018B01CB0165E070E049
:103770000E941B38FB01FF27EE0FFF1FE20FF31F14
:10378000C591D491623108F061E16F5FE62FF0E0FE
:10379000EE0FFF1FE20FF31F259134912C1B3D0B01
:1037A000E5E0F0E0C801BF010E941B38AC01249F96
:1037B000C001259F900D349F900D1124BF010E94E0
:1037C0002F38CB018C0F9D1FDF91CF911F910F914F
:1037D0000895CF9368E671E00E941B389C01843BFA
:1037E000910590F0245B3109C1E02B35310580F45F
:1037F000B90181E298E00E94AF1B14C0BC0181E2D4
:1038000098E00E94AF1B11C08B359105B8F3C0E062
:1038100064EB70E0621B730B81E298E00E94AF1BC7
:10382000CC2319F0919581959109BC01990F880BD2
:10383000990BCF9108957F928F929F92AF92BF92F2
:10384000CF92DF92EF92FF920F931F93CF93DF936C
:10385000CDB7DEB760970FB6F894DEBF0FBECDBF11
:10386000782E49875A876B877C870D871E872F871D
:10387000388B67E171E0CE0109960E94341A4B0142
:103880005C01CE010D960E94B71828E631E0B9011F
:103890000E942F3888599E4FB9010E942F380E94EC
:1038A000E91B6D837E838F83988780E48719082EB8
:1038B000000C990BAA0BBB0BBA2FA92F982F8827A6
:1038C00089839A83AB83BC83BE016B5F7F4FCE013C
:1038D00001960E94341A20E2920EA11CB11C860EA1
:1038E000971EA81EB91EC80CD91CEA1CFB1CC98255
:1038F000DA82EB82FC82CE0101960E94B7186096B4
:103900000FB6F894DEBF0FBECDBFDF91CF911F91F0
:103910000F91FF90EF90DF90CF90BF90AF909F906E
:103920008F907F900895CF9328E631E0B9010E94EF
:103930001B388B35910528F1853B9105B8F424EBB4
:1039400030E0A901481B590BCA01C1E0BC018BEF53
:1039500097E00E94AF1BCC2319F0919581959109B6
:10396000BC01990F880B990BCF9108958F3051E0CE
:10397000950718F4845B9109E8CFA901481B590BFE
:10398000CA01C0E0E3CF2F923F924F925F926F92B5
:103990007F928F929F92AF92BF92CF92DF92EF92DF
:1039A000FF920F931F93CF93DF9300D01F92CDB759
:1039B000DEB71C012A013B01480159018091140125
:1039C00090911501A091160189839A83AB8384EBB2
:1039D0000E948A13182FCE0148960E94CC18412FBE
:1039E0004A55550B9A01220F331FC901860F971FA5
:1039F00088599E4F68E671E00E942F388C010E9422
:103A0000E91B5FE5569F9001579F300D1124832FCE
:103A1000992787FD9A95092E000CAA0BBB0BBA2F8C
:103A2000A92F982F8827840D951DA61DB71DF1017C
:103A300080839183A283B383C8010E94931CFFE516
:103A4000F69F9001F79F300D1124232F330F330B76
:103A5000032E000C440B550B542F432F322F2227DB
:103A6000280D391D4A1D5B1DD10114962D933D93E0
:103A70004D935C931797F101C086D186E286F38659
:103A8000608171818281938165015401830172019A
:103A90000E9498194C0188A163E00E940F38E92F19
:103AA000F0E0DE01AE0FBF1F11968C91D1015E9642
:103AB0008C93B8A18FEFB0FF81E0D1015D968C931C
:103AC0005D97940140E050E060E070E080E090E0BD
:103AD00000E10E94613950962C93509751963C9387
:103AE000519752964C93529753965C935397549692
:103AF0006C93549755967C93559756968C935697FE
:103B000057969C93EE0FFF1FEE0FFF1FEA5BFE4FD1
:103B100080819181A281B381F10184879587A687F5
:103B2000B787128E148E138E81E0818F80E395E724
:103B300091A380A30F900F900F90DF91CF911F91D1
:103B40000F91FF90EF90DF90CF90BF90AF909F903C
:103B50008F907F906F905F904F903F902F9008953F
:103B6000FC01208931894289538964897589868954
:103B7000978908952F923F924F925F926F927F9212
:103B80008F929F92AF92BF92CF92DF92EF92FF926D
:103B90000F931F93CF93DF93CDB7DEB7CA57D109E9
:103BA0000FB6F894DEBF0FBECDBF0E945413298319
:103BB0003A834B835C836D837E838F8398878E01EA
:103BC0000F5F1F4F1801C8010E94CC1828E631E092
:103BD00040E050E079018A01E61AF70A080B190B58
:103BE000C801B7010E94BF376B01CB010E94931C33
:103BF00060933107709332078093330790933407B3
:103C0000C6010E94E91B60933507709336078093C5
:103C1000370790933807F090D501E296FFAEE29710
:103C2000009118071091190720911A0730911B076E
:103C3000E1960CAF1DAF2EAF3FAFE1978090CD0165
:103C40009090CE01A090CF01B090D0014090D101D2
:103C50005090D2016090D3017090D4017301620141
:103C600095018401E1964CAD5DAD6EAD7FADE19700
:103C700080E00E941B1CAD969FAF8EAFAD97950163
:103C8000E1964CAD5DAD6EAD7FADE1978FE70E94E3
:103C90001B1CAD962EAD3FADAD97821B930B969539
:103CA000982F8827979587956FE770E00E942F38A7
:103CB0006B0189011695102F002717950795209104
:103CC0001C07E2963FADE297612C3330A9F4809156
:103CD000C7019091C8019695879565E070E00E94B4
:103CE0001B3895E02B3508F490E0692E680E85E0CE
:103CF0002F3608F480E0680E49E0649E50011124DC
:103D0000C5018B57994E4C01F12CE12C48EF442E04
:103D1000460C94EF960DAC969FAFAC97C80117FF79
:103D200002C081589F4F0C0D1D1D880F892F881FC1
:103D3000990B8134910514F080E490E097FD80E0C8
:103D400077247394780E672D70E0C7010E945F138B
:103D5000A9E0842DA61510F0F4018491780E552465
:103D60005394FFE3F7153CF1652D70E06D5F7F4FD5
:103D7000C7010E942F38892B39F4672D072C000CBE
:103D8000770BC7010E945F13539429E0261540F07A
:103D9000F501E50DF11DEC57F94EE4917E0EE1CFF2
:103DA000E0E05520D9F3E52DEE0FEE0FAC963FADD8
:103DB000AC97E30FF3CF4FEFE41AF40A50E8E5169F
:103DC000F10409F0ABCF0E94541329833A834B834B
:103DD0005C836D837E838F839887C1010E94CC189A
:103DE0002B01409118075091190760911A077091A3
:103DF0001B07C090D101D090D201E090D301F09088
:103E0000D4010091CD011091CE012091CF013091CC
:103E1000D00180E00E941B1C5C014091180750916A
:103E2000190760911A0770911B07C090D101D090BB
:103E3000D201E090D301F090D4010091CD01109116
:103E4000CE012091CF013091D0018FE70E941B1C41
:103E50008A199B099695982F8827979587956FE7DC
:103E600070E00E942F386B010AE7E02E06E1F02E89
:103E7000C20126E0880F991F2A95E1F76AE570E0F4
:103E80000E941B3805E010E0061B170B912CF70170
:103E90006491C80199278138910508F09A959C0191
:103EA000AC014F5E5F4F41395105D8F4FC0197FFDB
:103EB00002C0F0E0E0E0EC9DA001ED9D500DFC9D06
:103EC000500D1124440F452F441F550B4A0D641704
:103ED00044F4E42FE61BE4300CF0A2C11E160CF4EF
:103EE000A0C19394FFEFEF1AFF0A075E1F4F2AE06D
:103EF0009212CDCF88E1D1011D928A95E9F7E6E2D1
:103F0000F6E0AF96FFAFEEAFAF97310134E0432E4E
:103F100037E0532E8F018091040790910507A091FF
:103F20000607B0910707F801C080D180E280F380D6
:103F3000C81AD90AEA0AFB0A4091080750910907F2
:103F400060910A0770910B0784819581A681B781E2
:103F5000841B950BA60BB70B6B968CAF9DAFAEAFCA
:103F6000BFAF6B978091310790913207A0913307D3
:103F7000B091340721968CAF9DAFAEAFBFAF219704
:103F8000BE01635C7F4FCE01895A9F4F0E94341A55
:103F90004B015C018091350790913607A09137075E
:103FA000B09138072D968CAF9DAFAEAFBFAF2D97B8
:103FB000F094E094D094C094C11CD11CE11CF11C7D
:103FC0006596CCAEDDAEEEAEFFAE6597BE01675B2B
:103FD0007F4FCE018F5A9F4F0E94341A860E971E34
:103FE000A81EB91ED3018D929D92AD92BD923D0146
:103FF0000B5D1F4F4016510609F08DCF62961FAE24
:10400000629781E063968FAF639782E064968FAF8B
:10401000649783E065968FAF659784E066968FAF6F
:10402000669785E067968FAF6797A1E5B0E0AC0F24
:10403000BD1F119681E09D9104E0909FF001112435
:10404000E20DF31DC080D180E280F380182F21E5BE
:1040500030E02C0F3D1F210F311DA90141505109A6
:10406000FA014081F4E04F9FB0011124620D731DED
:10407000FB0180809180A280B3808C149D04AE04EB
:10408000BF0424F4F9014083115009F7E1E5F0E0A1
:10409000EC0FFD1FE10FF11D90838F5F863059F605
:1040A0008E010F5A1F4FE3961FAF0EAFE3970A5FC3
:1040B0001F4FEB961FAF0EAFEB97E396AEADBFADC4
:1040C000E3975D90E396BFAFAEAFE39785E2589E6E
:1040D00090011124F901EA5DF94F1F01918D992397
:1040E00009F44CC1009104071091050720910607BF
:1040F000309107074081518162817381401B510BD0
:10410000620B730B8091080790910907A0910A0731
:10411000B0910B070481158126813781081B190B8B
:104120002A0B3B0B8090350790903607A0903707FD
:10413000B0903807C0903107D0903207E090330735
:10414000F0903407CE01CD960E942D1B40911807A8
:104150005091190760911A0770911B0780910C0705
:1041600090910D0720910E0730910F07D1011896FD
:10417000AD90BD90CD90DC901B977F936F935F9334
:104180004F933F932F939F938F93EDACFEAC0FAD66
:1041900021961FAD219722962FAD229723963FADF2
:1041A000239724964FAD249725965FAD25972696A5
:1041B0006FAD269727967FAD279728968FAD2897C6
:1041C00029969FAD29970E94481AE4966FAFE4970D
:1041D000E5967FAFE597182F0FB6F894DEBF0FBEB8
:1041E000CDBF992309F4CAC0F5E05F12BAC2D1016C
:1041F0005A968C915A97823009F08EC05F962C9116
:1042000041E0112321F0412F173008F046E0E596F8
:104210006FADE597E4968FADE4970E944518AEC068
:10422000E3E0492D4370413009F473C008F46EC0D7
:10423000423009F065C04AE456E1813FFFEF9F0735
:104240000CF44FCE6150770BDB01AE0FB11DE7FDD3
:10425000BA95AB2B09F445CE603471050CF041CE14
:10426000B62FB7708B2EE3E075956795EA95E1F769
:10427000FB01F695FE2FEE27F795E795DC01AE0FD3
:10428000BF1FAD96BFAFAEAFAD97E058FF4F3F0138
:10429000680E791E90E080E037FD27C0FA01E80F34
:1042A000F91FA491B0E0082C02C0AA0FBB1F0A940A
:1042B000E2F76F3F760709F4A8C4AD96EEADFFAD07
:1042C000AD97E80FF91FEA52FE4F50805A2A5082EC
:1042D000882059F06730710541F0FC01E60DF71DAB
:1042E000EA52FE4FA081AB2BA08301962F5F3F4F78
:1042F0008031910509F4F5CD2038310569F6F1CD0D
:1043000097FDEFCD70E00E945F13EBCD4AE656E1DA
:1043100094CF4AE556E191CF8091C7019091C801B1
:1043200023E0969587952A95E1F766E070E00E9474
:104330001B38282FE596FFACE5976F2DFF0C770B08
:10434000E496FFACE4978F2DFF0C990B112379F0C5
:10435000173038F4113028F0133048F0153008F4D5
:10436000FAC1685071094AE954E1099705C06450DF
:10437000710942E156E104970E941718EB96EEADE1
:10438000FFADEB97E396EEACFFACE397EE15FF05C0
:1043900009F093CE8E010F5F1F4F38014E011DE3D0
:1043A000810E911CF30110821182128213821482F9
:1043B0001582168217823A968E169F06A1F7530130
:1043C000AF96AEADBFADAF974D915D916D917C91C4
:1043D000D5014D935D936D937C931397AF96AEADDE
:1043E000BFADAF9714964D915D916D917C911797EC
:1043F000D50114964D935D936D937C931797AF966B
:10440000AEADBFADAF9759968C91D50119968C93EF
:10441000AF960EAD1FADAF970B5D1F4FAF961FAFA1
:104420000EAFAF971AE0A10EB11CEA15FB0541F6DD
:10443000F090CC01FF2099F0F1FA222720F9CC244A
:10444000C394E22E0FE215E24FEB55E260E170E01B
:1044500083E390E00E943516FA94F092CC01CC24CC
:10446000C394E12C0DE21DE120E04DE251E270E049
:1044700060E090E080E00E94351600E510E08AE000
:10448000F301DE01DD9601900D928A95E1F7D301EB
:1044900019968C918111C5C2BAE06B0E711CA614DD
:1044A000B70469F78091D501833009F0A2C3009168
:1044B0002D0710912E0720E04EE15DE169E370E0E9
:1044C00090E080E00E941718C80164E670E00E9446
:1044D0001B38262F4EEF5CE16BE370E090E080E04C
:1044E0000E9417182AE030E0C801B9010E941B3869
:1044F000182FCB01B9010E941B38282F4EEF5CE129
:104500006BE370E084E090E00E941718212F4EEFDB
:104510005CE16BE370E088E090E00E941718809106
:10452000180790911907A0911A07B0911B076C0109
:104530007D01FF0CCC08DC2C76019C01AD016C2DBB
:104540007C2D8C2D9C2D08E00E946139E0E8AE2E78
:10455000F7E0BF2EC12CD12CE12CF12C00E010E0B3
:104560000E948C38D4012C9311963C93119712968B
:104570004C93129713965C93C4010E94B7188A5FFC
:104580008C300CF08BE0282F87FD20E04CEA5BE1BB
:104590006DE270E081E390E00E9417188091280797
:1045A00090912907A0912A07B0912B07F4018083ED
:1045B0009183A283B383C4010E94B718895F8F30AF
:1045C0000CF08EE0282F87FD20E046E05AE16DE2F6
:1045D00070E081E490E00E94171810912C07212FC1
:1045E000163008F025E04EE759E16EE170E088E60C
:1045F00090E00E94171820E015302CF02BEF210FCF
:104600001B300CF025E04EE759E16EE170E080E7E9
:1046100090E00E94171820E01A302CF026EF210FAE
:1046200010310CF025E04EE759E16EE170E088E7CB
:1046300090E00E9417181091CB01112309F4E1C2F8
:1046400087EA0E94321811501093CB01111107C054
:1046500080912C07811103C084E08093D5011091D3
:10466000CA01112361F020E04CE159E16AEF7FEFCC
:1046700090E080E00E94171811501093CA01D0906A
:104680001101FFEFDF1609F44CC0F090C901FF20C3
:1046900009F447C0FA94F092C901CC24C394ED2CDC
:1046A0000EEF16E12D2D4CE058E170E060E083E361
:1046B00090E00E943516D1102FC000912D07109167
:1046C0002E07C80164E670E00E941B38262F4EEDCD
:1046D00056E161E070E08FE390E00E9417182AE055
:1046E00030E0C801B9010E941B38182FCB01B90175
:1046F0000E941B38282F4EED56E161E070E083E404
:1047000090E00E941718212F4EED56E161E070E015
:1047100087E490E00E941718F11003C08FEF809398
:104720001101C658DF4F0FB6F894DEBF0FBECDBFE4
:10473000DF91CF911F910F91FF90EF90DF90CF907D
:10474000BF90AF909F908F907F906F905F904F90B1
:104750003F902F9008956850710944E755E10697FE
:104760000BCEC1010E94B01D2A962FAF2A972B961F
:104770003FAF2B972C964FAF2C972D965FAF2D9771
:104780002E966FAF2E972F967FAF2F9760968FAF95
:10479000609761969FAF6197CE01875B9F4F0E94A4
:1047A000CC18CB010E94E91BA3966CAF7DAF8EAFF6
:1047B0009FAFA397C1010E94B01D2A962FAF2A97E1
:1047C0002B963FAF2B972C964FAF2C972D965FAF24
:1047D0002D972E966FAF2E972F967FAF2F976096BF
:1047E0008FAF609761969FAF6197CE01875B9F4FB8
:1047F0000E94CC18CB010E94931C6F966CAF7DAFCA
:104800008EAF9FAF6F978091310790913207A09143
:104810003307B09134072D968CAF9DAFAEAFBFAFCD
:104820002D97BE01675B7F4FCE01855A9F4F0E9437
:10483000341A2B013C018091350790913607A091E5
:104840003707B0913807B095A095909581959F4F07
:10485000AF4FBF4F6B968CAF9DAFAEAFBFAF6B97F7
:10486000BE01695A7F4FCE01815A9F4F0E94341A70
:10487000460E571E681E791E0DEC40160FEF5006AF
:10488000600670060CF0BBC081E0D10194968C9359
:10489000D10194962C91112309F4BBC0AC961FAFA3
:1048A000AC97173020F0B6E0AC96BFAFAC97AC96A3
:1048B0008FADAC978150F8E08F9FC0011124FC01AF
:1048C000222309F4ABC0E659FB4E45915491FC01FB
:1048D000E259FB4E05911491FC01E059FB4E3491D5
:1048E000FC01EF58FB4EE491E596FFACE597AF2C49
:1048F000FF0CBB08E496FFACE4974F2CFF0C550867
:10490000B5016E1B7109E7FD7395CC24C394E12CAE
:1049100020E0C201831B910937FD93950E94351653
:10492000D10193968C91882309F45CC09091D501B4
:10493000933009F057C0082E000C990BA5E08A2E81
:10494000912C881A990AB3E0880C991CBA95E1F762
:1049500004E010E0081B190B83E0000F111F8A957B
:10496000E1F77501E818F908E796FFAEEEAEE797B4
:104970006201C80CD91C7501E01AF10AE996FFAE74
:10498000EEAEE9977201E00EF11EE7962EAD3FAD57
:10499000E797A601E9966EAD7FADE997C7010E9442
:1049A000A113320168187908401A510AE7962EAD12
:1049B0003FADE797A301E9966EAD7FADE997C201E0
:1049C0000E94A1138A0C9B1C0A0D1B1D9401A601B9
:1049D000B801C7010E94A1139401A301B801C2014B
:1049E0000E94A113D1015A968C915A97823009F0F6
:1049F000C5CC5F962C91AC964FADAC9708CCB4E388
:104A00004B165104610471040CF442CFF10114A25D
:104A10003FCFE1E0AC96EFAFAC9749CFE459FB4E06
:104A200054CF40910407509105076091060770919B
:104A3000070721968CAD9DADAEADBFAD2197841B10
:104A4000950BA60BB70BAB968CAF9DAFAEAFBFAFC0
:104A5000AB97409108075091090760910A07709140
:104A60000B0725968CAD9DADAEADBFAD2597841BD4
:104A7000950BA60BB70BA7968CAF9DAFAEAFBFAF94
:104A8000A7978091350790913607A0913707B0918D
:104A900038076F968CAF9DAFAEAFBFAF6F97BE01BB
:104AA000655A7F4FCE018D599F4F0E94341A1B01CA
:104AB0002C018091310790913207A0913307B0917A
:104AC00034076B968CAF9DAFAEAFBFAF6B97BE0197
:104AD000695A7F4FCE0189599F4F0E94341A260E82
:104AE000371E481E591E8091310790913207A091C0
:104AF0003307B0913407A3968CAF9DAFAEAFBFAF75
:104B0000A397BE01615A7F4FCE018D599F4F0E94DE
:104B1000341A6B017C018091350790913607A09182
:104B20003707B09138076F968CAF9DAFAEAFBFAF70
:104B30006F97AB968CAD9DADAEADBFADAB97B0955D
:104B4000A095909581959F4FAF4FBF4F6B968CAFBF
:104B50009DAFAEAFBFAF6B97BE01655A7F4FCE0121
:104B6000895A9F4F0E94341AC60ED71EE81EF91E9E
:104B700065962CAE3DAE4EAE5FAE65972D96CCAE33
:104B8000DDAEEEAEFFAE2D97CE018F5A9F4F0E9445
:104B9000B7187C01CE01875B9F4F0E94B718FC01BC
:104BA0002CE02E9DC0012F9D900D1124B8010E9474
:104BB0002F38262F8DE0860F893108F06DCC3CE030
:104BC0003E9FC0013F9F900D1124B8010E942F38D5
:104BD0008DE0861B893508F05FCC43E3461B642FCC
:104BE000062E000C770B2D58822F90E00E945F1349
:104BF00053CC20E040EB59E16EE270E082E390E0BC
:104C0000EACC86EA0E9432182ACD811066CB6DCBA1
:104C1000CF92DF92EF92FF920F931F93CF93DF9388
:104C2000CDB7DEB768970FB6F894DEBF0FBECDBF25
:104C30008C014D8B5E8B6F8B788FFC018485958505
:104C4000A685B7858D879E87AF87B88BC8010E94E0
:104C5000B01D29833A834B835C836D837E838F836E
:104C60009887CE0101960E94CC18CB010E94E91BC7
:104C700069877A878B879C87BE01635F7F4FCE01F0
:104C800009960E94341A698B7A8B8B8B9C8BBE01A0
:104C90006B5E7F4FCE0141960E94341AF801C080AE
:104CA000D180E280F380C60ED71EE81EF91EC082B6
:104CB000D182E282F38284859585A685B7858D872A
:104CC0009E87AF87B88BC8010E94B01D29833A83A5
:104CD0004B835C836D837E838F839887CE0101969F
:104CE0000E94CC18CB010E94931C69877A878B871E
:104CF0009C87BE01635F7F4FCE0109960E94341AE4
:104D0000698B7A8B8B8B9C8BBE016B5E7F4FCE0148
:104D100041960E94341AF801C480D580E680F7805D
:104D2000C60ED71EE81EF91EC482D582E682F7821F
:104D300068960FB6F894DEBF0FBECDBFDF91CF915E
:104D40001F910F91FF90EF90DF90CF9008951F92E9
:104D50000F920FB60F9211248F939F938091E100D1
:104D60009091E100937F9093E10083FF0FC0109238
:104D7000E90091E09093EB001092EC0092E39093A5
:104D8000ED001092C60198E09093F00082FF22C0DF
:104D900093E09093E9009091F200992319F09AE33F
:104DA0009093E8009091B701992341F09091B70159
:104DB00091509093B701911101C05D9A9091C501F6
:104DC000992341F09091C50191509093C5019111A3
:104DD00001C0289A84FF18C08091E2008E7E816015
:104DE0008093E2008091E1008F7E8093E1008091CA
:104DF000B8018E7E80618093B8019F918F910F9052
:104E00000FBE0F901F90189580FFF7CF8091E200A2
:104E10008E7E80618093E2008091E1008E7E80939F
:104E2000E1008091B8018E7E8160E5CF1F920F92E4
:104E30000FB60F921124CF92DF92EF92FF920F9351
:104E40001F932F933F934F935F936F937F938F9312
:104E50009F93AF93BF93EF93FF93CF93DF93CDB720
:104E6000DEB76C97DEBFCDBF1092E9008091E800FD
:104E700083FF25C068E0CE0145960E94791582EF38
:104E80008093E8008D8987FF39C09091E80090FFFA
:104E9000FCCF982F907609F034C19E894F89588DA8
:104EA0002F89F88C911131C0803861F58091B6015D
:104EB0008093F1001092F1008EEF8093E8006C96E1
:104EC0000FB6F894DEBF0FBECDBFDF91CF91FF913B
:104ED000EF91BF91AF919F918F917F916F915F9172
:104EE0004F913F912F911F910F91FF90EF90DF9085
:104EF000CF900F900FBE0F901F9018959EEF90933C
:104F0000E800C7CF1092F100D5CF913059F481114C
:104F1000D3CF4130510581F68091B6018D7F8093CA
:104F2000B601CACF933049F48111C6CF4130510543
:104F300019F68091B6018260F2CF953041F48091EC
:104F4000E80080FFFCCF20682093E300B5CF9630C7
:104F500009F0A9C00B8D1C8D22E01092E90010927F
:104F6000B4011092B301F2122EC01092B20110924D
:104F7000B1010E9448151F8299E09983FA8291E05D
:104F80009E8390EA98879AEF99872091B301309198
:104F9000B401275F3F4F3C832B838D831092E90040
:104FA0001092B4011092B3011093B2010093B101B9
:104FB00049E050E0BE016F5F7F4F80E00E94221504
:104FC0000E94481579CF1093B2010093B1010E945D
:104FD0005F14DC0112960D911C910115110509F465
:104FE00051C1D801ED91FC910480F581E02DBE0105
:104FF0006B5E7F4FC8010995009709F03EC1F8012B
:1050000000851185EACFF3E0FF120EC08F89882357
:1050100009F440C0823061F440E867E082E694E140
:105020000E949229811148CF81E28093EB0047CF03
:10503000813029F440E86BE086E594E1F1CF8330DC
:1050400099F70E945F14DC011296ED90FC908E019E
:105050000F5F1F4F6801E114F10479F0D701ED9162
:10506000FC910680F781E02DB801C7010995080F72
:10507000111DF701E084F184EECFD8011C92F601F6
:1050800001900020E9F73197BF016C197D0940E0DC
:10509000C601C6CF60E474E1FB01449150E080E8B2
:1050A0000E94221509CF973009F4BECF983021F421
:1050B00081E08093F10000CF993009F0FDCE83703C
:1050C00009F0B2CFE0E4F1E081E031E096E3219134
:1050D000222371F08093E9003093EB00DF011197F8
:1050E0002C912093EC009093ED008F5F873079F73F
:1050F0008EE78093EA001092EA008F898093C601C0
:10510000DBCE8B8D9C8D1092E9001092B401109231
:10511000B3019093B2018093B101898D811192C046
:105120008E899D89913A49F4813209F07DCF47E01B
:1051300050E069E071E080E0B3CF913209F074CFC4
:10514000833269F48F89988DB0E0A0E080930501E7
:1051500090930601A0930701B0930801ADCE803271
:1051600069F48091E80082FFFCCF67E089E091E07C
:105170000E9479158BEF8093E8009ECE823209F071
:105180009BCE8F8980931001EEEFFFE7859194917C
:105190008B3F9C4D51F1E0E0F8E080910901909146
:1051A0000A01A0910B01B0910C01803B9440A10534
:1051B000B105F1F48091100180FD1AC0EE3F8AE044
:1051C000F80789F587E797E79183808380916000EE
:1051D0008093B50188E19BE00FB6F894A895809381
:1051E00060000FBE9093600067CEEEEFFAE0D5CF7F
:1051F000808191818737974709F05ECEA89580918D
:1052000060008861809360008091B50180936000A8
:10521000EE3F2AE0F20789F08091FE0A9091FF0AA2
:105220009183808349CE808191818737980751F29D
:105230009093FF0A8093FE0AC5CF1092FF0A109246
:10524000FE0A3ACE0E945F14DC0112960D911C9169
:105250000115110509F4E8CED801ED91FC910190FA
:10526000F081E02DBE016B5E7F4FC8010995811171
:1052700023CEF80100851185EBCF181619060CF422
:105280001BCED2CEF1E0FF12BECE64E474E104CFB7
:105290000F920FB68F939F93EF93FF938091A80186
:1052A0008D5F8D3708F08D578093A801E9EAF1E012
:1052B00080818E4F808391819F4F918382818F4F18
:1052C000828383818F4F8383EDEAF1E080818F5F5A
:1052D000808381818F4F818382818F4F82838381FD
:1052E0008F4F83838FB18F6066991C9B88278F3681
:1052F00081F48091A701981B963068F0E0E0F8E017
:1053000087E78083818388E180936000F093600069
:10531000FFCF9093A701FF91EF919F918F910FBEC7
:105320000F901895EF92FF920F931F93CF93DF93F7
:10533000F82E192FE62E042F81E0860F880F0E9489
:10534000F41483E00E94F414CF2DD12FEC0EFD2E27
:10535000F11CCE15DF05B9F007FF13C0FE018491E3
:105360000E94F414182F80E00E94F41481232196E7
:105370008111EFCFDF91CF911F910F91FF90EF90AF
:1053800008958881EDCF81E0F5CF1092D905109274
:10539000D80588EE93E0A0E0B0E08093DA05909322
:1053A000DB05A093DC05B093DD0586E591E09093E5
:1053B000D7058093D6058FEF9FEF9093E3058093F9
:1053C000E20510920407109205071092060710924A
:1053D0000707109208071092090710920A07109207
:1053E0000B0710920C0710920D0710920E071092E7
:1053F0000F071092100710921107109212071092C7
:1054000013071092140710921507109216071092A6
:105410001707109218071092190710921A07109286
:105420001B0710921C0710921D0710921E07109266
:105430001F07109220071092210710922207109246
:105440002307109224071092250710922607109226
:105450002707109228071092290710922A07109206
:105460002B0710922E0710922D0710922F071092E3
:1054700030071092310710923207109233071092C2
:1054800034071092350710923607109237071092A2
:10549000380710923907E6E2F6E080E395E71082DC
:1054A000118212821382148215821682178210864C
:1054B0001186128613861486158616861786108A1C
:1054C000118A128A138A148A158A168A178A178EE5
:1054D00091A380A312A213A214A2B59627E0E430F0
:1054E000F207E9F60895CDB7DEB7C554D109DEBF9E
:1054F000CDBF789483E084BD83E085BD81E0809357
:105500006E00E1E8F0E083E08083E0E881E0808302
:10551000E1E983E08083E0E981E08083E1EC87E0FA
:105520008083E3EC81E08083E0EC82E08083E2EC46
:1055300081E08083EAE787E080838068808310923F
:10554000C6011092B6011092B8018091D700816017
:105550008093D70080EA8093D80089B5806189BDA7
:1055600089B5826089BD09B400FEFDCF81E090E07D
:105570000E9486158091D8008F7C80618093D8002E
:105580008091E000807F8093E0008091E1008E7E3A
:105590008093E1008DE08093E200559A209A81EC9F
:1055A00080937C0081EF85B987EE84B982E38BB963
:1055B00082EF8AB9769A6E9880EF81BB10BA80E547
:1055C0008CBD81E08DBD85E00E9427185F9A85E043
:1055D0000E9427185C98EDEAFFE085918EBD0000DF
:1055E0000DB407FEFDCFEA3BC1F75C9A81E88093DA
:1055F000640081E08093650080E00E947B130E943C
:105600002A1887FF10C085EA0E9432182E982F981A
:105610002D988091640080628093640081E083BF54
:10562000889513BEFCCF0E942A18982F947082FF91
:1056300037C02D980E942A1884788438A1F42D9AB6
:1056400088EC0E9427182F986FEF82E090E00E946C
:10565000AD3784EF91E00E9486152F9A0E942A1898
:1056600084788438D9F30E942A1884718431A1F493
:105670002D9A88EC0E9427182E9860E082E090E036
:105680000E94AD3784EF91E00E9486152E9A0E9409
:105690002A1884718431D9F388EC0E942718C3CF6B
:1056A0002D9AE6EDF1E091119FEF8FEF9193919399
:1056B000919391938150D0F781E28093040180917E
:1056C0006B01882349F010926B0180E090E0892BF8
:1056D000B1F30E940000F3CF9091A90180916C0179
:1056E000892E881A882D20910401821640F48F5F3C
:1056F000821758F781E083BF889513BEE6CF81E01B
:1057000080936B0190936C01E7ECF1E080819181D3
:105710000196808391831091A6011093A5010E94A8
:105720002A188093A601E091D501E73008F08AC0DD
:10573000F0E0E356F44D0C944338A42BE92B262CCF
:10574000DD2D533679362E3788E00E943A188111C4
:1057500005C084E00E943A18882319F081E0809304
:10576000D50120E048EF52E161E170E080E290E095
:105770000E9417188091C7019091C80160E370E002
:105780000E941B3888319105F8F411E10C9708F05C
:105790001EE120E041EF52E169E170E08BE590E02D
:1057A0000E941718612F70E084E390E00E945F135D
:1057B00010FD48C020E04DEE52E16CE170E08DE25A
:1057C00090E00E9417183EC01FE1849758F310E242
:1057D000E9CF80EE9FEF9093A2018093A1018CE925
:1057E0009FEF9093A4018093A30110929F011092C8
:1057F000A001809164008E7F8093640080917A0084
:10580000806480937A0080917A0086FDFCCF0091BD
:105810007800109179000E941D16602771277093FF
:105820001301609312018091640081608093640091
:1058300082E08093D5011092C8011092C70180E1E7
:105840008093040181E00E947B133FCF88E00E9497
:105850003A18811106C084E00E943A18882309F49E
:10586000B1C081E280930401F6E2AF2EF6E0BF2ED4
:10587000912C812C712CA5E06A2ED50158966C9242
:1058800058975C969C928E925B977F921F921F9284
:105890001F921F921F921F921F921F92C12CD12CF8
:1058A000760100E010E0980140E050E0BA01C50147
:1058B0000E94C31C7394B5E2AB0EB11CEEE18E0ED8
:1058C000911C0FB6F894DEBF0FBECDBF15E071126C
:1058D000D4CF83E08093D5018CE490E0A0E0B0E0E9
:1058E0008093000190930101A0930201B093030102
:1058F00084E00E943A181092040710920507109253
:1059000006071092070710920807109209071092D5
:105910000A0710920B0740E054E160E070E040930A
:105920000C0750930D0760930E0770930F071092AA
:10593000100710921107109212071092130710927D
:10594000140710921507109216071092170710925D
:1059500018071092190710921A0710921B0743E3B9
:1059600050E060E070E040931C0750931D07609387
:105970001E0770931F0710922007109221071092A4
:1059800022071092230710922407109225071092E5
:1059900026071092270710922807109229071092C5
:1059A0002A0710922B079FE090932C0710922F0745
:1059B0001092300710922E0710922D07809339070E
:1059C0000E946F1820E04FEC52E164E170E088E043
:1059D00090E00E94171820E04DE952E163E170E089
:1059E00086E190E00E94171820E04BE652E163E167
:1059F00070E085E290E00E94171820E04FE452E149
:105A000064E170E089E390E00E94171820E043E42D
:105A100052E164E170E087E490E00E94171820E012
:105A20004BE652E163E170E08CE490E00E941718CD
:105A300020E045E252E164E170E08CE590E00E94F4
:105A4000171820E049E052E164E170E08BE690E055
:105A50000E94171820E041E251E161E070E087E028
:105A600090E00E94171820E041E251E16BE270E003
:105A700087E090E00E9417188091C7019091C801BB
:105A80008134910568F08F739927809748F420E05E
:105A900042EE50E16AE370E081E290E00E94171864
:105AA00071EA472E71E0572E2FE931E03AAB29AB6E
:105AB000EEE88E2E912CD201AD90BC901501BFEF77
:105AC0002B1A3B0AF20131822082F1E2AF0EB11CA7
:105AD000E12C18E0F12E00E010E0ED86FE860F8745
