:100000000C944B1F0C94731F0C94731F0C94731F50
:100010000C94731F0C94731F0C94731F0C94731F18
:100020000C94731F0C94731F0C94A3260C9412272A
:100030000C94731F0C94731F0C94731F0C94731FF8
:100040000C94731F0C948E290C94731F0C94731FC3
:100050000C94731F0C94731F0C94731F0C944429FD
:100060000C94731F0C94731F0C94731F0C94731FC8
:100070000C94731F0C94731F0C94731F0C94731FB8
:100080000C94731F0C94731F0C94731F0C94731FA8
:100090000C94731F0C94731F0C94731F0C94731F98
:1000A0000C94731F0C94731F0C94731F0C18C0C016
:1000B00020E020E010F010F0F8F8F8F804FC84FCE0
:1000C00082FEC2FEFFFFFFFF00FF00FF00FF00FFF8
:1000D00081FF83FF437F417F213F203F1F1F070791
:1000E0000203020301010101000000000000000002
:1000F00000000000000000C000E000E000F000F0A0
:10010000F8F8F8F800FC80FC80FEC0FEC0FF00FF9D
:1001100000FF00FF00FF00FF01FF03FF037F017FDF
:10012000013F003F001F0007000300030001000122
:10013000000000000000000000000000000000C0FF
:1001400000E000E000F000F0F8F8F8F800FC80FCB7
:1001500080FEC0FEC0FF00FF00FF00FF00FF00FFA9
:1001600001FF03FF037F017F013F003F001F0007E6
:100170000003000300010001000000000000000077
:10018000000000000000C0C020E020E010F010F0EF
:1001900008F808F804FC84FC82FEC2FEFFFFFFFFA3
:1001A00000FF00FF00FF00FFFCFFFFFF437F417FD8
:1001B000213F203F1F1F0707020302030101010126
:1001C000000000000000000000000000000000C06F
:1001D00000E000E000F000F000F800F800FC80FC17
:1001E00080FEC0FEC0FF00FF00FF00FF00FF00FF19
:1001F000FCFFFFFF037F017F013F003F001F00075F
:1002000000030003000100010000000000000000E6
:1002100000000000000000C000E000E000F000F07E
:1002200000F800F800FC80FC80FEC0FEC0FF00FF6C
:1002300000FF00FF00FF00FFFCFFFFFF037F017FC7
:10024000013F003F001F0007000300030001000101
:100250000000000000000000000000000000C0C01E
:1002600020E020E010F010F008F808F804FC04FC8E
:1002700002FE02FEFFFFFFFF18FF0CFF0CFF06FF50
:10028000FEFFFCFF407F407F203F203F1F1F0707EE
:100290000203020301010101000000000000000050
:1002A00000000000000000C000E000E000F000F0EE
:1002B00000F800F800FC00FC00FE00FE00FF18FF44
:1002C00018FF0CFF0CFF06FFFEFFFCFF007F007F06
:1002D000003F003F001F0007000300030001000172
:1002E000000000000000000000000000000000C04E
:1002F00000E000E000F000F000F800F800FC00FC76
:1003000000FE00FE00FF18FF18FF0CFF0CFF06FFA9
:10031000FEFFFCFF007F007F003F003F001F000743
:1003200000030003000100010000000000000000C5
:10033000000000000000C0C020E020E010F010F03D
:10034000F8F8F8F804FC04FC02FE02FEFFFFFFFFD1
:1003500018FF0CFF0CFF07FF87FF81FF407F407FE6
:10036000203F203F1F1F0707020302030101010175
:10037000000000000000000000000000000000C0BD
:1003800000E000E000F000F0F8F8F8F800FC00FCF5
:1003900000FE00FE00FF18FF18FF0CFF0CFF07FF18
:1003A00007FF01FF007F007F003F003F001F0007A5
:1003B0000003000300010001000000000000000035
:1003C00000000000000000C000E000E000F000F0CD
:1003D000F8F8F8F800FC00FC00FE00FE00FF18FF33
:1003E00018FF0CFF0CFF07FF07FF01FF007F007FD6
:1003F000003F003F001F0007000300030001000151
:100400000000000000000000000000000000C0C06C
:1004100020E0A0E0D0F0D0F0F8F8F8F8F4FCF4FC1C
:10042000FAFEC2FEFFFFFFFF00FFFFFF7FFF7FFF1F
:10043000BFFFBFFF5F7F5F7F2F3F203F1F1F07076B
:10044000020302030101010100000000000000009E
:1004500000000000000000C000E000E000F000F03C
:10046000F8F8F8F800FC80FC80FEC0FEC0FF00FF3A
:1004700000FF00FF00FF00FF01FF03FF037F017F7C
:10048000013F003F001F00070003000300010001BF
:10049000000000000000000000000000000000C09C
:1004A00000E000E000F000F0F8F8F8F800FC80FC54
:1004B00080FEC0FEC0FF00FF00FF00FF00FF00FF46
:1004C00001FF03FF037F017F013F003F001F000783
:1004D0000003000300010001000000000000000014
:1004E000000000000000C0C020E0A0E0D0F0D0F08C
:1004F000E8F8E8F8F4FCF4FCFAFEC2FEFFFFFFFFA8
:1005000000FFFFFF7FFF7FFFFFFFFFFF5F7F5F7F3A
:100510002F3F203F1F1F07070203020301010101B4
:10052000000000000000000000000000000000C00B
:1005300000E000E000F000F000F800F800FC80FCB3
:1005400080FEC0FEC0FF00FF00FF00FF00FF00FFB5
:10055000FCFFFFFF037F017F013F003F001F0007FB
:100560000003000300010001000000000000000083
:1005700000000000000000C000E000E000F000F01B
:1005800000F800F800FC80FC80FEC0FEC0FF00FF09
:1005900000FF00FF00FF00FFFCFFFFFF037F017F64
:1005A000013F003F001F000700030003000100019E
:1005B0000000000000000000000000000000C0C0BB
:1005C00020E0A0E0D0F0D0F0E8F8E8F8F4FCF4FC8B
:1005D000FAFE02FEFFFFFFFF18FFFFFF7FFF7FFF16
:1005E000FFFFFFFF5F7F5F7F2F3F203F1F1F07073A
:1005F00002030203010101010000000000000000ED
:1006000000000000000000C000E000E000F000F08A
:1006100000F800F800FC00FC00FE00FE00FF18FFE0
:1006200018FF0CFF0CFF06FFFEFFFCFF007F007FA2
:10063000003F003F001F000700030003000100010E
:10064000000000000000000000000000000000C0EA
:1006500000E000E000F000F000F800F800FC00FC12
:1006600000FE00FE00FF18FF18FF0CFF0CFF06FF46
:10067000FEFFFCFF007F007F003F003F001F0007E0
:100680000003000300010001000000000000000062
:10069000000000000000C0C020E0A0E0D0F0D0F0DA
:1006A000F8F8F8F8F4FCF4FCFAFE02FEFFFFFFFF96
:1006B00018FFFFFF7FFF7FFFBFFFBFFF5F7F5F7FF1
:1006C0002F3F203F1F1F0707020302030101010103
:1006D000000000000000000000000000000000C05A
:1006E00000E000E000F000F0F8F8F8F800FC00FC92
:1006F00000FE00FE00FF18FF18FF0CFF0CFF07FFB5
:1007000007FF01FF007F007F003F003F001F000741
:1007100000030003000100010000000000000000D1
:1007200000000000000000C000E000E000F000F069
:10073000F8F8F8F800FC00FC00FE00FE00FF18FFCF
:1007400018FF0CFF0CFF07FF07FF01FF007F007F72
:10075000003F003F001F00070003000300010001ED
:1007600000000000000000000000000000000C1865
:10077000C0C020E020E010F010F0F8F8F8F804FC19
:1007800084FC82FEC2FEFFFFFFFF18FF0CFF0CFF80
:1007900006FF87FF83FF437F417F213F203F1F1FCD
:1007A000070702030203010101010000000000002D
:1007B000000000000000000000C000E000E000F0C9
:1007C00000F0F8F8F8F800FC80FC80FEC0FEC0FFE6
:1007D00018FF18FF0CFF0CFF06FF07FF03FF037F46
:1007E000017F013F003F001F0007000300030001DD
:1007F00000010000000000000000000000000000F8
:1008000000C000E000E000F000F0F8F8F8F800FCAC
:1008100080FC80FEC0FEC0FF18FF18FF0CFF0CFF1D
:1008200006FF07FF03FF037F017F013F003F001F1B
:1008300000070003000300010001000000000000A9
:100840000000000000000000C0C020E020E010F028
:1008500010F0F8F8F8F804FC84FC82FEC2FEFFFFFA
:10086000FFFF00FF00FF00FF00FFFFFFFFFF437FD0
:10087000417F213F203F1F1F0707020302030101A1
:100880000101000000000000000000000000000066
:1008900000C000E000E000F000F0F8F8F8F800FC1C
:1008A00080FC80FEC0FEC0FF00FF00FF00FF00FFD5
:1008B00000FFFFFFFFFF037F017F013F003F001F9D
:1008C0000007000300030001000100000000000019
:1008D000000000000000000000C000E000E000F0A8
:1008E00000F0F8F8F8F800FC80FC80FEC0FEC0FFC5
:1008F00000FF00FF00FF00FF00FFFFFFFFFF037F7F
:10090000017F013F003F001F0007000300030001BB
:1009100000010000000000000000000000000000D6
:10092000C0C020E020E010F010F008F808F804FC47
:1009300084FC82FEC2FEFFFFFFFF18FF0CFF0CFFCE
:1009400006FFFEFFFFFF437F417F213F203F1F1F28
:10095000070702030203010101010000000000007B
:10096000000000000000000000C000E000E000F017
:1009700000F000F800F800FC80FC80FEC0FEC0FF24
:1009800018FF18FF0CFF0CFF06FFFEFFFFFF037FA1
:10099000017F013F003F001F00070003000300012B
:1009A0000001000000000000000000000000000046
:1009B00000C000E000E000F000F000F800F800FCEB
:1009C00080FC80FEC0FEC0FF18FF18FF0CFF0CFF6C
:1009D00006FFFEFFFFFF037F017F013F003F001F77
:1009E00000070003000300010001000000000000F8
:1009F0000000000000000000C0C020E020E010F077
:100A000010F0F8F8F8F804FC04FC02FE02FEFFFF08
:100A1000FFFF18FF0CFF0CFF06FFFFFFFFFF407FEB
:100A2000407F203F203F1F1F0707020302030101F1
:100A300001010000000000000000000000000000B4
:100A400000C000E000E000F000F0F8F8F8F800FC6A
:100A500000FC00FE00FE00FF18FF18FF0CFF0CFF5B
:100A600006FFFFFFFFFF007F007F003F003F001FEA
:100A70000007000300030001000100000000000067
:100A8000000000000000000000C000E000E000F0F6
:100A900000F0F8F8F8F800FC00FC00FE00FE00FF93
:100AA00018FF18FF0CFF0CFF06FFFFFFFFFF007F82
:100AB000007F003F003F001F00070003000300010C
:100AC0000001000000000000000000000000000025
:100AD000C0C020E0A0E0D0F0D0F0F8F8F8F8F4FCC6
:100AE000F4FCFAFEC2FEFFFFFFFF18FFFFFF7FFFCF
:100AF0007FFFBFFFBFFF5F7F5F7F2F3F203F1F1F35
:100B000007070203020301010101000000000000C9
:100B1000000000000000000000C000E000E000F065
:100B200000F0F8F8F8F800FC80FC80FEC0FEC0FF82
:100B300018FF18FF0CFF0CFF06FF07FF03FF037FE2
:100B4000017F013F003F001F000700030003000179
:100B50000001000000000000000000000000000094
:100B600000C000E000E000F000F0F8F8F8F800FC49
:100B700080FC80FEC0FEC0FF18FF18FF0CFF0CFFBA
:100B800006FF07FF03FF037F017F013F003F001FB8
:100B90000007000300030001000100000000000046
:100BA0000000000000000000C0C020E0A0E0D0F085
:100BB000D0F0F8F8F8F8F4FCF4FCFAFEC2FEFFFFFF
:100BC000FFFF00FFFFFF7FFF7FFFFFFFFFFF5F7F54
:100BD0005F7F2F3F203F1F1F070702030203010112
:100BE0000101000000000000000000000000000003
:100BF00000C000E000E000F000F0F8F8F8F800FCB9
:100C000080FC80FEC0FEC0FF00FF00FF00FF00FF71
:100C100000FFFFFFFFFF037F017F013F003F001F39
:100C200000070003000300010001000000000000B5
:100C3000000000000000000000C000E000E000F044
:100C400000F0F8F8F8F800FC80FC80FEC0FEC0FF61
:100C500000FF00FF00FF00FF00FFFFFFFFFF037F1B
:100C6000017F013F003F001F000700030003000158
:100C70000001000000000000000000000000000073
:100C8000C0C020E0A0E0D0F0D0F0E8F8E8F8F4FC34
:100C9000F4FCFAFEC2FEFFFFFFFF18FFFFFF7FFF1D
:100CA0007FFFFFFFFFFF5F7F5F7F2F3F203F1F1F03
:100CB0000707020302030101010100000000000018
:100CC000000000000000000000C000E000E000F0B4
:100CD00000F000F800F800FC80FC80FEC0FEC0FFC1
:100CE00018FF18FF0CFF0CFF06FFFEFFFFFF037F3E
:100CF000017F013F003F001F0007000300030001C8
:100D000000010000000000000000000000000000E2
:100D100000C000E000E000F000F000F800F800FC87
:100D200080FC80FEC0FEC0FF18FF18FF0CFF0CFF08
:100D300006FFFEFFFFFF037F017F013F003F001F13
:100D40000007000300030001000100000000000094
:100D50000000000000000000C0C020E0A0E0D0F0D3
:100D6000D0F0F8F8F8F8F4FCF4FCFAFE02FEFFFF0D
:100D7000FFFF18FFFFFF7FFF7FFFFFFFFFFF5F7F8A
:100D80005F7F2F3F203F1F1F070702030203010160
:100D90000101000000000000000000000000000051
:100DA00000C000E000E000F000F0F8F8F8F800FC07
:100DB00000FC00FE00FE00FF18FF18FF0CFF0CFFF8
:100DC00006FFFFFFFFFF007F007F003F003F001F87
:100DD0000007000300030001000100000000000004
:100DE000000000000000000000C000E000E000F093
:100DF00000F0F8F8F8F800FC00FC00FE00FE00FF30
:100E000018FF18FF0CFF0CFF06FFFFFFFFFF007F1E
:100E1000007F003F003F001F0007000300030001A8
:100E200000010000000000000000000000000000C1
:100E30000C18C0C020E020E010F010F0F8F8F8F82E
:100E400004FC04FC02FE02FEFFFFFFFF00FF00FFA8
:100E500000FF00FFFFFFFFFF407F407F203F203F5C
:100E60001F1F070702030203010101010000000028
:100E70000000000000000000000000C000E000E0F2
:100E800000F000F0F8F8F8F800FC00FC00FE00FEAE
:100E900000FF00FF00FF00FF00FF00FFFFFFFFFF5C
:100EA000007F007F003F003F001F0007000300039A
:100EB0000001000100000000000000000000000030
:100EC000000000C000E000E000F000F0F8F8F8F8E2
:100ED00000FC00FC00FE00FE00FF00FF00FF00FF22
:100EE00000FF00FFFFFFFFFF007F007F003F003F8C
:100EF000001F0007000300030001000100000000C4
:100F000000000000000000000000C0C020E020E061
:100F100010F010F008F808F804FC84FC82FEC2FE11
:100F2000FFFFFFFF18FF0CFF0CFF06FF86FF83FF8C
:100F3000437F417F213F203F1F1F0707020302031A
:100F4000010101010000000000000000000000009D
:100F5000000000C000E000E000F000F000F800F841
:100F600000FC80FC80FEC0FEC0FF18FF18FF0CFFD5
:100F70000CFF06FF06FF03FF037F017F013F003FD9
:100F8000001F000700030003000100010000000033
:100F90000000000000000000000000C000E000E0D1
:100FA00000F000F000F800F800FC80FC80FEC0FEBD
:100FB000C0FF18FF18FF0CFF0CFF06FF06FF03FF22
:100FC000037F017F013F003F001F00070003000374
:100FD000000100010000000000000000000000000F
:100FE0000000C0C020E020E010F010F0F8F8F8F8A1
:100FF00004FC04FC02FE02FEFFFFFFFF00FF00FFF7
:1010000000FF00FFFFFFFFFF407F407F203F203FAA
:101010001F1F070702030203010101010000000076
:101020000000000000000000000000C000E000E040
:1010300000F000F0F8F8F8F800FC00FC00FE00FEFC
:1010400000FF00FF00FF00FF00FF00FFFFFFFFFFAA
:10105000007F007F003F003F001F000700030003E8
:10106000000100010000000000000000000000007E
:10107000000000C000E000E000F000F0F8F8F8F830
:1010800000FC00FC00FE00FE00FF00FF00FF00FF70
:1010900000FF00FFFFFFFFFF007F007F003F003FDA
:1010A000001F000700030003000100010000000012
:1010B00000000000000000000000C0C020E020E0B0
:1010C00010F010F008F808F804FC84FC82FEC2FE60
:1010D000FFFFFFFF18FF0CFF0CFF06FF86FF83FFDB
:1010E000437F417F213F203F1F1F07070203020369
:1010F00001010101000000000000000000000000EC
:10110000000000C000E000E000F000F000F800F88F
:1011100000FC80FC80FEC0FEC0FF18FF18FF0CFF23
:101120000CFF06FF06FF03FF037F017F013F003F27
:10113000001F000700030003000100010000000081
:101140000000000000000000000000C000E000E01F
:1011500000F000F000F800F800FC80FC80FEC0FE0B
:10116000C0FF18FF18FF0CFF0CFF06FF06FF03FF70
:10117000037F017F013F003F001F000700030003C2
:10118000000100010000000000000000000000005D
:101190000000C0C020E0A0E0D0F0D0F0F8F8F8F8EF
:1011A000F4FCF4FCFAFE02FEFFFFFFFF00FFFFFF6E
:1011B0007FFF7FFFFFFFFFFF5F7F5F7F2F3F203FAE
:1011C0001F1F0707020302030101010100000000C5
:1011D0000000000000000000000000C000E000E08F
:1011E00000F000F0F8F8F8F800FC00FC00FE00FE4B
:1011F00000FF00FF00FF00FF00FF00FFFFFFFFFFF9
:10120000007F007F003F003F001F00070003000336
:1012100000010001000000000000000000000000CC
:10122000000000C000E000E000F000F0F8F8F8F87E
:1012300000FC00FC00FE00FE00FF00FF00FF00FFBE
:1012400000FF00FFFFFFFFFF007F007F003F003F28
:10125000001F000700030003000100010000000060
:1012600000000000000000000000C0C020E0A0E07E
:10127000D0F0D0F0E8F8E8F8F4FCF4FCFAFEC2FE96
:10128000FFFFFFFF18FFFFFF7FFF7FFFBFFFBFFFD5
:101290005F7F5F7F2F3F203F1F1F0707020302036F
:1012A000010101010000000000000000000000003A
:1012B000000000C000E000E000F000F000F800F8DE
:1012C00000FC80FC80FEC0FEC0FF18FF18FF0CFF72
:1012D0000CFF06FF06FF03FF037F017F013F003F76
:1012E000001F0007000300030001000100000000D0
:1012F0000000000000000000000000C000E000E06E
:1013000000F000F000F800F800FC80FC80FEC0FE59
:10131000C0FF18FF18FF0CFF0CFF06FF06FF03FFBE
:10132000037F017F013F003F001F00070003000310
:1013300000010001000000000000000000000000AB
:101340000000C0C020E0A0E0D0F0D0F0F8F8F8F83D
:10135000F4FCF4FCFAFE02FEFFFFFFFF00FFFFFFBC
:101360007FFF7FFFFFFFFFFF5F7F5F7F2F3F203FFC
:101370001F1F070702030203010101010000000013
:101380000000000000000000000000C000E000E0DD
:1013900000F000F0F8F8F8F800FC00FC00FE00FE99
:1013A00000FF00FF00FF00FF00FF00FFFFFFFFFF47
:1013B000007F007F003F003F001F00070003000385
:1013C000000100010000000000000000000000001B
:1013D000000000C000E000E000F000F0F8F8F8F8CD
:1013E00000FC00FC00FE00FE00FF00FF00FF00FF0D
:1013F00000FF00FFFFFFFFFF007F007F003F003F77
:10140000001F0007000300030001000100000000AE
:1014100000000000000000000000C0C020E0A0E0CC
:10142000D0F0D0F0E8F8E8F8F4FCF4FCFAFEC2FEE4
:10143000FFFFFFFF18FFFFFF7FFF7FFFBFFFBFFF23
:101440005F7F5F7F2F3F203F1F1F070702030203BD
:101450000101010100000000000000000000000088
:10146000000000C000E000E000F000F000F800F82C
:1014700000FC80FC80FEC0FEC0FF18FF18FF0CFFC0
:101480000CFF06FF06FF03FF037F017F013F003FC4
:10149000001F00070003000300010001000000001E
:1014A0000000000000000000000000C000E000E0BC
:1014B00000F000F000F800F800FC80FC80FEC0FEA8
:1014C000C0FF18FF18FF0CFF0CFF06FF06FF03FF0D
:1014D000037F017F013F003F001F0007000300035F
:1014E00000010001000000000000000000000000FA
:1014F00000000C18C0C020E020E010F010F0F8F858
:10150000F8F804FC04FC02FE02FEFFFFFFFF00FFF0
:1015100000FF00FF03FF87FF87FF437F407F203FDF
:10152000203F1F1F07070203020301010101000002
:1015300000000000000000000000000000C000E00B
:1015400000E000F000F0F8F8F8F800FC00FC00FE05
:1015500000FE00FF00FF00FF00FF00FF03FF07FF8A
:1015600007FF037F007F003F003F001F00070003CD
:101570000003000100010000000000000000000066
:101580000000000000C000E000E000F000F0F8F80B
:10159000F8F800FC00FC00FE00FE00FF00FF00FF6A
:1015A00000FF00FF03FF07FF07FF037F007F003FEF
:1015B000003F001F000700030003000100010000BE
:1015C000000000000000000000000000C0C020E09B
:1015D00020E010F010F088F888F804FC84FC82FE0B
:1015E000C2FEFFFFFFFF00FF00FF00FF03FF87FFBA
:1015F00087FF437F417F213F203F1F1F07070203D3
:1016000002030101010100000000000000000000D1
:101610000000000000C000E000E000F000F080F8F2
:1016200080F800FC80FC80FEC0FEC0FF00FF00FFD1
:1016300000FF00FF03FF07FF07FF037F017F013F5C
:10164000003F001F0007000300030001000100002D
:1016500000000000000000000000000000C000E0EA
:1016600000E000F000F080F880F800FC80FC80FED4
:10167000C0FEC0FF00FF00FF00FF00FF03FF07FFE9
:1016800007FF037F017F013F003F001F00070003AA
:101690000003000100010000000000000000000045
:1016A00000000000C0C020E020E010F010F088F83A
:1016B00088F804FC04FC02FE02FEFFFFFFFF00FFAF
:1016C00000FF00FF03FFFFFFFFFF437F407F203F3E
:1016D000203F1F1F07070203020301010101000051
:1016E00000000000000000000000000000C000E05A
:1016F00000E000F000F080F880F800FC00FC00FE44
:1017000000FE00FF00FF00FF00FF00FF03FFFFFFE0
:10171000FFFF037F007F003F003F001F0007000323
:1017200000030001000100000000000000000000B4
:101730000000000000C000E000E000F000F080F8D1
:1017400080F800FC00FC00FE00FE00FF00FF00FF30
:1017500000FF00FF03FFFFFFFFFF037F007F003F4D
:10176000003F001F0007000300030001000100000C
:10177000000000000000000000000000C0C020E0E9
:1017800020E010F010F088F888F804FC04FC02FE59
:1017900002FEFFFFFFFF18FF0CFF06FF03FF87FF9E
:1017A00087FF437F407F203F203F1F1F0707020323
:1017B0000203010101010000000000000000000020
:1017C0000000000000C000E000E000F000F080F841
:1017D00080F800FC00FC00FE00FE00FF18FF18FF70
:1017E0000CFF06FF03FF07FF07FF037F007F003F9B
:1017F000003F001F0007000300030001000100007C
:1018000000000000000000000000000000C000E038
:1018100000E000F000F080F880F800FC00FC00FE22
:1018200000FE00FF18FF18FF0CFF06FF03FF07FF75
:1018300007FF037F007F003F003F001F00070003FA
:101840000003000100010000000000000000000093
:1018500000000000C0C020E0A0E0D0F0D0F0F8F818
:10186000F8F8F4FCF4FCFAFE02FEFFFFFFFF00FFB5
:10187000FFFF7FFF7FFFBFFFBFFF5F7F5F7F2F3FC8
:10188000203F1F1F0707020302030101010100009F
:1018900000000000000000000000000000C000E0A8
:1018A00000E000F000F0F8F8F8F800FC00FC00FEA2
:1018B00000FE00FF00FF00FF00FF00FF03FF07FF27
:1018C00007FF037F007F003F003F001F000700036A
:1018D0000003000100010000000000000000000003
:1018E0000000000000C000E000E000F000F0F8F8A8
:1018F000F8F800FC00FC00FE00FE00FF00FF00FF07
:1019000000FF00FF03FF07FF07FF037F007F003F8B
:10191000003F001F0007000300030001000100005A
:10192000000000000000000000000000C0C020E037
:10193000A0E0D0F0D0F0E8F8E8F8F4FCF4FCFAFE0F
:10194000C2FEFFFFFFFF00FFFFFF7FFF7FFFBFFF24
:10195000BFFF5F7F5F7F2F3F203F1F1F07070203EF
:10196000020301010101000000000000000000006E
:101970000000000000C000E000E000F000F080F88F
:1019800080F800FC80FC80FEC0FEC0FF00FF00FF6E
:1019900000FF00FF03FF07FF07FF037F017F013FF9
:1019A000003F001F000700030003000100010000CA
:1019B00000000000000000000000000000C000E087
:1019C00000E000F000F080F880F800FC80FC80FE71
:1019D000C0FEC0FF00FF00FF00FF00FF03FF07FF86
:1019E00007FF037F017F013F003F001F0007000347
:1019F00000030001000100000000000000000000E2
:101A000000000000C0C020E0A0E0D0F0D0F0E8F876
:101A1000E8F8F4FCF4FCFAFE02FEFFFFFFFF00FF13
:101A2000FFFF7FFF7FFFFFFFFFFF5F7F5F7F2F3F96
:101A3000203F1F1F070702030203010101010000ED
:101A400000000000000000000000000000C000E0F6
:101A500000E000F000F080F880F800FC00FC00FEE0
:101A600000FE00FF00FF00FF00FF00FF03FFFFFF7D
:101A7000FFFF037F007F003F003F001F00070003C0
:101A80000003000100010000000000000000000051
:101A90000000000000C000E000E000F000F080F86E
:101AA00080F800FC00FC00FE00FE00FF00FF00FFCD
:101AB00000FF00FF03FFFFFFFFFF037F007F003FEA
:101AC000003F001F000700030003000100010000A9
:101AD000000000000000000000000000C0C020E086
:101AE000A0E0D0F0D0F0E8F8E8F8F4FCF4FCFAFE5E
:101AF00002FEFFFFFFFF18FFFFFF7FFF7FFFBFFF1B
:101B0000BFFF5F7F5F7F2F3F203F1F1F070702033D
:101B100002030101010100000000000000000000BC
:101B20000000000000C000E000E000F000F080F8DD
:101B300080F800FC00FC00FE00FE00FF18FF18FF0C
:101B40000CFF06FF03FF07FF07FF037F007F003F37
:101B5000003F001F00070003000300010001000018
:101B600000000000000000000000000000C000E0D5
:101B700000E000F000F080F880F800FC00FC00FEBF
:101B800000FE00FF18FF18FF0CFF06FF03FF07FF12
:101B900007FF037F007F003F003F001F0007000397
:101BA0000003000100010000000000000000000030
:101BB000000000000C18FFFF02FE02FE04FC04FC03
:101BC000F8F8F8F810F010F020E020E0C0C01F1F77
:101BD000203F203F407F407F81FF87FF06FF0CFFB3
:101BE0000CFF18FFFFFF00000000000000000000D5
:101BF000000000000101010102030203070700FFCA
:101C000000FE00FE00FC00FCF8F8F8F800F000F020
:101C100000E000E000C0001F003F003F007F007FA9
:101C200001FF07FF06FF0CFF0CFF18FF00FF00007D
:101C300000000000000000000000000000010001A2
:101C400000030003000700FF00FE00FE00FC00FC94
:101C5000F8F8F8F800F000F000E000E000C0001F25
:101C6000003F003F007F007F01FF07FF06FF0CFFE2
:101C70000CFF18FF00FF0000000000000000000043
:101C80000000000000010001000300030007FFFF47
:101C900002FE02FE04FC04FC08F808F810F010F044
:101CA00020E020E0C0C01F1F203F203F407F407F3A
:101CB000FCFFFEFF06FF0CFF0CFF18FFFFFF0000FC
:101CC0000000000000000000000000000101010110
:101CD00002030203070700FF00FE00FE00FC00FCF9
:101CE00000F800F800F000F000E000E000C0001F85
:101CF000003F003F007F007FFCFFFEFF06FF0CFF60
:101D00000CFF18FF00FF00000000000000000000B2
:101D1000000000000001000100030003000700FFB5
:101D200000FE00FE00FC00FC00F800F800F000F0EF
:101D300000E000E000C0001F003F003F007F007F88
:101D4000FCFFFEFF06FF0CFF0CFF18FF00FF00006A
:101D50000000000000000000000000000001000181
:101D6000000300030007FFFFC2FE82FE84FC04FCA8
:101D700008F808F810F010F020E020E0C0C01F1FA5
:101D8000203F213F417F477FFFFFFCFF00FF00FF17
:101D900000FF00FFFFFF0000000000000000000047
:101DA0000000000001010101020302030707C0FF58
:101DB000C0FE80FE80FC00FC00F800F800F000F09F
:101DC00000E000E000C0001F003F013F017F077FEF
:101DD000FFFFFCFF00FF00FF00FF00FF00FF00000F
:101DE00000000000000000000000000000010001F1
:101DF000000300030007C0FFC0FE80FE80FC00FC63
:101E000000F800F800F000F000E000E000C0001F63
:101E1000003F013F017F077FFFFFFCFF00FF00FF46
:101E200000FF00FF00FF00000000000000000000B5
:101E30000000000000010001000300030007FFFF95
:101E4000C2FE82FE84FC04FCF8F8F8F810F010F0F2
:101E500020E020E0C0C01F1F203F213F417F437F83
:101E600083FF81FF00FF00FF00FF00FFFFFF000076
:101E7000000000000000000000000000010101015E
:101E8000020302030707C0FFC0FE80FE80FC00FCC7
:101E9000F8F8F8F800F000F000E000E000C0001FE3
:101EA000003F013F017F037F03FF01FF00FF00FFB1
:101EB00000FF00FF00FF0000000000000000000025
:101EC0000000000000010001000300030007C0FF44
:101ED000C0FE80FE80FC00FCF8F8F8F800F000F08E
:101EE00000E000E000C0001F003F013F017F037FD2
:101EF00003FF01FF00FF00FF00FF00FF00FF0000E5
:101F000000000000000000000000000000010001CF
:101F1000000300030007FFFF02FEFAFEF4FCF4FCDE
:101F2000F8F8F8F8D0F0D0F0A0E020E0C0C01F1F13
:101F3000203F2F3F5F7F5F7FBFFFBFFF7FFF7FFFA0
:101F4000FFFF18FFFFFF000000000000000000007E
:101F5000000000000101010102030203070700FF66
:101F600000FE00FE00FC00FCF8F8F8F800F000F0BD
:101F700000E000E000C0001F003F003F007F007F46
:101F800001FF07FF06FF0CFF0CFF18FF00FF00001A
:101F9000000000000000000000000000000100013F
:101FA00000030003000700FF00FE00FE00FC00FC31
:101FB000F8F8F8F800F000F000E000E000C0001FC2
:101FC000003F003F007F007F01FF07FF06FF0CFF7F
:101FD0000CFF18FF00FF00000000000000000000E0
:101FE0000000000000010001000300030007FFFFE4
:101FF00002FEFAFEF4FCF4FCE8F8E8F8D0F0D0F0C9
:10200000A0E020E0C0C01F1F203F2F3F5F7F5F7F09
:10201000FFFFFFFF7FFF7FFFFFFF18FFFFFF0000B5
:1020200000000000000000000000000001010101AC
:1020300002030203070700FF00FE00FE00FC00FC95
:1020400000F800F800F000F000E000E000C0001F21
:10205000003F003F007F007FFCFFFEFF06FF0CFFFC
:102060000CFF18FF00FF000000000000000000004F
:10207000000000000001000100030003000700FF52
:1020800000FE00FE00FC00FC00F800F800F000F08C
:1020900000E000E000C0001F003F003F007F007F25
:1020A000FCFFFEFF06FF0CFF0CFF18FF00FF000007
:1020B000000000000000000000000000000100011E
:1020C000000300030007FFFFC2FEFAFEF4FCF4FC6D
:1020D000E8F8E8F8D0F0D0F0A0E020E0C0C01F1F82
:1020E000203F2F3F5F7F5F7FFFFFFFFF7FFF7FFF6F
:1020F000FFFF00FFFFFF00000000000000000000E5
:102100000000000001010101020302030707C0FFF4
:10211000C0FE80FE80FC00FC00F800F800F000F03B
:1021200000E000E000C0001F003F013F017F077F8B
:10213000FFFFFCFF00FF00FF00FF00FF00FF0000AB
:10214000000000000000000000000000000100018D
:10215000000300030007C0FFC0FE80FE80FC00FCFF
:1021600000F800F800F000F000E000E000C0001F00
:10217000003F013F017F077FFFFFFCFF00FF00FFE3
:1021800000FF00FF00FF0000000000000000000052
:102190000000000000010001000300030007FFFF32
:1021A000C2FEFAFEF4FCF4FCF8F8F8F8D0F0D0F037
:1021B000A0E020E0C0C01F1F213F2F3F5F7F5F7F57
:1021C000BFFFBFFF7FFF7FFFFFFF00FFFFFF00009C
:1021D00000000000000000000000000001010101FB
:1021E000020302030707C0FFC0FE80FE80FC00FC64
:1021F000F8F8F8F800F000F000E000E000C0001F80
:10220000003F013F017F037F03FF01FF00FF00FF4D
:1022100000FF00FF00FF00000000000000000000C1
:102220000000000000010001000300030007C0FFE0
:10223000C0FE80FE80FC00FCF8F8F8F800F000F02A
:1022400000E000E000C0001F003F013F017F037F6E
:1022500003FF01FF00FF00FF00FF00FF00FF000081
:10226000000000000000000000000000000100016C
:102270000003000300070C18FFFFC2FE82FE84FC6F
:1022800004FCF8F8F8F810F010F020E020E0C0C0EE
:102290001F1F203F213F417F437F83FF87FF06FFB2
:1022A0000CFF0CFF18FFFFFF000000000000000003
:1022B0000000000000000101010102030203070702
:1022C000C0FFC0FE80FE80FC00FCF8F8F8F800F0CB
:1022D00000F000E000E000C0001F003F013F017F70
:1022E000037F03FF07FF06FF0CFF0CFF18FF18FF1B
:1022F00000000000000000000000000000000001DD
:102300000001000300030007C0FFC0FE80FE80FC48
:1023100000FCF8F8F8F800F000F000E000E000C081
:10232000001F003F013F017F037F03FF07FF06FF00
:102330000CFF0CFF18FF18FF000000000000000059
:10234000000000000000000100010003000300077E
:10235000FFFF02FE02FE04FC04FCF8F8F8F810F09F
:1023600010F020E020E0C0C01F1F203F203F407F32
:10237000407FFFFFFFFF06FF0CFF0CFF18FFFFFF72
:10238000000000000000000000000000000001014B
:10239000010102030203070700FF00FE00FE00FC2C
:1023A00000FCF8F8F8F800F000F000E000E000C0F1
:1023B000001F003F003F007F007FFFFFFFFF06FF81
:1023C0000CFF0CFF18FF18FF0000000000000000C9
:1023D00000000000000000010001000300030007EE
:1023E00000FF00FE00FE00FC00FCF8F8F8F800F02A
:1023F00000F000E000E000C0001F003F003F007F51
:10240000007FFFFFFFFF06FF0CFF0CFF18FF18FF08
:1024100000000000000000000000000000000001BB
:102420000001000300030007FFFFC2FE82FE84FCE0
:1024300004FC08F808F810F010F020E020E0C0C01C
:102440001F1F203F213F417F437FFFFFFEFF06FF0D
:102450000CFF0CFF18FFFFFF000000000000000051
:102460000000000000000101010102030203070750
:10247000C0FFC0FE80FE80FC00FC00F800F800F009
:1024800000F000E000E000C0001F003F013F017FBE
:10249000037FFFFFFEFF06FF0CFF0CFF18FF18FF76
:1024A000000000000000000000000000000000012B
:1024B0000001000300030007C0FFC0FE80FE80FC97
:1024C00000FC00F800F800F000F000E000E000C0C0
:1024D000001F003F013F017F037FFFFFFEFF06FF5C
:1024E0000CFF0CFF18FF18FF0000000000000000A8
:1024F00000000000000000010001000300030007CD
:10250000FFFFC2FE82FE84FC04FCF8F8F8F810F02D
:1025100010F020E020E0C0C01F1F203F213F417F7E
:10252000437FFFFFFFFF00FF00FF00FF00FFFFFFF3
:102530000000000000000000000000000000010199
:102540000101020302030707C0FFC0FE80FE80FCFA
:1025500000FCF8F8F8F800F000F000E000E000C03F
:10256000001F003F013F017F037FFFFFFFFF00FFD0
:1025700000FF00FF00FF00FF00000000000000005F
:10258000000000000000000100010003000300073C
:10259000C0FFC0FE80FE80FC00FCF8F8F8F800F0F8
:1025A00000F000E000E000C0001F003F013F017F9D
:1025B000037FFFFFFFFF00FF00FF00FF00FF00FFA2
:1025C000000000000000000000000000000000010A
:1025D0000001000300030007FFFFC2FEFAFEF4FC47
:1025E000F4FCF8F8F8F8D0F0D0F0A0E020E0C0C09B
:1025F0001F1F203F2F3F5F7F5F7FBFFFBFFF7FFF1A
:102600007FFFFFFF18FFFFFF000000000000000039
:10261000000000000000010101010203020307079E
:10262000C0FFC0FE80FE80FC00FCF8F8F8F800F067
:1026300000F000E000E000C0001F003F013F017F0C
:10264000037F03FF07FF06FF0CFF0CFF18FF18FFB7
:102650000000000000000000000000000000000179
:102660000001000300030007C0FFC0FE80FE80FCE5
:1026700000FCF8F8F8F800F000F000E000E000C01E
:10268000001F003F013F017F037F03FF07FF06FF9D
:102690000CFF0CFF18FF18FF0000000000000000F6
:1026A000000000000000000100010003000300071B
:1026B000FFFF02FEFAFEF4FCF4FCF8F8F8F8D0F0A4
:1026C000D0F0A0E020E0C0C01F1F203F2F3F5F7F61
:1026D0005F7FFFFFFFFF7FFF7FFFFFFF18FFFFFF11
:1026E00000000000000000000000000000000101E8
:1026F000010102030203070700FF00FE00FE00FCC9
:1027000000FCF8F8F8F800F000F000E000E000C08D
:10271000001F003F003F007F007FFFFFFFFF06FF1D
:102720000CFF0CFF18FF18FF000000000000000065
:10273000000000000000000100010003000300078A
:1027400000FF00FE00FE00FC00FCF8F8F8F800F0C6
:1027500000F000E000E000C0001F003F003F007FED
:10276000007FFFFFFFFF06FF0CFF0CFF18FF18FFA5
:102770000000000000000000000000000000000158
:102780000001000300030007FFFFC2FEFAFEF4FC95
:10279000F4FCE8F8E8F8D0F0D0F0A0E020E0C0C009
:1027A0001F1F203F2F3F5F7F5F7FFFFFFFFF7FFFE8
:1027B0007FFFFFFF18FFFFFF000000000000000088
:1027C00000000000000001010101020302030707ED
:1027D000C0FFC0FE80FE80FC00FC00F800F800F0A6
:1027E00000F000E000E000C0001F003F013F017F5B
:1027F000037FFFFFFEFF06FF0CFF0CFF18FF18FF13
:1028000000000000000000000000000000000001C7
:102810000001000300030007C0FFC0FE80FE80FC33
:1028200000FC00F800F800F000F000E000E000C05C
:10283000001F003F013F017F037FFFFFFEFF06FFF8
:102840000CFF0CFF18FF18FF000000000000000044
:102850000000000000000001000100030003000769
:10286000FFFFC2FEFAFEF4FCF4FCF8F8F8F8D0F032
:10287000D0F0A0E020E0C0C01F1F203F2F3F5F7FAF
:102880005F7FFFFFFFFF7FFF7FFFFFFF00FFFFFF77
:102890000000000000000000000000000000010136
:1028A0000101020302030707C0FFC0FE80FE80FC97
:1028B00000FCF8F8F8F800F000F000E000E000C0DC
:1028C000001F003F013F017F037FFFFFFFFF00FF6D
:1028D00000FF00FF00FF00FF0000000000000000FC
:1028E00000000000000000010001000300030007D9
:1028F000C0FFC0FE80FE80FC00FCF8F8F8F800F095
:1029000000F000E000E000C0001F003F013F017F39
:10291000037FFFFFFFFF00FF00FF00FF00FF00FF3E
:1029200000000000000000000000000000000001A6
:1029300000010003000300070C18FFFF02FE02FE67
:1029400004FC04FCF8F8F8F810F010F020E020E0A7
:10295000C0C01F1F203F203F407F407FFFFFFFFF81
:1029600000FF00FF00FF00FFFFFF0000000000006D
:102970000000000000000000010101010203020349
:10298000070700FF00FE00FE00FC00FCF8F8F8F866
:1029900000F000F000E000E000C0001F003F003F3A
:1029A000007F007FFFFFFFFF00FF00FF00FF00FF31
:1029B00000FF000000000000000000000000000018
:1029C0000001000100030003000700FF00FE00FEFD
:1029D00000FC00FCF8F8F8F800F000F000E000E07F
:1029E00000C0001F003F003F007F007FFFFFFFFF90
:1029F00000FF00FF00FF00FF00FF000000000000DC
:102A000000000000000000000001000100030003BE
:102A10000007FFFFC2FE82FE84FC04FC08F808F8F1
:102A200010F010F020E020E0C0C01F1F203F213F29
:102A3000417F437F83FF86FF06FF0CFF0CFF18FFDB
:102A4000FFFF000000000000000000000000000088
:102A500001010101020302030707C0FFC0FE80FE5F
:102A600080FC00FC00F800F800F000F000E000E05E
:102A700000C0001F003F013F017F037F03FF06FFEF
:102A800006FF0CFF0CFF18FF18FF000000000000FD
:102A9000000000000000000000010001000300032E
:102AA0000007C0FFC0FE80FE80FC00FC00F800F8BC
:102AB00000F000F000E000E000C0001F003F013F18
:102AC000017F037F03FF06FF06FF0CFF0CFF18FFCB
:102AD00018FF0000000000000000000000000000DF
:102AE00000010001000300030007FFFF02FE02FED9
:102AF00004FC04FCF8F8F8F810F010F020E020E0F6
:102B0000C0C01F1F203F203F407F407FFFFFFFFFCF
:102B100000FF00FF00FF00FFFFFF000000000000BB
:102B20000000000000000000010101010203020397
:102B3000070700FF00FE00FE00FC00FCF8F8F8F8B4
:102B400000F000F000E000E000C0001F003F003F88
:102B5000007F007FFFFFFFFF00FF00FF00FF00FF7F
:102B600000FF000000000000000000000000000066
:102B70000001000100030003000700FF00FE00FE4B
:102B800000FC00FCF8F8F8F800F000F000E000E0CD
:102B900000C0001F003F003F007F007FFFFFFFFFDE
:102BA00000FF00FF00FF00FF00FF0000000000002A
:102BB000000000000000000000010001000300030D
:102BC0000007FFFFC2FE82FE84FC04FC08F808F840
:102BD00010F010F020E020E0C0C01F1F203F213F78
:102BE000417F437F83FF86FF06FF0CFF0CFF18FF2A
:102BF000FFFF0000000000000000000000000000D7
:102C000001010101020302030707C0FFC0FE80FEAD
:102C100080FC00FC00F800F800F000F000E000E0AC
:102C200000C0001F003F013F017F037F03FF06FF3D
:102C300006FF0CFF0CFF18FF18FF0000000000004B
:102C4000000000000000000000010001000300037C
:102C50000007C0FFC0FE80FE80FC00FC00F800F80A
:102C600000F000F000E000E000C0001F003F013F66
:102C7000017F037F03FF06FF06FF0CFF0CFF18FF19
:102C800018FF00000000000000000000000000002D
:102C900000010001000300030007FFFF02FEFAFE2F
:102CA000F4FCF4FCF8F8F8F8D0F0D0F0A0E020E064
:102CB000C0C01F1F203F2F3F5F7F5F7FFFFFFFFFD1
:102CC0007FFF7FFFFFFF00FFFFFF0000000000000D
:102CD00000000000000000000101010102030203E6
:102CE000070700FF00FE00FE00FC00FCF8F8F8F803
:102CF00000F000F000E000E000C0001F003F003FD7
:102D0000007F007FFFFFFFFF00FF00FF00FF00FFCD
:102D100000FF0000000000000000000000000000B4
:102D20000001000100030003000700FF00FE00FE99
:102D300000FC00FCF8F8F8F800F000F000E000E01B
:102D400000C0001F003F003F007F007FFFFFFFFF2C
:102D500000FF00FF00FF00FF00FF00000000000078
:102D6000000000000000000000010001000300035B
:102D70000007FFFFC2FEFAFEF4FCF4FCE8F8E8F8F6
:102D8000D0F0D0F0A0E020E0C0C01F1F213F2F3FB7
:102D90005F7F5F7FBFFFBFFF7FFF7FFFFFFF18FFEA
:102DA000FFFF000000000000000000000000000025
:102DB00001010101020302030707C0FFC0FE80FEFC
:102DC00080FC00FC00F800F800F000F000E000E0FB
:102DD00000C0001F003F013F017F037F03FF06FF8C
:102DE00006FF0CFF0CFF18FF18FF0000000000009A
:102DF00000000000000000000001000100030003CB
:102E00000007C0FFC0FE80FE80FC00FC00F800F858
:102E100000F000F000E000E000C0001F003F013FB4
:102E2000017F037F03FF06FF06FF0CFF0CFF18FF67
:102E300018FF00000000000000000000000000007B
:102E400000010001000300030007FFFF02FEFAFE7D
:102E5000F4FCF4FCF8F8F8F8D0F0D0F0A0E020E0B2
:102E6000C0C01F1F203F2F3F5F7F5F7FFFFFFFFF1F
:102E70007FFF7FFFFFFF00FFFFFF0000000000005B
:102E80000000000000000000010101010203020334
:102E9000070700FF00FE00FE00FC00FCF8F8F8F851
:102EA00000F000F000E000E000C0001F003F003F25
:102EB000007F007FFFFFFFFF00FF00FF00FF00FF1C
:102EC00000FF000000000000000000000000000003
:102ED0000001000100030003000700FF00FE00FEE8
:102EE00000FC00FCF8F8F8F800F000F000E000E06A
:102EF00000C0001F003F003F007F007FFFFFFFFF7B
:102F000000FF00FF00FF00FF00FF000000000000C6
:102F100000000000000000000001000100030003A9
:102F20000007FFFFC2FEFAFEF4FCF4FCE8F8E8F844
:102F3000D0F0D0F0A0E020E0C0C01F1F203F2F3F06
:102F40005F7F5F7FBFFFBFFF7FFF7FFFFFFF18FF38
:102F5000FFFF000000000000000000000000000073
:102F600001010101020302030707C0FFC0FE80FE4A
:102F700080FC00FC00F800F800F000F000E000E049
:102F800000C0001F003F013F017F037F03FF06FFDA
:102F900006FF0CFF0CFF18FF18FF000000000000E8
:102FA0000000000000000000000100010003000319
:102FB0000007C0FFC0FE80FE80FC00FC00F800F8A7
:102FC00000F000F000E000E000C0001F003F013F03
:102FD000017F037F03FF06FF06FF0CFF0CFF18FFB6
:102FE00018FF0000000000000000000000000000CA
:102FF000000100010003000300070C18FFFF02FEA0
:1030000002FE04FC04FCF8F8F8F810F010F020E0E0
:1030100020E0C0C01F1F203F203F407F437F87FF2D
:1030200087FF03FF00FF00FF00FFFFFF000000001D
:103030000000000000000000000001010101020387
:103040000203070700FF00FE00FE00FC00FCF8F88A
:10305000F8F800F000F000E000E000C0001F003FC2
:10306000003F007F037F07FF07FF03FF00FF00FF14
:1030700000FF00FF00000000000000000000000052
:1030800000000001000100030003000700FF00FE34
:1030900000FE00FC00FCF8F8F8F800F000F000E09A
:1030A00000E000C0001F003F003F007F037F07FFDC
:1030B00007FF03FF00FF00FF00FF00FF000000000C
:1030C00000000000000000000000000100010003FB
:1030D00000030007FFFF02FE02FE04FC04FC88F868
:1030E00088F810F010F020E020E0C0C01F1F203F43
:1030F000203F407F437F87FF87FF03FF06FF0CFFD2
:1031000018FFFFFF000000000000000000000000AA
:1031100000000101010102030203070700FF00FE96
:1031200000FE00FC00FC80F880F800F000F000E0F9
:1031300000E000C0001F003F003F007F037F07FF4B
:1031400007FF03FF06FF0CFF18FF18FF0000000039
:10315000000000000000000000000001000100036A
:103160000003000700FF00FE00FE00FC00FC80F8EA
:1031700080F800F000F000E000E000C0001F003F19
:10318000003F007F037F07FF07FF03FF06FF0CFFE1
:1031900018FF18FF00000000000000000000000001
:1031A000000000010001000300030007FFFF02FE12
:1031B00002FE04FC04FC88F888F810F010F020E00F
:1031C00020E0C0C01F1F203F203F407F437FFFFF04
:1031D000FFFF03FF00FF00FF00FFFFFF00000000F4
:1031E00000000000000000000000010101010203D6
:1031F0000203070700FF00FE00FE00FC00FC80F851
:1032000080F800F000F000E000E000C0001F003F88
:10321000003F007F037FFFFFFFFF03FF00FF00FF72
:1032200000FF00FF000000000000000000000000A0
:1032300000000001000100030003000700FF00FE82
:1032400000FE00FC00FC80F880F800F000F000E0D8
:1032500000E000C0001F003F003F007F037FFFFF32
:10326000FFFF03FF00FF00FF00FF00FF0000000062
:103270000000000000000000000000010001000349
:1032800000030007FFFFC2FE82FE84FC04FC88F8F6
:1032900088F810F010F020E020E0C0C01F1F203F91
:1032A000213F417F437F87FF87FF03FF00FF00FF30
:1032B00000FFFFFF00000000000000000000000011
:1032C000000001010101020302030707C0FFC0FE65
:1032D00080FE80FC00FC80F880F800F000F000E048
:1032E00000E000C0001F003F013F017F037F07FF98
:1032F00007FF03FF00FF00FF00FF00FF00000000CA
:1033000000000000000000000000000100010003B8
:1033100000030007C0FFC0FE80FE80FC00FC80F8B8
:1033200080F800F000F000E000E000C0001F003F67
:10333000013F017F037F07FF07FF03FF00FF00FF3F
:1033400000FF00FF0000000000000000000000007F
:10335000000000010001000300030007FFFF02FE60
:10336000FAFEF4FCF4FCF8F8F8F8D0F0D0F0A0E0A5
:1033700020E0C0C01F1F203F2F3F5F7F5F7FBFFF48
:10338000BFFF7FFF7FFFFFFF00FFFFFF0000000088
:103390000000000000000000000001010101020324
:1033A0000203070700FF00FE00FE00FC00FCF8F827
:1033B000F8F800F000F000E000E000C0001F003F5F
:1033C000003F007F037F07FF07FF03FF00FF00FFB1
:1033D00000FF00FF000000000000000000000000EF
:1033E00000000001000100030003000700FF00FED1
:1033F00000FE00FC00FCF8F8F8F800F000F000E037
:1034000000E000C0001F003F003F007F037F07FF78
:1034100007FF03FF00FF00FF00FF00FF00000000A8
:103420000000000000000000000000010001000397
:1034300000030007FFFF02FEFAFEF4FCF4FCE8F8CC
:10344000E8F8D0F0D0F0A0E020E0C0C01F1F203F7F
:103450002F3F5F7F5F7FBFFFBFFF7FFF7FFFFFFFCC
:1034600018FFFFFF00000000000000000000000047
:1034700000000101010102030203070700FF00FE33
:1034800000FE00FC00FC80F880F800F000F000E096
:1034900000E000C0001F003F003F007F037F07FFE8
:1034A00007FF03FF06FF0CFF18FF18FF00000000D6
:1034B0000000000000000000000000010001000307
:1034C0000003000700FF00FE00FE00FC00FC80F887
:1034D00080F800F000F000E000E000C0001F003FB6
:1034E000003F007F037F07FF07FF03FF06FF0CFF7E
:1034F00018FF18FF0000000000000000000000009E
:10350000000000010001000300030007FFFF02FEAE
:10351000FAFEF4FCF4FCE8F8E8F8D0F0D0F0A0E013
:1035200020E0C0C01F1F203F2F3F5F7F5F7FFFFF56
:10353000FFFF7FFF7FFFFFFF00FFFFFF0000000096
:103540000000000000000000000001010101020372
:103550000203070700FF00FE00FE00FC00FC80F8ED
:1035600080F800F000F000E000E000C0001F003F25
:10357000003F007F037FFFFFFFFF03FF00FF00FF0F
:1035800000FF00FF0000000000000000000000003D
:1035900000000001000100030003000700FF00FE1F
:1035A00000FE00FC00FC80F880F800F000F000E075
:1035B00000E000C0001F003F003F007F037FFFFFCF
:1035C000FFFF03FF00FF00FF00FF00FF00000000FF
:1035D00000000000000000000000000100010003E6
:1035E00000030007FFFFC2FEFAFEF4FCF4FCE8F85B
:1035F000E8F8D0F0D0F0A0E020E0C0C01F1F203FCE
:103600002F3F5F7F5F7FBFFFBFFF7FFF7FFFFFFF1A
:1036100000FFFFFF000000000000000000000000AD
:10362000000001010101020302030707C0FFC0FE01
:1036300080FE80FC00FC80F880F800F000F000E0E4
:1036400000E000C0001F003F013F017F037F07FF34
:1036500007FF03FF00FF00FF00FF00FF0000000066
:103660000000000000000000000000010001000355
:1036700000030007C0FFC0FE80FE80FC00FC80F855
:1036800080F800F000F000E000E000C0001F003F04
:10369000013F017F037F07FF07FF03FF00FF00FFDC
:1036A00000FF00FF0000000000000000000000001C
:1036B000000000010001000300030007D5F08D1495
:1036C000A1C881CFD9F1AF2000DB20C0A0D92181D2
:1036D000FFA800A800A83F12313211133112301395
:1036E0002010124231424231321230421111303335
:1036F0003311333013422011323310311031112184
:103700004320104131431032101041104042301319
:1037100012402111323311414312403220431233FF
:103720004021112133111133321040213233111253
:1037300040133213321040403233301130403243A4
:103740002040131311213143101111301230421255
:103750003142411031124311303233424013124092
:1037600021423032402133321031123013411031B6
:10377000324331211331132113211130211310321F
:1037800010104120201141301132433110203310EC
:1037900012404130113243111133423113301210B3
:1037A0003120311121433340324013314021332144
:1037B00012103210103210103011431141431240D8
:1037C00042122012404130114240302133423142F6
:1037D0001011213133401121333331132141433151
:1037E0001040114231333013204013401143424006
:1037F00021123013111231123021413310311031A6
:1038000042431140323041431012403242301340A3
:1038100041304143311230134240134011301132D4
:103820003332101041104031431032101012201268
:1038300011123111214340123133431242204112FF
:103840004312401133321040304240423032423055
:1038500013211130403230413340323310311040A7
:1038600010131131431011113012331212201212A1
:103870004021402133301240423042124042111266
:103880004030423112302142301330113340413048
:10389000323331123013301143401143424013117F
:1038A0004130114220114133404143401130333304
:1038B0004142301310113211134031432042404233
:1038C0004120103210314143314230423340132104
:1038D0001143424013211143412031414331123001
:1038E0001340113013131132333112304212402180
:1038F0001132334041434220124231133110103013
:103900004143401143333113311040414340401390
:103910001011413012302112301331204041332038
:1039200011413311413340114340413333101133BE
:1039300033414230134011431341212043112132BE
:1039400043204013411040314310122012114143D3
:103950001111332040423041334110314230421284
:103960004042434132423032324310322010301153
:1039700043134121323320204013201011402143B2
:10398000211143123132124341414310101132329E
:103990004331324340124312411040214210423120
:1039A0001312313232431031103131432040114370
:1039B0004231133210103210404021434110401167
:1039C000213312314212201211413343121142307D
:1039D000424011334311213021331240424231130E
:1039E0003210311121434231323021433210403103
:1039F0004340211310411040113233114143124012
:103A00002131334043131241102011113320404221
:103A10001112313243314230132111303032303201
:103A20003340211310401143401130414310111213
:103A300031124312122012203142423142301130F1
:103A4000423042101132334311423042123142426D
:103A5000311313114241104030324333311342408D
:103A60002140213040131011124011213311113324
:103A70002040211121333210402132434110314185
:103A800043402132303133311230131311212033AE
:103A90001240114321414340114321113031431061
:103AA0001141301230324143101041321121334262
:103AB0004032414310201012424013214133322042
:103AC0004041331032104031334030133140131035
:103AD0002010114143404230131112401132331271
:103AE00040423120401032212132304230424011D8
:103AF0003320101131332011123142301342404231
:103B0000101142301210211210321040302130209A
:103B10003013124042111231123013124042304120
:103B20003042334141431041104030421031103196
:103B300032432041201031104011423142431233B0
:103B400031133110403243403013101240321121F2
:103B500033122012111133423121432121212143FB
:103B6000111133334042124032112143114143219C
:103B700011332141332141332031133011303013BF
:103B80001030114341204012331141331040114392
:103B90003120403133401233124110404032434013
:103BA0004143312020423113311010404143204025
:103BB0003230131040113041431042401311123182
:103BC000111340113243401133211240402133116F
:103BD00041431111333012401230323330324143FD
:103BE0001030113012304242104142301341104027
:103BF000324340423013123121111320123142312D
:103C00001020412031302133134113411040303214
:103C100043211130433242114143311031123042BD
:103C2000401143333113421011423013311010113F
:103C3000413011213340113311122013411333400D
:103C40002133301312313212301331103113131269
:103C500012311332104033301312314212314231DB
:103C600010403042402113103110404143101231B6
:103C700032123042101132423042424013131121AD
:103C80003243101141304143103110311121304184
:103C900043103210404143101240421231131111AF
:103CA000303032331231134011433011434120314F
:103CB000123042101132423021132113424021416F
:103CC000431041103141431011113032433141430F
:103CD0001041104042301341204011324340113016
:103CE0004042104120104011302030131231421256
:103CF0003113401130304231414310201011324312
:103D0000104110201220121240423340424231131F
:103D100042402130214311413312311340113343CA
:103D20004121123013301130123013111130123082
:103D30004241103112304242311321113030131000
:103D4000114130113243201011313331123013310F
:103D500010402113101231421141331011423331FE
:103D6000423210103310113243101141431220120D
:103D7000401130203312423113311040333013419F
:103D80002020114133311040304240214210401177
:103D9000434011431231211132433110401032425D
:103DA000114143311010334013114130113243108F
:103DB000113231433141431032101042401311414E
:103DC000301243124011334120312121433340133B
:103DD0003210101240324143201240424240322100
:103DE00013103210404230131111301233124110AF
:103DF0002031203132431043112132431041103120
:103E000041432041104032334021421031101031E3
:103E1000101011113311413341104033304221123F
:103E200010411040333013080B0002020200000959
:103E30000400000102020000052400100105240115
:103E40000101042402060524060001070581031070
:103E5000004009040100020A0000000705020240B8
:103E6000000007058302400000040309041201005A
:103E700002EF0201404123368000010102030141AB
:103E8000726475696E6F204C4C43004172647562B8
:103E90006F790000A52911241FBECFEFDAE0DEBF45
:103EA000CDBF11E0A0E0B1E0EAE8FCE602C0059079
:103EB0000D92A83BB107D9F729E0A8EBB1E001C00A
:103EC0001D92A935B207E1F71FE1CBE4DFE104C0A1
:103ED0002197FE010E943436CA34D107C9F70E94E7
:103EE000E7290C9443360C94000026E133E0E3E428
:103EF000F6E0A0E0B0E0BD0180E00E94D21F0E9489
:103F0000C11FBD011296A20FB31F8217930799F329
:103F10008F5F9F4F21F4AF5FBF40DB0178F00E94BD
:103F2000B52140E05091F1056091F20580E20E94D8
:103F3000C61F729A0E948D21A0E0B0E07CEF0E9423
:103F4000B5214A2F5091F1055B0F6091F205611D7B
:103F500082E00E94C61F832F71FD822F70FD819128
:103F60000E94DE1F759518F42150304019F011960B
:103F7000AA2389F7729A0E948D2121153105F9F63D
:103F800008950E949E21982F0C94982172980E9467
:103F9000DE1F862F0E94DE1F852F0E94DE1F842FCA
:103FA0000C94DE1F462F5091F105570F6091F205DA
:103FB000681F83E00E94C61F1EBC08958EBD0000CE
:103FC0008EB50DB407FEFCCF0895FC018091F0057D
:103FD000882311F13FB7F89482E08093E9002091A3
:103FE000F200822F90E01816190614F481E090E098
:103FF000882339F0289844E64093EF054091F1007A
:104000004083222339F02091F200211103C02BE6D6
:104010002093E8003FBF08958FEF9FEF08952FB7DB
:10402000F89483E08093E9009091E800892F8072F2
:1040300095FF04C09091F20080E4891B2FBF089582
:104040008091E70581110DC082E08093E30584E053
:104050008093E4051092E6051092E50581E08093D7
:10406000E70583EE95E00895CF93DF931F92CDB7D8
:10407000DEB76983DC01ED91FC910280F381E02DD4
:1040800041E050E0BE016F5F7F4F09950F90DF91D7
:10409000CF91089583E08093E9008091F200882316
:1040A00019F08AE38093E80008950E940F2090E0C1
:1040B0000895CF93DF931F92CDB7DEB7FC018485BF
:1040C000958597FD08C02FEF3FEF358724870F9028
:1040D000DF91CF910895CE0101960E94E51F0197CF
:1040E00019F4898190E0F3CF8FEF9FEFF0CF0F931A
:1040F0001F93CF93DF931F92CDB7DEB78C01FC01E6
:104100008485958597FF0BC0CE0101960E94E51F1F
:10411000019771F4898190E0F80195878487F8010F
:10412000848595850F90DF91CF911F910F91089510
:104130008FEF9FEFF1CFFC018485958597FD0BC034
:104140009FB7F89482E08093E9008091F2009FBFCE
:1041500090E0019608959FB7F89482E08093E9007B
:104160008091F2009FBF90E008954091DD0550914D
:10417000DE052091DB053091DC0542175307B4F4CE
:104180009091E8009570E1F39091E80092FD19C0DC
:104190008093F1008091DD059091DE0501968F738B
:1041A0009927892B19F48EEF8093E8008091DD0523
:1041B0009091DE0501969093DE058093DD0581E008
:1041C000089580E00895EF92FF920F931F93CF938D
:1041D000DF93F82E192FE62E042F81E0860F880F2B
:1041E0000E94B52083E00E94B520CF2DD12FEC0E88
:1041F000FD2EF11CCE15DF05B9F007FF13C0FE013F
:1042000084910E94B520182F80E00E94B520812360
:1042100021968111EFCFDF91CF911F910F91FF90E8
:10422000EF9008958881EDCF81E0F5CFDF92EF9296
:10423000FF920F931F93CF93DF93D82E8A01EB0148
:104240007B01E40EF51ECE15DF0559F0D7FE12C036
:10425000FE0184910E94B52021968111F4CF0FEFC9
:104260001FEFC801DF91CF911F910F91FF90EF9049
:10427000DF9008958881EECF0F931F93CF93DF9344
:104280001F92CDB7DEB782E0898342E450E067E257
:104290007EE380E80E9416210E942020DC01129615
:1042A0000D911C910115110589F0D801ED91FC913A
:1042B0000280F381E02DBE016F5F7F4FC801099539
:1042C00097FD04C0F80100851185ECCF89810F901E
:1042D000DF91CF911F910F910895615030F020919F
:1042E000F100FC0120830196F8CF289884E68093A2
:1042F000EF0508958FB18095807F669B88601C9B39
:10430000846008959091CD05982329F49091D70564
:10431000982381E009F480E00895729885E00E9476
:10432000DE1F80E00E94DE1F80FDFBCF729A0895A1
:104330000DB407FEFDCF8EB5729A08950DB407FE39
:10434000FDCF8EB51EBC0895462F5091C901570F61
:104350006091CA01681F83E00E94C61F1EBC0895B9
:1043600072980E94DE1F729A089586E00C94B02124
:10437000FC010E945322319728F068517C4F8F4FE7
:104380009F4FF9CFAB01FC010E94532264177507C0
:104390008E079F07C8F3089585E090E00C94B8213C
:1043A0008F929F92AF92BF92CF92DF92EF92FF9245
:1043B0000F931F93CF93DF936C017B018A01809150
:1043C0000F01882309F45AC08091F005882309F46D
:1043D00055C08091E20580FF05C08091E0008260B9
:1043E0008093E000E801B12C8AEFA82E93E0892E9B
:1043F0002AE3922E209711F4BB20C9F10E940F20CE
:10440000811108C0AA94AA20C9F181E090E00E941D
:10441000B821F0CF8C171D0611F00CF08C2F9FB730
:10442000F8948092E9002091E80025FD02C09FBF2A
:10443000E1CF282F30E0C21BD30BF701815020F0D1
:1044400041914093F100FACFE20EF31EBB2021F020
:104450009092E800B12CEBCF8091E80085FDE7CF8A
:104460009092E800BB24B394209709F3F3CF5D98B2
:1044700084E68093E105101611063CF081E090E09F
:10448000F6019383828310E000E0C801DF91CF91B1
:104490001F910F91FF90EF90DF90CF90BF90AF9062
:1044A0009F908F900895A5ECB1E02FB7F8947D917F
:1044B0008D919C9166B52FBFA89B05C06F3F18F4E6
:1044C0007F5F8F4F9F4F22E0660F771F881F991FD6
:1044D0002A95D1F7089530E73CBDDC0130E8439FD1
:1044E000C0011124A80FB91F5E91352F6111372F1C
:1044F0003C93C89500C052235EBD0197A9F704D034
:1045000003D030E50DB43CBD08958091CB058823E0
:1045100029F081508093CB0581E0089580E00895D3
:10452000CF93DF9398E4899FD0011124ED01C35FFD
:10453000D64FA853B74FFD0180E092E0873189F054
:1045400090831282118281110FC09C9312961C924B
:104550001E9211978F5F3396883181F7DF91CF914B
:10456000089518821A821982108212821182F2CF63
:104570000C94751FCF93C091D705C093CD050E94B1
:104580007A218093D705C0958C23CF9108954F92BF
:104590005F926F927F928F929F92AF92BF92CF92D3
:1045A000DF92EF92FF920F931F93CF93DF9300D090
:1045B000CDB7DEB7ABECB1E03A01862EE02FBB24DD
:1045C000482E96959695969541E0E1FC44E0E0FCF6
:1045D000440FE2FC42955FEF549F6001C094D09479
:1045E000F594E794F594E794F594E7943E2D3F3FD6
:1045F0004CF43095931B20FD330F389F600C711CD9
:104600008B1C3FEF17FF0BC0400E20FF02C0000FB6
:10461000111F601A710A8B0817FD8394EE2750E86A
:1046200035030E0EA00DB11D5E1B451608F0452E7C
:1046300057E0531B591714F4952FB39450E85419AD
:10464000682F772721FD02C06419770B20FF02C075
:10465000660F771F1124A32E213009F062C0F301E9
:10466000292F3115B4F4A058BF4FF42C8591059132
:10467000849FC001049F8001EC901095E122E92AFB
:10468000ED92FA9499F711242A95A419B109E60F2D
:10469000F11D222319F1CF93DF93ED01C058DF4FB5
:1046A000F42C85910591849FC001049F8001EC90BA
:1046B0000095E022E82AED92E8801095E122E92AAF
:1046C000E992FA9471F71124A50FB11DC50FD11D00
:1046D000E60FF11D2A9521F7DF91CF91BB2069F0FC
:1046E00085910591849FC001049F8001EC90009505
:1046F000E022E82AED924A9499F711240F900F9046
:10470000DF91CF911F910F91FF90EF90DF90CF90AD
:10471000BF90AF909F908F907F906F905F904F90E1
:1047200008950090C901700C0090CA01801C19C046
:10473000729833E03EBD660E771E811C55248415A9
:1047400009F053940CD08EBC07D07EBC05D06EBC53
:1047500003D01EBC03D00895C8950000C895C89525
:104760000895661A770A8108E3DFA1141CF09923E3
:1047700071F564C0A058BF4FE42C20FD0CC00EB5ED
:104780001EBC049F9C909D2091289D92C89500C0BE
:10479000EA94A9F711C00EB51EBC049F8001DEDFAC
:1047A000CEB41EBCC49E60019C90D0949D20912AE2
:1047B0009D92C895EA9479F71124A419B1099A95A4
:1047C00009F45CC0552019F00DB4729AB1DFFD01F7
:1047D000E058FF4FE42C20FD0EC00EB51EBC049F18
:1047E0009C909C2090289D9290809D209128919251
:1047F000EA9499F716C00EB51EBC049F80019C90E8
:10480000D080AEDF00C0CEB41EBCC49E0094902009
:10481000902A9D921094D120D12AD1920000EA943E
:1048200051F71124A50FB11D9A9561F6BB2031F106
:10483000552021F00DB4729A7BDFC89520FD0CC085
:104840000EB51EBC049F9C909C2090289D92C895FC
:1048500000C04A94A9F712C00EB51EBC049F800187
:104860007DDF9EB51EBC949F902D9C9090959922C3
:10487000902A9D92C8954A9479F7C8951124729A06
:104880000DB43CCF6F927F928F92AF92CF92DF9216
:10489000EF92FF920F931F93803891050CF03AC06E
:1048A000603471050CF036C0A42FB0E0FD01E80FB4
:1048B000F91F1E161F060CF02DC0E22FF0E03F017D
:1048C000660E771E161417040CF024C03701802ED4
:1048D0007B018C019E2F8827842B9B2BC114D10434
:1048E000A1F0269526952695A0FC220F249FF00185
:1048F000ED9D700C811CFC9D700C811CFD9D800C3D
:10490000EC9D600C711C1124811C2A2D682DA301C3
:104910000E94C7221F910F91FF90EF90DF90CF90E0
:10492000AF908F907F906F9008957F928F929F921B
:10493000AF92CF92DF92EF92FF920F931F93CF939C
:10494000DF93EC014B016901E42E842FB9010E9431
:10495000A4210E949E21782E0E9498214E2D96011E
:104960002E5F3F4F4F4F93E0A92E68017901042F2E
:10497000282F472DB401CE010E944224DF91CF9110
:104980001F910F91FF90EF90DF90CF90AF909F908D
:104990008F907F9008957F928F929F92AF92CF9247
:1049A000DF92EF92FF920F931F93CF93DF93EC016F
:1049B0004B016901E42E842FB9010E94A4210E94B9
:1049C0009E21782E0E9498214E2D96012E5F3F4FFA
:1049D0004F4F92E0A92E68017901042F282F472D0F
:1049E000B401CE010E944224DF91CF911F910F911B
:1049F000FF90EF90DF90CF90AF909F908F907F903F
:104A00000895AF92CF92DF92EF92FF920F936901D8
:104A1000FA01459125917F01FF0F000BAA24A39471
:104A20000E9442240F91FF90EF90DF90CF90AF90C3
:104A30000895CF92EF92FF920F931F93CF93DF933E
:104A4000922F2C2D413009F466C0423009F4C9C0C0
:104A50009032D9F150F4903101F1DF91CF911F9153
:104A60000F91FF90EF90CF900895903309F440C0DC
:104A7000903499F79CE0E99EA001112493E0099FEE
:104A8000400D511D11248A010C0D111D062E000C24
:104A9000770B25EF33EB40E012C09CE0E99EE0018C
:104AA000112493E0099FC00DD11D11248E010C0D1E
:104AB000111D062E000C770B2FE03AE940E0082E7E
:104AC000000C990B0E949524C8CF9CE0E99ED00170
:104AD000112493E0099FA00DB11D11248D010C0D2F
:104AE000111D062E000C770B21EB32EA40E0E7CFD8
:104AF0009CE0E99EF001112493E0099FE00DF11D77
:104B000011248F010C0D111D062E000C770B23E5CF
:104B10003BEA40E0D4CF9032E1F110F5903109F05A
:104B20009CCF9CE0E99EA001112493E0099F400DD9
:104B3000511D1124240F352F311D062E000C770B2B
:104B40006A5F7F4F4AEF5FE2082E000C990BDF91FE
:104B5000CF911F910F91FF90EF90CF900C94012572
:104B6000903359F1903409F078CF9CE0E99EA00190
:104B7000112493E0099F400D511D1124240F352F5E
:104B8000311D062E000C770B6A5F7F4F44EB5BE113
:104B9000DBCF9CE0E99EA001112493E0099F400D2A
:104BA000511D1124240F352F311D062E000C770BBB
:104BB0006A5F7F4F48E359E2C7CF9CE0E99EA001BE
:104BC000112493E0099F400D511D1124240F352F0E
:104BD000311D062E000C770B6A5F7F4F46E752E2CD
:104BE000B3CF9032C1F1D8F4903109F036CF9CE0C8
:104BF000E99EA001112493E0099F400D511D11244D
:104C0000240F352F311D062E000C770B6A5F7F4F66
:104C1000082E000C990B42EF54E10B9698CF90337D
:104C200089F1903409F019CF9CE0E99E70011124BC
:104C300093E0099FE00CF11C11242E0D3F2D311D36
:104C4000062E000C770B6A5F7F4F082E000C990B25
:104C50004CEA50E0E2CF9CE0E99EA001112493E0F1
:104C6000099F400D511D1124240F352F311D062E93
:104C7000000C770B6A5F7F4F082E000C990B40E306
:104C80005EE0CBCF9CE0E99EA001112493E0099F58
:104C9000400D511D1124240F352F311D062E000CFF
:104CA000770B6A5F7F4F082E000C990B4EE657E09A
:104CB000B4CF5C98FC012591CF012EBD00000DB44E
:104CC00007FEFDCF6150B1F75C9A08950F931F93D3
:104CD000CF93DF93809164008E7F809364008091F6
:104CE0007A00806480937A0080917A0086FDFCCF00
:104CF000C0917800D09179000E945322AB01BC0191
:104D0000CE01B0E0A0E0DC01992788278C019D014D
:104D1000040F151F261F371FC901B8012091640019
:104D2000216020936400611571058105910531F0C2
:104D3000DF91CF911F910F910C949135DF91CF911D
:104D40001F910F9108951F920F920FB60F92112489
:104D50008F939F938091E1009091E100937F9093D6
:104D6000E10083FF0FC01092E90091E09093EB0007
:104D70001092EC0092E39093ED001092F00598E011
:104D80009093F00082FF22C093E09093E90090910D
:104D9000F200992319F09AE39093E8009091E105CD
:104DA000992341F09091E10591509093E105911183
:104DB00001C05D9A9091EF05992341F09091EF0524
:104DC00091509093EF05911101C0289A84FF18C06B
:104DD0008091E2008E7E81608093E2008091E1000C
:104DE0008F7E8093E1008091E2058E7E80618093CA
:104DF000E2059F918F910F900FBE0F901F90189515
:104E000080FFF7CF8091E2008E7E80618093E20088
:104E10008091E1008E7E8093E1008091E2058E7E9C
:104E20008160E5CF1F920F920FB60F921124CF929F
:104E3000DF92EF92FF920F931F932F933F934F9325
:104E40005F936F937F938F939F93AF93BF93EF93F2
:104E5000FF93CF93DF93CDB7DEB76C97DEBFCDBFA7
:104E60001092E9008091E80083FF25C068E0CE0140
:104E700045960E946D2182EF8093E8008D8987FF1F
:104E800039C09091E80090FFFCCF982F907609F000
:104E900034C19E894F89588D2F89F88C911131C06A
:104EA000803861F58091E0058093F1001092F10067
:104EB0008EEF8093E8006C960FB6F894DEBF0FBEBD
:104EC000CDBFDF91CF91FF91EF91BF91AF919F91B6
:104ED0008F917F916F915F914F913F912F911F9192
:104EE0000F91FF90EF90DF90CF900F900FBE0F903B
:104EF0001F9018959EEF9093E800C7CF1092F10095
:104F0000D5CF913059F48111D3CF4130510581F67D
:104F10008091E0058D7F8093E005CACF933049F4FE
:104F20008111C6CF4130510519F68091E0058260AC
:104F3000F2CF953041F48091E80080FFFCCF2068EB
:104F40002093E300B5CF963009F0A9C00B8D1C8DDE
:104F500022E01092E9001092DE051092DD05F212B7
:104F60002EC01092DC051092DB050E943C211F82AE
:104F700099E09983FA8291E09E8390EA98879AEF6C
:104F800099872091DD053091DE05275F3F4F3C83F7
:104F90002B838D831092E9001092DE051092DD05BF
:104FA0001093DC050093DB0549E050E0BE016F5F24
:104FB0007F4F80E00E9416210E943C2179CF109300
:104FC000DC050093DB050E942020DC0112960D9188
:104FD0001C910115110509F451C1D801ED91FC9105
:104FE0000480F581E02DBE016B5E7F4FC8010995FD
:104FF000009709F03EC1F80100851185EACFF3E082
:10500000FF120EC08F89882309F440C0823061F4FA
:1050100040E867E08BE89EE30E94E320811148CFDF
:1050200081E28093EB0047CF813029F440E86BE0C8
:105030008FE79EE3F1CF833099F70E942020DC01B7
:105040001296ED90FC908E010F5F1F4F6801E114E6
:10505000F10479F0D701ED91FC910680F781E02D04
:10506000B801C7010995080F111DF701E084F1840B
:10507000EECFD8011C92F60101900020E9F731979C
:10508000BF016C197D0940E0C601C6CF69E67EE329
:10509000FB01449150E080E80E94162109CF97302F
:1050A00009F4BECF983021F481E08093F10000CF65
:1050B000993009F0FDCE837009F0B2CFE0EAF1E05B
:1050C00081E031E096E32191222371F08093E900A1
:1050D0003093EB00DF0111972C912093EC0090931B
:1050E000ED008F5F873079F78EE78093EA001092AA
:1050F000EA008F898093F005DBCE8B8D9C8D10921A
:10510000E9001092DE051092DD059093DC05809396
:10511000DB05898D811192C08E899D89913A49F470
:10512000813209F07DCF47E050E068E071E080E037
:10513000B3CF913209F074CF833269F48F89988D9F
:10514000B0E0A0E08093040190930501A0930601D4
:10515000B0930701ADCE803269F48091E80082FF00
:10516000FCCF67E088E091E00E946D218BEF809397
:10517000E8009ECE823209F09BCE8F8980930F018A
:10518000EEEFFFE7859194918B3F9C4D51F1E0E06C
:10519000F8E08091080190910901A0910A01B09175
:1051A0000B01803B9440A105B105F1F480910F0102
:1051B00080FD1AC0EE3F8AE0F80789F587E797E798
:1051C00091838083809160008093DF0588E19BE07C
:1051D0000FB6F894A895809360000FBE909360007E
:1051E00067CEEEEFFAE0D5CF808191818737974780
:1051F00009F05ECEA8958091600088618093600080
:105200008091DF0580936000EE3F2AE0F20789F08D
:105210008091FE0A9091FF0A9183808349CE80811C
:1052200091818737980751F29093FF0A8093FE0A85
:10523000C5CF1092FF0A1092FE0A3ACE0E9420209B
:10524000DC0112960D911C910115110509F4E8CEAF
:10525000D801ED91FC910190F081E02DBE016B5ED3
:105260007F4FC8010995811123CEF8010085118572
:10527000EBCF181619060CF41BCED2CEF1E0FF12BC
:10528000BECE6DE67EE304CF0F920FB68F939F9351
:10529000EF93FF938091C0018D5F8D3708F08D579C
:1052A0008093C001E1ECF1E080818E4F8083918199
:1052B0009F4F918382818F4F828383818F4F83831E
:1052C000E5ECF1E080818F5F808381818F4F818366
:1052D00082818F4F828383818F4F83838FB18F60D1
:1052E00066991C9B88278F3681F48091BF01981B9B
:1052F000963068F0E0E0F8E087E78083818388E11A
:1053000080936000F0936000FFCF9093BF01FF9106
:10531000EF919F918F910FBE0F9018951F920F9252
:105320000FB60F9211248F939F9382E496E090938F
:1053300089008093880081E08093CC059F918F91B4
:105340000F900FBE0F901F9018951092F6051092B7
:10535000F50588EE93E0A0E0B0E08093F705909328
:10536000F805A093F905B093FA058AEA91E09093C5
:10537000F4058093F3058FEF9FEF909300068093E1
:10538000FF051092BF081092C0081092C208109238
:10539000C1081092C4081092C3081092C508109258
:1053A000C6081092C708E8ECF8E080E199E01082A6
:1053B00033968E179F07D9F7E0E1F9E01082339614
:1053C00089E0E835F807D1F7109258090895CDB76C
:1053D000DEB72A97DEBFCDBF789483E084BD83E03B
:1053E00085BD81E080936E00E1E8F0E083E080839A
:1053F000E0E881E08083E1E983E08083E0E981E027
:105400008083E1EC87E08083E3EC81E08083E0EC63
:1054100082E08083E2EC81E08083EAE787E08083BA
:10542000806880831092F0051092E0051092E205EA
:105430008091D70081608093D70080EA8093D80064
:1054400089B5806189BD89B5826089BD09B400FED6
:10545000FDCF81E090E00E94B8218091D8008F7C40
:1054600080618093D8008091E000807F8093E0008D
:105470008091E1008E7E8093E1008DE08093E200D8
:10548000559A209A81EC80937C0081EF85B987EE54
:1054900084B984E38BB984EF8AB9769A6E9880EFE9
:1054A00081BB10BA80E58CBD81E08DBD0E94CC210E
:1054B0005F9A0E94CC215C98ECEBF6E385918EBD5F
:1054C00000000DB407FEFDCFE93CC1F75C9A81E80E
:1054D0008093640021E02093650062E089EC96E30C
:1054E0000E94592668E08BEC96E30E9459269FB7EC
:1054F000F89422E436E0309389002093880083E01A
:10550000809380008BE1809381001092850010923F
:10551000840080916F00826080936F009FBF5E9ACD
:10552000E4E1F0E08DEB9EEF60EF7FEF25913591A8
:10553000559145912851354909F4CA018093C90113
:105540009093CA012591359155914591285135493E
:1055500009F4BA016093F1057093F2058BEA0E9499
:10556000B0211092C2081092C1080E946626809154
:10557000430681110AC00E94902281E00E9490227D
:1055800031E0309343060E94B82274E6272E312C76
:105590005E98F8948091CC05811109C083B7816031
:1055A00083BF7894889583B78E7F83BFF2CF1092A4
:1055B000CC0578946091D90569832FE741E050E0EC
:1055C00061E070E08BE495E00E946B2262E085ED83
:1055D00096E30E9459262FEF47E051E061E070E02A
:1055E0008BEC91E00E946B2262E083ED96E30E94D7
:1055F0005926898182508E3F28F179817F5F798396
:1056000089818093D9055E9A9091DA0599839F30BC
:1056100008F068C0A92FB0E0BA83A983FD01ED5E50
:10562000F44D0C943436292B292B292B292B292B8B
:105630007A2B832B832B832B832B832B892EFE2E7C
:10564000FE2EFE2E8091CB058F5F8093CB051982B5
:10565000D7CF89819A81880F991FE981FA818E0FAE
:105660009F1F0091D905080F192F111D28EA38E056
:1056700040E070E060E090E080E00E94CB24809108
:10568000C1089091C2080C9771F41092C208109250
:10569000C10829813A812F5F3F4F237033273A8316
:1056A00029832093DA050E9485228823D9F08091EE
:1056B000C1089091C20801969093C2088093C108D6
:1056C0008091CE05803218F48F5F8093CE050E94C2
:1056D000BA22882339F08091CE05803219F485E012
:1056E0008093DA0580E090E0892B09F451CF0E9485
:1056F00000004ECF86E08093DA051092CE0510921E
:10570000C2081092C1080E948522882379F18091F5
:10571000C1089091C20801969093C2088093C10875
:105720000E94BA2289838091CD053091D70533FB41
:10573000992790F921E0922783FF90E082FF4FC0E4
:1057400032FB882780F921E082272091DA05273073
:1057500009F47AC008F045C0263009F460C0809191
:10576000CE058E3F18F48F5F8093CE052091D9052A
:1057700029838091DA05873009F42FC108F01AC116
:10578000863009F0AFCF8091C1089091C2086CE8D3
:1057900070E00E9420366AE070E00E9420368DE0C2
:1057A000861B7981672F70E07A8369838B0193E090
:1057B000899F000D111D112423EC30ED40E070E0B5
:1057C00060E083E290E00E94CB2409811A8120E00E
:1057D00030E040E069E170E090E080E035C180E0D9
:1057E000B4CF283009F459C0293009F0B8CFE98185
:1057F000E3FF0EC0809158090E9490220E94B822B7
:105800008BE08093D3058093D40588E08093DA05FC
:10581000F981F2FFA4CF88E08093DA05A0CF8091D0
:10582000C1089091C208499708F499CF398133FF94
:1058300096CF0E94662687E08093DA058BE08093FE
:10584000D3051092CE058BCF698167FF08C0809188
:105850005809813021F4109258090E94B8227981A8
:1058600074FF09C080915809811105C081E08093BF
:1058700058090E94B8228091C1089091C2084997A6
:1058800008F46DCF898183FF6ACF1092D105109201
:10589000D2050E94662688E0CFCF882339F0809118
:1058A000D4058A3018F485E08093DA058091D2051A
:1058B000992379F09091D3059A3058F49091D105BD
:1058C000282F220F220F920F9093BF089BE09093F6
:1058D000DA0533FF69C09091D3059F5F9093D3059C
:1058E00032FF65C09091D4059F5F9093D40590914D
:1058F000D305913238F09091D405913218F099E0A7
:105900009093DA05998195FF07C09091D10599236D
:1059100019F091509093D105A981A6FF1AC09091DA
:10592000D1059330B0F49F5F282F220F220F290F4B
:10593000E0915809B8E4EB9FF001112433E0239F74
:10594000E00DF11D1124E853F74F208121119093B0
:10595000D105698164FF1CC08530D0F49091D105D8
:105960009C5F282F220F220F920FE091580978E4B4
:10597000E79FF0011124A3E09A9FE00DF11D11248F
:10598000E853F74F9081992319F08F5F8093D205E8
:10599000B981B7FFE4CE8091D205882309F4DFCE28
:1059A00081508093D205DBCE1092D30599CF10920F
:1059B000D4059DCF883009F44AC0893009F092CED1
:1059C000E9810E2F10E02AEA38E340E069E170E057
:1059D00084E290E00E94CB2485CEB981AB2FB0E069
:1059E000BA83A9838091C1089091C2086CE870E0E5
:1059F0000E9420366AE070E00E9420368DE0861B0F
:105A000009811A81E3E08E9F000D111D112423EC02
:105A100030ED40E070E060E083E290E00E94CB2453
:105A200000915809802F90E08C01000F111F080F82
:105A3000191F29813A81020F131F25E93BE141E03B
:105A40006CE070E084E190E00E9495244BCEE09100
:105A5000D205F0E0EC5EFE4F808122E130E04901AA
:105A6000881A9108512C412C712C612C7981672F57
:105A700070E07A87698764567F4F78876F83540117
:105A800082E1A81AB10891E58916910408F032C1A3
:105A90007A826982D12CC12CF12CE12CA985BA859E
:105AA000A40DB51DBC83AB83AC5ABF4FBE83AD8381
:105AB00080915809F201B8E4B89FE00DF11D11245E
:105AC000EC0DFD1DE853F74F80810B811C81813067
:105AD00031F00F811885823021F40D811E810C0D6B
