:100000000C94FA0F0C9422100C9422100C942210D1
:100010000C9422100C9422100C9422100C94221098
:100020000C9422100C9422100C9452200C94CF208B
:100030000C9422100C9422100C9422100C94221078
:100040000C9422100C9422100C9422100C94221068
:100050000C9422100C9422100C9422100C94082062
:100060000C9422100C9422100C9422100C94221048
:100070000C9422100C9422100C9422100C94221038
:100080000C9401230C9422100C9422100C94221036
:100090000C9422100C9422100C9422100C94221018
:1000A0000C9422100C9422100C94221000065F066F
:1000B000000808080808006C6C00003E5149453EE5
:1000C00000427F4000625149494622494949361859
:1000D00014127F102F494949313C4A494930017176
:1000E0000905033649494936064949291E7E111139
:1000F000117E7F494949363E414141227F4141417C
:100100003E7F494949417F090909013E4149497AF0
:100110007F0808087F00417F4100304040403F7F1A
:10012000081422417F404040407F0204027F7F024A
:1001300004087F3E4141413E7F090909063E415185
:10014000215E7F09091966264949493201017F016B
:10015000013F4040403F1F2040201F3F403C403F68
:100160006314081463070870080771494543004D7C
:10017000554C5449504C4159455200504C4159201E
:100180004D4154434800000000003C7EFFFFFFFF4C
:100190007E3C0000000000000000003333333300D9
:1001A000000000000000C0C0C0C0C0C0C0C0C0C0CF
:1001B000C0C00000000000000000000000000000BF
:1001C0000000000000000000F0F0F0F0000000006F
:1001D000000000000000003C3C3C3C00000000002F
:1001E000F0F8FCFE030303070F1FFEFCF8F000030A
:1001F000070F1F3E3C383030301F0F070300000050
:1002000000000C0EFFFFFFFF0000000000000030A8
:100210003030303F3F3F3F30303030000C0E0F87E2
:10022000C3C3C3C3E3F3FFFF7E3C003C3E3F3F3FFD
:100230003F33333333313030300000000303C3E346
:10024000F3FBFFFFFFCF8703000C1C3C383030303E
:100250003030393F3F1F0F00C0E0F0F87C3E1F0FE9
:10026000FFFFFFFF00000003030303030303033F3B
:100270003F3F3F0303003F3F3F3F3333333333734D
:10028000F3F3E0C0000C1C3C383030303030383FE5
:100290003F1F0F00F0F8FCFEDFCFC7C3C3C3C3C3CB
:1002A0008000000F1F3F3F3030303030303F3F1F65
:1002B0000F000F0F0F0F0383C3E3F3FB7F3F1F0FED
:1002C00000000000003F3F3F3F0100000000000031
:1002D000BCFEFF7FF3F3E3E3C3E7FEBC0000000FC7
:1002E0001F38303030313133333F3F1F0F003C7EF9
:1002F000FFFFC3C3C3C3C3C3FFFFFEFC0000003046
:1003000030303030383C3E1F0F070300F0F8FCFE61
:100310000F070303070FFEFCF8F0003F3F3F3F03CA
:1003200003030303033F3F3F3F00FFFFFFFFC3C340
:10033000C3C3C3C3FFFFFE3C003F3F3F3F303030ED
:100340003030303F3F1F0F00F0F8FCFE0F07030373
:100350000303070F0E0C0003070F1F3C383030302B
:1003600030383C1C0C00FFFFFFFF03030303070FA3
:10037000FEFCF8F0003F3F3F3F30303030383C1F4C
:100380000F0703000000FFFFFFFFC3C3C3C3C3C3C6
:1003900003030000003F3F3F3F303030303030300B
:1003A0003000FFFFFFFFC3C3C3C3C3C3C3C3030303
:1003B000003F3F3F3F000000000000000000000041
:1003C000F0F8FCFE0F070303C3C3C3C3C3C300039A
:1003D000070F1F3C38303030303F3F3F3F00FFFFBA
:1003E000FFFFC0C0C0C0C0C0FFFFFFFF003F3F3FD6
:1003F0003F0000000000003F3F3F3F0000000303BC
:100400000303FFFFFFFF030303030000003030304E
:10041000303F3F3F3F3030303000000000000000F0
:1004200000000000FFFFFFFF000C1C3C3C303030A0
:100430003030303F3F1F0F00FFFFFFFFC0E0F0F8FC
:10044000FC3E1F0F0703003F3F3F3F03070F1F3FC7
:100450003F3E3C3830000000FFFFFFFF000000007F
:10046000000000000000003F3F3F3F3030303030A0
:1004700030303000FFFFFFFFFEFCF8F8FCFEFFFF0E
:10048000FFFF003F3F3F3F0001030301003F3F3FAD
:100490003F00FFFFFFFFFEFCF8F0E0C0FFFFFFFFA3
:1004A000003F3F3F3F000103070F1F3F3F3F3F001B
:1004B000FCFEFFFF030303030303FFFFFEFC000F2B
:1004C0001F3F3F3030303030303F3F1F0F00FFFFC5
:1004D000FFFF030303030303FFFFFEFC003F3F3F57
:1004E0003F0303030303030303010000FCFEFFFFBC
:1004F000030303030303FFFFFEFC000F1F3F3F3016
:100500003033333B3F1F1F3F3300FFFFFFFF030329
:10051000030383C7FFFFFE7C003F3F3F3F0303070A
:100520000F1F3F3F3D3830003C7EFFFFC3C3C3C3B6
:10053000CFCFCECC8000000C1C3C3C303030303073
:10054000303F3F1F0F00000003030303FFFFFFFFC7
:1005500003030303000000000000003F3F3F3F0093
:1005600000000000FFFFFFFF000000000000FFFF91
:10057000FFFF000F1F3F3F3030303030303F3F1F14
:100580000F00FFFFFFFFC080000080C0FFFFFFFFE4
:1005900000000103070F1F3F3F1F0F07030100006B
:1005A000FFFFFFFFC0E0F0F0E0C0FFFFFFFF003FF4
:1005B0003F3F3F1F0F07070F1F3F3F3F3F000F1FEA
:1005C0003FFFFEFCF8F8FCFEFF3F1F0F003C3E3FE4
:1005D0003F1F0F07070F1F3F3F3E3C0000003F7FBC
:1005E000FFFFE0C0C0E0FFFF7F3F00000000000011
:1005F000013F3F3F3F010000000003030383C3E3CB
:10060000F3FBFFFF7F3F1F0F003C3E3F3F3F3F3765
:1006100033313030303030004074003F0830003F1C
:10062000083000182418003C1008103C0018243C26
:10063000003C08040018243F002000485438001AE9
:1006400020001F2420003F0830001C203C003F24D5
:10065000180020001A200018241800300806002274
:1006600025190018342C003C0804001A2000182416
:100670003C001E20003F09360018342C001F2000CB
:1006800018243C004C503C544F2053455249414C97
:100690002052454C415900434F4E4E454354203261
:1006A0002041524455424F595300F80808080808A1
:1006B0002808F800000000FF01010101010101010B
:1006C000010101010101010501FF00000000F8081E
:1006D000080808082808F8FFF7EBF7FFEFFFF7FF17
:1006E00000C04040FF0CAC4CAC4CAC4CAC4CAC4CE7
:1006F000AC4CAC4CAC0CFF4040C000FFF7EBF7FF3C
:10070000EFFFF7FF000000000F08080808080F00BF
:1007100000030202020202020202020202020202BA
:100720000202020300000F08080808080F0000007A
:1007300000A40028007F002800120028000080B4D8
:100740000014008F0014002200140000800000C07C
:10075000FF4000E0FFC0FFE0FF00002000080B00AA
:100760000202020000090400000102020000052448
:1007700000100105240101010424020605240600DD
:10078000010705810310004009040100020A00006E
:100790000007050202400000070583024000000434
:1007A00003090412010002EF0201404123368000D8
:1007B000010102030141726475696E6F204C4C4364
:1007C0000041726475626F7900D5F08D14A1C88103
:1007D000CFD9F1AF20000080808080808080808031
:1007E0008080808080808080808080808080808009
:1007F00080808080808080808080808080808080F9
:100800008080808080808080800000FFFF01212127
:100810002121FD212121212121FD21212121212110
:10082000FD212121212121FD212121212121FD2124
:100830002121212121FD2121212101FFFF0000FF94
:10084000FF0010101010FF101010101010FF1010EB
:1008500010101010FF101010101010FF10101010BA
:100860001010FF101010101010FF1010101000FFCB
:10087000FF00007F7F00080808080F080808080824
:10088000080F0808080808080F0808080808080FD3
:100890000808080808080F0808080808080F0808CA
:1008A0000808007F7F00C0C0C0C0C0C0C0C0C0C0BA
:1008B000C0C0C0C0C0C0C0C0C0C0C0C0C0C0C0C038
:1008C000C0C0C0C0C0C0C0C0C0C0C0C0C0C0C0C028
:1008D000C0C0C0C0C0C0C0C0C0C0FFFFFFFF232356
:1008E0002323FF232323232323FF23232323232320
:1008F000FF232323232323FF232323232323FF2334
:100900002323232323FF23232323FFFFFFFFFFFFB3
:10091000FFFF10101010FF101010101010FF10101B
:1009200010101010FF101010101010FF10101010E9
:100930001010FF101010101010FF10101010FFFFFB
:10094000FFFFFFFFFFFF080808080F080808080856
:10095000080F0808080808080F0808080808080F02
:100960000808080808080F0808080808080F0808F9
:100970000808FFFFFFFF00FEFE0606060606FE064D
:100980000606060606FE060606060606FE06060617
:10099000060606FE060606060606FE060606060607
:1009A00006FE0606060606FEFE0000FFFF0404041F
:1009B0000404FF040404040404FF04040404040401
:1009C000FF040404040404FF040404040404FF04F6
:1009D0000404040404FF0404040404FFFF0000FFF3
:1009E000FF0202020202FF020202020202FF0202F0
:1009F00002020202FF020202020202FF02020202DD
:100A00000202FF020202020202FF0202020202FFCF
:100A1000FF0000017F8181818181FF81818181814E
:100A200081FF818181818181FF818181818181FF3C
:100A3000818181818181FF818181818181FF8181AA
:100A40008181817F0100FFFFFFFF0F0F0F0FFF0F5D
:100A50000F0F0F0F0FFF0F0F0F0F0F0FFF0F0F0FC6
:100A60000F0F0FFF0F0F0F0F0F0FFF0F0F0F0F0FB6
:100A70000FFF0F0F0F0FFFFFFFFFFFFFFFFF04042C
:100A80000404FF040404040404FF04040404040430
:100A9000FF040404040404FF040404040404FF0425
:100AA0000404040404FF04040404FFFFFFFFFFFF29
:100AB000FFFF02020202FF020202020202FF020222
:100AC00002020202FF020202020202FF020202020C
:100AD0000202FF020202020202FF02020202FFFF02
:100AE000FFFF03037F8381818181FF818181818178
:100AF00081FF818181818181FF818181818181FF6C
:100B0000818181818181FF818181818181FF8181D9
:100B10008181837F03030000183C3C180000000023
:100B200000000000000000183C7E7E3C1800000021
:100B300040404040000000000000008020587858ED
:100B400020800000000000000000060017100710C1
:100B500017000600000000000000000040B0F0B0E8
:100B60004000000000000000000002001B180210FE
:100B700015040600000000000000000040B0F0B0C6
:100B800040000000000000000000060415100218DC
:100B90001B00020000000000000000000818787828
:100BA00050000000000000000000000006101314B8
:100BB0000300000000000000000000001030F0F012
:100BC000A00000000000000000000000100E000E59
:100BD0001000000000000000000000001030F0F0E5
:100BE000A00000000000000000000000100E000E39
:100BF000100000000000000000000000507878188D
:100C000008000000000000000000000003141310A2
:100C1000060000000000000000000000A0F0F0301E
:100C2000100000000000000000000000100E000E88
:100C3000100000000000000000000000A0F0F030F4
:100C4000100000000000000000000000100E000E68
:100C500010000000000000000000808020787878FC
:100C60002080800000000000000006001710071020
:100C700017000600000000000000000040F0F0F047
:100C800040000000000000000000020116100610E5
:100C900016010C00000000000000000040F0F0F021
:100CA000400000000000000000000C0116100610BB
:100CB00016010200000000000000000020507050EB
:100CC00020000000000000000000060018180818AE
:100CD00018000600000000000000000040A0E0A096
:100CE0004000000000000000000002001818001082
:100CF00014040600000000000000000040A0E0A076
:100D0000400000000000000000000604141000185D
:100D100018000200000000000000000000207070B9
:100D20005000000000000000000000000012141439
:100D30000000000000000000000000000040E0E0B3
:100D4000A0000000000000000000000010040A00E5
:100D50001000000000000000000000000040E0E083
:100D6000A0000000000000000000000010000608C5
:100D70001000000000000000000000005070702013
:100D80000000000000000000000000000014141229
:100D9000000000000000000000000000A0E0E040B3
:100DA00000000000000000000000000010000A0425
:100DB000100000000000000000000000A0E0E04083
:100DC0000000000000000000000000001008060005
:100DD0001000000000000000000000004080808043
:100DE000400000000000000000000600181808186D
:100DF0001800060000000000000000008000000055
:100E0000800000000000000000000200181909190D
:100E100018000C000000000000000000800000002E
:100E2000800000000000000000000C0018190919E3
:100E30001800020000000000000000000000000098
:100E4000000000000000000000141400000000007A
:100E5000244E4C08000000000000000000000000CC
:100E600000000000000000000207070540420100EA
:100E7000180C0C00000000000000000000808080C2
:100E8000000000000000000000080400010213023E
:100E90000100180000000000000000000000000039
:100EA000000000000000000000060402040808081A
:100EB0000402386000000000000000000000000094
:100EC0000000000000000000000C0C18000142406F
:100ED0000507070200000000000000700000102855
:100EE00070502000000000000000001006061414DE
:100EF0000000010100000000000000202000C0A050
:100F0000E080000000000000101B000F0C0000013A
:100F1000020908080000000000205070281000009E
:100F2000700000000000000001010000141406061B
:100F30001000000000000000000080E0A0C00020C1
:100F40002000000000000000080809020100000C59
:100F50000F001B10000000000000007000001020B7
:100F600040400000000000000000001006061414BD
:100F70000000010100000000000000202000C0006F
:100F80000000000000000000101B000F0C0000011A
:100F90000208080800000000000040402010000087
:100FA000700000000000000001010000141406069B
:100FB00010000000000000000000000000C0002041
:100FC0002000000000000000080808020100000CDA
:100FD0000F001B1000000000000080C0A0507050E7
:100FE000A0C08000000000000000060113130313DE
:100FF00013010600000000000000008040A0E0A0F7
:101000004080000000000000000002011B1A0212D4
:1010100015050600000000000000008040A0E0A0D0
:101020004080000000000000000006051512021AB2
:101030001B01020000000000000000000020707092
:101040005000000000000000000000000215151311
:101050000300000000000000000000000040E0E08D
:10106000A00000000000000000000000140E0A06AE
:101070001400000000000000000000000040E0E05C
:10108000A00000000000000000000000140E020E8E
:1010900010000000000000000000000050707020F0
:1010A0000000000000000000000000000313151500
:1010B000020000000000000000000000A0E0E0408E
:1010C00000000000000000000000000014060A0EEE
:1010D000140000000000000000000000A0E0E0405C
:1010E000000000000000000000000000100E020ED2
:1010F0001400000000000000000080C0800000001C
:1011000080C08000000000000000060113130313DC
:101110001301060000000000000000800000000035
:1011200000800000000000000000020117160616F3
:1011300017030C0000000000000000800000000009
:10114000008000000000000000000C0317160616C7
:101150001701020000000000000000000000000075
:101160000000000000000000001414000C1E1E000F
:10117000244E4C08000000000000000000000000A9
:10118000000000000000000002071725585A19004F
:10119000000C0C00000000000000000000808080B7
:1011A00000000000000000000008040605021B0A01
:1011B0000D06180000000000000000000000000004
:1011C00000000000000000000006040E1C181818A3
:1011D0001C0E38600000000000000000000000004D
:1011E0000000000000000000000C0C0000195A581C
:1011F00025170702000000000000007080C0D0A882
:1012000070502000000000000000001001011313C6
:10121000030001010000000000000020A000C0A0A9
:10122000E080000000000000101B00000307060D16
:10123000020908080000000000205070A8D0C080FB
:101240007000000000000000010100031313010101
:101250001000000000000000000080E0A0C000A01E
:101260002000000000000000080809020D06070326
:1012700000001B10000000000000007080C0D0A023
:101280006040000000000000000000100101131386
:10129000030001010000000000000020A000C08049
:1012A0000000000000000000101B00000307060DF6
:1012B000020808080000000000004060A0D0C080C4
:1012C0007000000000000000010100031313010181
:1012D00010000000000000000000000080C000A01E
:1012E0002000000000000000080808020D060703A7
:1012F00000001B10000000000080C0F8FCFCFCFC9B
:10130000FCF8C0800000000000070F7F7F7F3F7F58
:101310007F7F0F0700000000000080F0F8F8F8F869
:10132000F8F0800000000000000307FFFFFF3F3FD0
:101330003F3F0F0700000000000080F0F8F8F8F8C9
:10134000F8F080000000000000070F3F3F3F3FFF24
:10135000FFFF07030000000000000038FCFCFCFC5D
:10136000FC78000000000000000000077F7F7F7F06
:101370007F4700000000000000000070F8F8F8F857
:10138000F8F0000000000000000020747E5F1F1FC6
:101390007F7520000000000000000070F8F8F8F8E9
:1013A000F8F0000000000000000020747E5F1F1FA6
:1013B0007F7120000000000000000078FCFCFCFCB5
:1013C000FC38000000000000000000477F7F7F7FA6
:1013D0007F07000000000000000000F0F8F8F8F8B7
:1013E000F870000000000000000020757F1F1F5FE4
:1013F0007E74200000000000000000F0F8F8F8F80B
:10140000F870000000000000000020717F1F1F5FC7
:101410007E742000000000000080C0F0F8FCFCFC9E
:10142000F8F0C0800000000000070F7F7F7F3F7F43
:101430007F7F0F0700000000000080E0F0F8F8F860
:10144000F0E0800000000000000307FFFFFF3F3FC7
:101450003F3F1F0F00000000000080E0F0F8F8F8A8
:10146000F0E0800000000000000F1F3F3F3F3FFF03
:10147000FFFF070300000000000000000000000064
:1014800080808080000030383C3E3E3E3E3F3F7FC3
:101490007FFFFF5F1F0080C0C0C0C0C08000800011
:1014A000000000000000030F0F3F7F7FFFFFFF3DA4
:1014B0003C1E1E1C383C0000000000C0E0E0E0E0E4
:1014C000E0C0000000000000081C0EFFFFFF3F7F8F
:1014D0007F7F3E1C0000000000000080C0E0E0E0D4
:1014E000C080000000000000060F0EFFFFFF3F7FDE
:1014F0007F7F7EF860000000000000000080008018
:10150000C0C0C0C0C0803C381C1E1E3C3DFFFFFF59
:101510007F7F3F0F0F030000000070F8F0F8FCFE23
:10152000FEFCFCB8000000000030383F1F7F7F7FCA
:101530001F030303010000008080A0F0F0E0E0F052
:10154000F0F0F0E00000333B3F3F3F1F1F0F0F1F45
:101550001F1F1F1D08000000B8FCFCFEFEFCF8F079
:10156000F8700000000000010303031F7F7F7F1F4E
:101570003F38300000000000E0F0F0F0F0E0E0F074
:10158000F0A08080000000081D1F1F1F1F0F0F1FED
:101590001F3F3F3F3B330000000070F8F0F8FCFEB7
:1015A000FEFCFCB8000000000030383F1F7F7F7F4A
:1015B0001F030303010000008080A0F0F0E0E0F0D2
:1015C000F0F0F0E00000333B3F3F3F1F1F0F0F1FC5
:1015D0001F1F1F1D08000000B8FCFCFEFEFCF8F0F9
:1015E000F8700000000000010303031F7F7F7F1FCE
:1015F0003F38300000000000E0F0F0F0F0E0E0F0F4
:10160000F0A08080000000081D1F1F1F1F0F0F1F6C
:101610001F3F3F3F3B3355AA55AA55AA55AAAA00DA
:101620005500AA005500AA005500AA00FFFFAB0311
:101630005703AB035703AB0357FFFF035703AB033A
:101640005703AB0357FFFF035703AB035703FFFFDA
:101650005500AA005500AA0055FFFF005500AA003A
:101660005500AA0055FFFF005500AA005500FFC015
:10167000D5C0EAC0D5C0EAC0D5C0EAC0D5C0EAC06E
:10168000D5C0EAC0D5FF55AA55AA55AAFFFF55AA4D
:1016900055FFFFAA55AA55AA55AA55AA55BA5DAA3B
:1016A00055AA55AA55AAFFFF55AA55AA55AA55AA43
:1016B00055FFFFEAD5EAD5EAD5EAD5EAD5EAD5EA73
:1016C000D5FFFFAA55AA55AA55AB57AE5DBA75EA24
:1016D000D5EAD5AA55AA55AAD5AAD5EAF5FA7DBE66
:1016E0005FAF57AA55AA55AA55AB55AB57AF57AEE2
:1016F0005DBE5DBA7DBA75BA75EA75EA75EAF5EA56
:10170000D5EAD5EAD5EA75EA75EA75FA75BA75BA11
:101710005DBA5DAE5FAE57AB57AB55AA55AA55AA99
:1017200055AAD5EAD5EA75FA75BA5DBA5DAE5DAE71
:101730005FAE57AE57AE57AB57AB57AB57AB57AB88
:1017400057AB57AB57AF57AE57AE57AE5DAE5DBE5A
:101750005DBA7DBA75EAF5EAD5AAD5AA55AA55AA01
:1017600055EAF5FA7DBE5FAF57AB55AB55AA55AA02
:1017700055AB57AB57AE5DBA75EAD5AA55AAD5AAEF
:10178000D5AAD5AAD5AAF5FEDFABD5AAD5AAD5AAE2
:10179000D5ABD7BFFFFAAB015501AB015501AF7F08
:1017A000FDC1AB015501AB015581EBF97F0FAA00DB
:1017B0005503AF0E5D38FAE0D5C0AA805500AA00E7
:1017C000D580EAC0F570BA1C5F07AB005500AA00CF
:1017D0005501AB035707AE0E5D1CBA187D30BA3009
:1017E0007560EA607560EAC0D5C0EAC0D5E0EA601D
:1017F0007560EA707530BA385D18BE0C5F06AF03CD
:101800005701AB005500AA005580AAC0D5E0EA7088
:101810007538BA185D0CAE0C5F06AE065706AF03FE
:101820005703AB035703AB035703AB035707AE068E
:101830005706AE0E5D0CAE1C5D18BA307560EAC07E
:10184000D580AA005500AA0055C0EA707D1CAE07DD
:101850005703AB015500AA005501AB03570EBE3824
:1018600075E0EA005500AA0055FFFF035703AB03DC
:1018700057FFFF005500AA005500AA005518BA00EE
:101880005500AA00550055AA55AA55AA55FFFFAB09
:1018900057AB57AB57AB57AB57AB57AB57FFFFAA3D
:1018A00055AA55AA55AAD5EAD5FFFFEAD5EAD5EA41
:1018B000D5EAD5EAD5FFFFEAD5EAD5EAD5EA0000B0
:1018C0000000000000000000000000000000000018
:1018D0000000000000000000000000000000000008
:1018E00000000000000000000000000000000000F8
:1018F00000000000000000000000000000000000E8
:1019000000000000000000000000000000000000D7
:1019100000000000000000000000000000000000C7
:1019200000000000000000000000000000000000B7
:1019300000000000000000000000000000000102A4
:101940000303030303040303050603030303030361
:101950000303050603030403030303030701010252
:101960000101010101080101090A0101010101014F
:101970000101090A01010801010101010701010238
:101980000101010101080101090B0C0C0C0C0C0CEC
:101990000C0C0D0A010108010101010107010102FE
:1019A0000101010101080101010101010101010120
:1019B0000101010101010801010101010701000EFE
:1019C00000000000000F00000000000000101100E7
:1019D0000000000000000F00000000001200000ED8
:1019E000000000000013141414141414141414141C
:1019F0001414141414141500000000001200000E3A
:101A000000000000000000000016170000000000A9
:101A10000018190000000000000000001200000E75
:101A2000000000000000000000001A1B1C1D141E16
:101A30001F20000000000000000000001200010252
:101A40000101010101010101010101010101010186
:101A5000010101010101010101010101070101026F
:101A60000101010101010101010101010101010166
:101A7000010101010101010101010101070101024F
:101A80000101010101010101010101010101010146
:101A9000010101010101010101010101070101022F
:101AA0000101010101010101010101010101010126
:101AB0000101010101010101010101010701000E04
:101AC0000000000000000000000000000000000016
:101AD0000000000000000000000000001200000EE6
:101AE0000000000000000000000021222324252621
:101AF0002728000000000000000000001200000E77
:101B0000000000000000000000292A000000000082
:101B1000002B2C0000000000000000001200000E4E
:101B20002D2D2D2D2D2D2D2D2D2E2D2D2D2D2D2DE4
:101B30002D2D2F2D2D2D2D2D2D2D2D2D1200010272
:101B40003030303030303030303130303030303094
:101B50003030323030303030303030300701010238
:101B60000101010101010101013334010101010100
:101B700001353601010101010101010107010102E5
:101B8000010101010101010101013738390C3A3B22
:101B90003C3D0101010101010101010107010102B7
:101BA0000101010101010101010101010101010125
:101BB0000101010101010101010101010701000E03
:101BC0000000000000000000000000000000000015
:101BD0000000000000000000000000001200000EE5
:101BE00000000000000000000000000000000000F5
:101BF0000000000000000000000000001200000EC5
:101C000000000000000000000000000000000000D4
:101C10000000000000000000000000001200000EA4
:101C200000000000000000000000000000000000B4
:101C3000000000000000000000000000120001028F
:101C4000010101010101010101013E3F4041424307
:101C500044450101010101010101010107010102E6
:101C600001010101010101010146470101010101D9
:101C700001484901010101010101010107010102BE
:101C800001010101014A03030303030303030303E7
:101C90000303030303034B010101010107010102D7
:101CA000010101010108010101010101014C4D0186
:101CB0000101010101010801010101010701000EFB
:101CC00000000000000F0000000000000000000005
:101CD0000000000000000F00000000001200000ED5
:101CE00000000000000F00004E4F24242424242470
:101CF0002424505100000F00000000001200000ECC
:101D000000000000000F00004E5100000000000025
:101D100000004E5100000F00000000001200000EF5
:101D200014141414145214145354141414141414B6
:101D300014145354141452141414141412000101E2
:101D40000101010101010101010101010101010183
:101D50000101010101010101010101010101010173
:101D60000101010101010101010101010101010163
:101D70000101010101010101010101010101010153
:101D80000101010101010101010101010101010143
:101D90000101010101010101010101010101010133
:101DA0000101010101010101010101010101010123
:101DB00001010101010101010101010101013C7663
:101DC000D39FF9CB6E3C444946464943554C545940
:101DD0003A4841524400534F554E442046583A4FDA
:101DE000464600444946464943554C54593A4E4F9D
:101DF000524D414C00534F554E442046583A4F4E99
:101E000000534F43434552004152445500AC000536
:101E10000806065448524F5720494E00434F524E31
:101E2000455200474F414C204B49434B007B01E555
:101E30001FE31DA11AF51DA91A6F013E1F000044E2
:101E400052415721003701B4002601B4001501B4F6
:101E5000000601F4010080594F55204C4F53452195
:101E6000000B023C000B023C00BA023C00BA023CF0
:101E70000070033C0070033C00170490010080597F
:101E80004F552057494E210048414C462054494D5A
:101E90004500324E442048414C4600C4090A005ACD
:101EA0000A0A00C4090A005A0A0A00C4090A005AA8
:101EB0000A0A00C4090A005A0A0A00C4090A005A98
:101EC0000A0A005A0A0A00C4090A005A0A0A00C487
:101ED000090A005A0A0A0000800C0C0C0C0C0C0CAD
:101EE0000CFFFF0001010100FF0001010100FFFFE5
:101EF000FF090A090B030403050001000206070697
:101F0000080000010202020300000204060708089C
:101F100008070604020000000000000000000001A5
:101F200019005F001900900019005F00190080007F
:101F300019005F001900700019005F0019006000AF
:101F4000190000800F0D0D0D0E1010103C2D5A328F
:101F50000F001E28080002010408030206070800FB
:101F60000506040894000A005F000A0012000A0037
:101F70000080001030707030100000080C7E7E0C65
:101F80000800001818187E3C18000010307E7E30C3
:101F9000100000183C7E18181800183878F8F878E7
:101FA0003818181CFEFFFFFE1C183C3C3CFFFF7E4F
:101FB0003C1818387FFFFF7F3818183C7EFFFF3C25
:101FC0003C3C474F414C21000B027800BA0278009C
:101FD000700378001704780000001E00750590015A
:101FE00000804B49434B204F4646210086010F108D
:101FF0000F06622311241FBECFEFDAE0DEBFCDBF94
:1020000011E0A0E0B1E0E2E5FFE602C005900D922C
:10201000A632B107D9F726E0A6E2B1E001C01D92D1
:10202000A93DB207E1F71FE0CAEFDFE004C0219746
:10203000FE010E94A137C93FD107C9F70E94A22320
:102040000C94A7370C9400008091560108952FB787
:10205000F89483E08093E9009091E800892F8072E2
:1020600095FF04C09091F20080E4891B2FBF089572
:102070000E94271090E00895FC0180916F0588234D
:1020800011F13FB7F89482E08093E9002091F200CB
:10209000822F90E01816190614F481E090E088234E
:1020A00039F0289844E640936E054091F100408352
:1020B000222339F02091F200211103C02BE6209356
:1020C000E8003FBF08958FEF9FEF089583E080936E
:1020D000E9008091F200882319F08AE38093E800F8
:1020E0000895E9E6F1E081E0A0E0B8E000800EBCF0
:1020F0008111012C1197A0FDFDCF0192B9F70DB40C
:102100000895FC01262F643640F46A3038F44111FA
:1021100005C0205D2193CF01089523E6822F6AE058
:102120000E946D3790E3980F908396EF899F200D62
:1021300011243196EECF40E06091BB0684E996E031
:102140000E9481102DE2FC012193CF0140E06091BB
:10215000C8060C948110CF93DF93009769F4A4E92B
:10216000B6E030E020E0E0EFFFE14D914423C9F01C
:102170004491240F311DF9CFAC0130E020E0A0EFF5
:10218000BFE1C1EFDFE1FA0164914F5F5F4F66236A
:1021900041F0FE01603209F0FD016491260F311D0E
:1021A000F2CF37FF02C02F5F3F4F3595279531950E
:1021B00021953109205C2093EA059093E7058093EF
:1021C000E6058CE390E09093E9058093E805DF91C4
:1021D000CF9108952091F3053091F40580E0E82F28
:1021E000EE0FEE0FFF0BE20FF31F45915491452BBD
:1021F00011F08F5FF4CF08958091E8059091E90583
:1022000018161906E4F08091A0069091A106873077
:102210009105A9F08A30910591F0019711F481E0C0
:10222000089581E04091A4065091A5066091A6060C
:102230007091A7064D3351056105710508F480E0E2
:102240000895EF92FF920F931F93CF93DF938B012B
:102250007C01E40EF11C260F372F311D50E170E098
:102260008E159F0544F5F801D9012134310514F08C
:10227000A0E4B0E0EA17FB07E4F480389105B8F475
:10228000E034F105A0F4EF0141E0C1FD44E0C0FD00
:10229000440FC2FD4295C87F5C9FD0011124A80F56
:1022A000A759BE4F0C90042A70FF04260C92319659
:1022B000DBCF0196D5CFDF91CF911F910F91FF908A
:1022C000EF9008958C30D9F058F48B3099F09CE061
:1022D000899FF0011124EC52FA4F87A190A508952F
:1022E0008D3029F08E3099F787E291E008958BE1E7
:1022F00090E0089580917E0690917F0608958091E8
:102300007E0690917F060197089580916101811169
:102310000DC082E080935D0184E080935E011092A5
:10232000600110925F0181E0809361018DE591E091
:102330000895FC010E94AD11319728F068517C4F3F
:102340008F4F9F4FF9CFAB01FC010E94AD11641775
:1023500075078E079F07C8F30895A9E5B1E02FB769
:10236000F8947D918D919C9166B52FBFA89B05C077
:102370006F3F18F47F5F8F4F9F4F22E0660F771FEC
:10238000881F991F2A95D1F708950C9466104091E3
:10239000440150914501209142013091430142177F
:1023A0005307B4F49091E8009570E1F39091E80040
:1023B00092FD19C08093F1008091440190914501F4
:1023C00001968F739927892B19F48EEF8093E8007B
:1023D000809144019091450101969093450180932D
:1023E000440181E0089580E00895EF92FF920F93F9
:1023F0001F93CF93DF93F82E192FE62E042F81E041
:10240000860F880F0E94C71183E00E94C711CF2D4D
:10241000D12FEC0EFD2EF11CCE15DF05B9F007FF14
:1024200013C0FE0184910E94C711182F80E00E9402
:10243000C711812321968111EFCFDF91CF911F9199
:102440000F91FF90EF9008958881EDCF81E0F5CF57
:10245000DF92EF92FF920F931F93CF93DF93D82ECB
:102460008A01EB017B01E40EF51ECE15DF0559F064
:10247000D7FE12C0FE0184910E94C71121968111DE
:10248000F4CF0FEF1FEFC801DF91CF911F910F9194
:10249000FF90EF90DF9008958881EECF0F931F9308
:1024A000CF93DF931F92CDB7DEB782E0898342E4FA
:1024B00050E06DE577E080E80E9428120E948511C7
:1024C000DC0112960D911C910115110589F0D801BE
:1024D000ED91FC910280F381E02DBE016F5F7F4F93
:1024E000C801099597FD04C0F80100851185ECCF5E
:1024F00089810F90DF91CF911F910F9108956150C5
:1025000030F02091F100FC0120830196F8CF28984B
:1025100084E680936E0508958F929F92AF92BF924A
:10252000CF92DF92EF92FF920F931F93CF93DF939F
:102530006C017B018A0180910B01882309F45AC048
:1025400080916F05882309F455C08091480180FF70
:1025500005C08091E00082608093E000E801B12C2A
:102560008AEFA82E93E0892E2AE3922E209711F469
:10257000BB20C9F10E942710811108C0AA94AA208B
:10258000C9F181E090E00E949911F0CF8C171D06EF
:1025900011F00CF08C2F9FB7F8948092E9002091F5
:1025A000E80025FD02C09FBFE1CF282F30E0C21B0D
:1025B000D30BF701815020F041914093F100FACF05
:1025C000E20EF31EBB2021F09092E800B12CEBCF7D
:1025D0008091E80085FDE7CF9092E800BB24B3949A
:1025E000209709F3F3CF5D9884E680934701101696
:1025F00011063CF081E090E0F6019383828310E0C5
:1026000000E0C801DF91CF911F910F91FF90EF90F3
:10261000DF90CF90BF90AF909F908F900895CF9311
:10262000DF931F92CDB7DEB76983DC01ED91FC919A
:102630000280F381E02D41E050E0BE016F5F7F4FEB
:1026400009950F90DF91CF9108951F93CF93DF935A
:10265000182FD62F0E942710843060F1C091D20627
:10266000CD0FC10F612F84E795E00E940F13609199
:10267000D20684E795E00E940F136D2F84E795E062
:102680000E940F136C2F84E795E00E940F132FB761
:10269000F8948091700590917105A0917205B091A8
:1026A00073052FBF8093D4069093D506A093D606CA
:1026B000B093D706DF91CF911F910895CF93DF9309
:1026C0001F92CDB7DEB7FC018485958597FD08C0C4
:1026D0002FEF3FEF358724870F90DF91CF9108953B
:1026E000CE0101960E943C10019719F4898190E077
:1026F000F3CF8FEF9FEFF0CF0F931F93CF93DF9325
:102700001F92CDB7DEB78C01FC018485958597FFBC
:102710000BC0CE0101960E943C10019771F4898193
:1027200090E0F80195878487F801848595850F905E
:10273000DF91CF911F910F9108958FEF9FEFF1CF10
:10274000FC018485958597FD0BC09FB7F89482E0C6
:102750008093E9008091F2009FBF90E00196089578
:102760009FB7F89482E08093E9008091F2009FBFC8
:1027700090E00895BF92CF92DF92EF92FF920F9375
:102780001F93CF93DF93BB24B39483E8D82EEE241A
:10279000EA9491EFC92EC2E0D0E001E010E084E7B6
:1027A00095E00E94A013892B09F4B8C0F0906D0544
:1027B00084E795E0F1102AC00E945E1396E0980F1E
:1027C000933020F4B0926D058093690580916D057A
:1027D000843029F710926D059091690580916A0502
:1027E00020916B05392F380F320F40916C0543173C
:1027F000C9F0D4BCE7BCC092800010928800E0927F
:102800008A0060E08BEF0E942513C9CF0E945E13FF
:1028100091E09F0D90936D05EF2DF0E0E759FA4F91
:102820008083D4CF3FB7F8944091700550917105E3
:1028300060917205709173053FBF4093D406509329
:10284000D5066093D6067093D7069C3F09F5809114
:10285000D0069091D106892B41F48091D306281798
:1028600080F41093D1060093D00684E795E00E948F
:10287000A013892B09F493CF84E795E00E945E139F
:10288000F4CF821790F7D093D106C093D006EDCF46
:102890009A3FD9F44091D0065091D106452B29F3A7
:1028A0009091D20689130CC09091CE069093CC06DD
:1028B0002093CE068F5F8093D2061092D806D5CF94
:1028C00060E08BEF0E942513D0CF9B3F71F62091E3
:1028D000D0063091D106232B41F29091D206891374
:1028E00004C06091CD068AEFEDCF915089130DC0E1
:1028F0008093D2066091CB068AEF0E9425138091C7
:10290000D2068F5F8093D206B0CFD4BCE7BCC09212
:10291000800010928800E0928A0041CFDF91CF9131
:102920001F910F91FF90EF90DF90CF90BF9008958F
:1029300020913B01E0913901F0913A01CF010296DB
:1029400090933A0180933901222319F08591949153
:102950000895808191810895CF92DF92EF92FF9246
:10296000CF93DF930E949814811520E8920791F489
:10297000809171008D7F8093710010929100469834
:10298000479810923801DF91CF91FF90EF90DF9040
:10299000CF90089521E020933801813020E89207FC
:1029A00051F4809136019091370190933A018093D0
:1029B00039010E94981497FD05C02091350122230A
:1029C00009F454C020913401211150C021E020931A
:1029D0003C01EC01DF77209709F04BC081E0809348
:1029E0003D0146983FE9C32E3FE0D32EE12CF12C68
:1029F000CAEFD0E0E091D205F091D305099581119D
:102A000003C081E080933D0180913C01882329F03F
:102A100080913D01882309F43FC047980E94981493
:102A20000097F1F19C01DE010E945E37DC01CB01D1
:102A300029E0B595A795979587952A95D1F7109296
:102A400090002AE020939100D0929900C0929800C3
:102A500080933E0190933F01A0934001B0934101C8
:102A6000809171008260809371008DCF10923C0143
:102A7000B0CF9E0150E040E060E472E48FE090E06F
:102A80000E941D3769017A0181E0C81AD108E10866
:102A9000F10810923D01AECF4699BFCF479ABECF05
:102AA0008FEF9FEFDC01CBCF9C01E1E7F0E090815D
:102AB0009D7F908381E080933B0130933A01209386
:102AC000390130933701209336010C94AC1490E017
:102AD0000C9499118FB18095807F669B88601C9BB8
:102AE000846008958091CD068093CB061092CD0628
:102AF0000E946A1583FF05C08091CD068061809396
:102B0000CD060E946A1582FF05C08091CD068062C5
:102B10008093CD060E946A1587FF05C08091CD067F
:102B200081608093CD060E946A1584FF05C0809164
:102B3000CD0684608093CD060E946A1585FF05C08E
:102B40008091CD0688608093CD060E946A1586FF2D
:102B500005C08091CD0682608093CD0608951092C5
:102B600056013E983F9808953E9A3F9A81E080939F
:102B7000560108952F923F924F925F926F927F92EB
:102B80008F929F92AF92BF92CF92DF92EF92FF927D
:102B90000F931F93CF93DF93CDB7DEB72A970FB66E
:102BA000F894DEBF0FBECDBF30E0F901E80FF91F8A
:102BB0001E161F060CF0AEC0803891050CF0AAC09E
:102BC00010E0F801E60FF71F1E161F060CF0A2C05A
:102BD000603471050CF09EC0E62FE770FE2E095F91
:102BE0001F4F3801E3E075946794EA95E1F7DA0145
:102BF000F3E075956795FA95E1F7462F660F550B4B
:102C00005A8749875695542F442757954795480F1B
:102C1000591F1E821D8210E000E0BA0167597E4FE5
:102C20007A836983BA0167517E4F7C836B83601618
:102C3000710609F46FC0C984DA84C00ED11E78E031
:102C4000C716D1040CF066C0EFEFCE16DE060CF40A
:102C500053C049805A804D815E81440E551E8B8041
:102C60009C80840E951E50E040E0421753070CF004
:102C700043C0FA01E80FF91FE038F1050CF03CC041
:102C8000F7FD2FC0FD01E40FF51FE491F0E0BF0157
:102C90000F2C02C0660F771F0A94E2F778876F83C4
:102CA0007FEFC716D70699F15201A40EB51EF501A4
:102CB0003080F1E0EF1218C0362AF5013082FF2093
:102CC00081F0F7E0CF16D10461F05401A40EB51ED7
:102CD000F5013080F1E0EF120BC06885362AF5016E
:102CE00030824F5F5F4FC1CF2F8020943220E5CFDD
:102CF000E885E0953E22F3CF0F5F1F4FA20FB31F71
:102D00004D815E8140585F4F5E834D8390CFF110BF
:102D1000DCCFE7CF2A960FB6F894DEBF0FBECDBF4B
:102D2000DF91CF911F910F91FF90EF90DF90CF90A7
:102D3000BF90AF909F908F907F906F905F904F90DB
:102D40003F902F9008952F923F924F925F926F92F3
:102D50007F928F929F92AF92BF92CF92DF92EF922B
:102D6000FF920F931F93CF93DF9300D01F92CDB7A5
:102D7000DEB75B015B834A8339010983FC0145901F
:102D80005490FC013296F490319614913296C4908E
:102D90000496FC018491F19E4001112493E09594E6
:102DA00087949A95E1F7282E312CD12CF981FF23B5
:102DB00089F0F5018081882309F448C0FFEFAF1A3C
:102DC000BF0A803251F48A819B818C0D9D1D9B83AB
:102DD0008A83ECCFF5018491EECF8132A1F18D325F
:102DE00061F18A3369F190ED980F9A30E8F4082E7A
:102DF000000C990B8D97889EA001899E500D989E7E
:102E0000500D1124440D551DEE24E394012F2F2D58
:102E1000B3018A819B810E94BA15EA81FB81E20D90
:102E2000F31DFB83EA83C2CF9FEB980F9A3158F4CE
:102E3000082E000C990BC497DECF81E090E0DBCF29
:102E400082E090E0D8CF90E080E0D5CF0F900F9057
:102E50000F90DF91CF911F910F91FF90EF90DF9036
:102E6000CF90BF90AF909F908F907F906F905F902A
:102E70004F903F902F900895982F81E0992321F053
:102E8000953011F080E008950895CF93DF93DC0131
:102E9000EA018091AC064DE0849FC0011124815568
:102EA000994F41E050E0A817B90711F44FEF5FEFD9
:102EB0008091A0069091A106009709F043C0179653
:102EC0001C921E9216978091AC067DE0879FC001F0
:102ED00011248155994FA817B90709F44DC080EC0A
:102EE0009FEF19969C938E931897653008F0655064
:102EF0008091A0069091A1066111D3C0049709F0BA
:102F0000C3C080919E0690919F068A179B0709F087
:102F1000BBC080917C0690917D060697998388833B
:102F20004091AC06FDE04F9FA00111244155594F3F
:102F300080917E0690917F06A417B50709F4A2C080
:102F4000049755C084309105D1F417961C921E92B7
:102F50001697E0919E06F0919F06309709F4BFCF37
:102F60008091AC067DE0879FC00111248155994F67
:102F7000E817F90709F4B3CF80E490E0B2CF8330CB
:102F8000910509F03FC080917C0690917D068038C4
:102F900091059CF580EE9FEF17969C938E93169764
:102FA00080917E0690917F06805A910919969C9394
:102FB0008E931897ECE06E9FC001112488509A4FB1
:102FC000E0919C06F0919D06E817F90709F08DCF76
:102FD00080917C0690917D06803891058CF4059750
:102FE0009983888380917E0690917F060197F901ED
:102FF00091838083DF91CF91089580E290E0CCCFE0
:103000000596EECF029709F070CF17961C921E928C
:103010001697E0919E06F0919F06309759F08091A7
:10302000AC067DE0879FC00111248155994FE817B8
:10303000F90719F580EC9FEF19969C938E931897DA
:10304000ECE06E9FC001112488509A4FE0919C06DD
:10305000F0919D06E817F90709F047CF80917C06AB
:1030600090917D06803891055CF40697998388835A
:1030700080917E0690917F06BACF80E490E0DCCF0D
:103080000696F4CF0496B3CF80E890E099838883C6
:1030900063E86403C001659F900D112480569F4F23
:1030A000A6CF892B09F043C080919E0690919F0680
:1030B0008A179B07E1F511968D919C911297FCE080
:1030C0006F9F800D911D1124E0919C06F0919D064B
:1030D000E817F907C9F48091AC064DE0849FC00160
:1030E00011248155994FA817B90739F08CE790E062
:1030F000998388838CE990E07ACF8CE790E099837C
:10310000888384EA90E073CF633089F48091AC06C1
:10311000FDE08F9FC00111248155994FA817B90771
:1031200019F088E990E0E4CF88E990E0E8CF6150B9
:10313000F4E06F9FB0011124635B784FFB01859130
:10314000949199838883FB01329665917491649F71
:10315000C001659F900D749F900D1124F90191831A
:10316000808316964D915C91179740585F4F8881E8
:103170009981840F951F9983888318964D915C914E
:1031800040565F4F80819181840F951F918380838A
:10319000888199818E9724F48EE290E099838883C8
:1031A000F901808191818034910524F480E490E0DC
:1031B0009183808388819981823D910524F081EDFE
:1031C00090E099838883F901808191818F3F9105F7
:1031D00009F00CF40FCF8FEF90E00ACFCF92DF927F
:1031E000EF92FF920F931F93CF93DF9300D000D005
:1031F000CDB7DEB704ED15E0F12CE12C8DE0D82E33
:103200009CE0C92EF80182A5823009F44AC08D9D48
:10321000C00111248155994F9E012F5F3F4FAE0190
:103220004D5F5F4FF80164A10E9445178B819C811F
:10323000F80196A385A389819A8190A787A382A587
:10324000823091F18D9DC00111248155994F2091BB
:10325000AC062D9D900111242155394F82179307FB
:1032600031F580E0CE9CF001CF9CF00D1124EC52A2
:10327000FA4F83A7FFEFEF1AFF0A045F1F4F8AE0A0
:10328000E816F10409F0BECF0F900F900F900F9049
:10329000DF91CF911F910F91FF90EF90DF90CF9032
:1032A000089590E080E0B8CF90E080E0D0CF84E057
:1032B000D9CFFC012681223009F16DE0269F9001D3
:1032C00011242155394F81819281CC974091AC06D0
:1032D0006DE0469FA00111244155594F2417350731
:1032E00081F08938910540F42381348121523109DC
:1032F00081E02F32310508F080E0089530E020E0D1
:10330000E2CF89389105C0F723813481205F3109EC
:10331000EFCF40917C0650917D06FC0121813281E6
:10332000421B530B20917E0630917F06638174818E
:10333000261B370B009789F090938F0680938E069B
:1033400090939106809390061092930610929206A5
:103350004093550120935401089580918E069091D9
:103360008F06009789F390939106809390061092B0
:103370008F0610928E06E8CFFC0121813281253024
:1033800031050CF440C083819481AC014051510956
:1033900040335140C0F52B3F3105ACF5A9014456EF
:1033A00051094930510558F4AC014F51510947308A
:1033B000510548F14B5F51094830510520F1A901F1
:1033C000435951094930510558F4AC014F51510945
:1033D00047305105C0F04B5F51094830510598F016
:1033E000285631092033310560F49C012B513109F5
:1033F0002730310540F02450314081E0283031053C
:1034000018F080E0089581E00895FC014181528127
:103410002091EB053091EC05421B530B2381348145
:10342000E091ED05F091EE058CEF9FEF861B970B79
:1034300048175907ACF02E1B3F0B88279927861B8E
:10344000970B2817390764F0CB018D579F4F8417CE
:10345000950734F0615B7F4F81E0621773070CF4CE
:1034600080E00895AF92BF92CF92DF92EF920F93D8
:10347000CF93DF93FC01208121114EC0C480D58001
:10348000C114D10409F448C070E060E0C6010E9494
:10349000051A811141C0F601C181D2818091EB05ED
:1034A0009091EC05C81BD90B2497C380D4808091E0
:1034B000ED059091EE05C81AD90AFAE0CF1AD108A5
:1034C000D7FD33C0B12CA12CC937D1052CF0C8E7EA
:1034D000D0E040E1A42EB12CD7FC2DC089E3C81662
:1034E000D10434F098E3C92ED12C28E1A22EB12CBE
:1034F000A5014656504EE12C08E028E0B601CE0169
:103500000E94BA15A5014E58504EEE24E39428E0CF
:10351000B601CE010E94BA15DF91CF910F91EF90C5
:10352000DF90CF90BF90AF900895D0E0C0E030E240
:10353000A32EB12CD1CFD12CC12C88E0A82EB12C38
:10354000D7CF81E09091CA06911180E08093CA069E
:103550000895EFECF6E09081892F8E7F90FF8160D7
:1035600080830895481B590B261B370BCA0157FF50
:1035700004C088279927841B950BB90137FF04C025
:1035800066277727621B730B4115510529F4211516
:10359000310579F588E00895FB01EE0FFF1F57FD17
:1035A0000CC037FD28C0E817F907FCF0880F991FF9
:1035B00086179707C4F484E0089537FD0AC0E8171A
:1035C000F907ACF0880F991F86179707A4F385E0D9
:1035D0000895E817F9075CF0880F991F8617970779
:1035E000BCF087E0089583E0089582E0089586E0C6
:1035F000089537FFDBCF9B01220F331F28173907B0
:10360000A4F39C01220F331F81E02617370714F41F
:1036100080E008950895621B730B841B950B97FF40
:1036200003C09195819591099C0177FF03C0719525
:10363000619571096817790714F49B01BC01C901F0
:103640009595879595958795860F971F08952F9245
:103650003F924F925F926F927F928F929F92AF9222
:10366000BF92CF92DF92EF92FF920F931F93CF936F
:10367000DF932091AC064DE0249F90011124215549
:10368000394F8217930709F4CCC0CC24C394D12CB2
:103690002091A0063091A106232B09F4AFC0EC01C4
:1036A00000917C0610917D06005811091F830E833E
:1036B000E0907E06F0907F0680EAE81AF108F9862D
:1036C000E886A0908E06B0908F06A114B10419F17F
:1036D000F50180810E943C17F5019681882309F449
:1036E000A7C0923009F4A1C0FDE09F9FC001112442
:1036F0008155994FC817D90709F0ABC080E890E011
:103700008C9D90018D9D300D9C9D300D1124E20EFD
:10371000F31EF986E886003E1F4F24F480EE9FEFEB
:103720009F838E838E819F81819724F080E290E039
:103730009F838E8388859985803C9F4F24F480ECFD
:103740009FEF99878887888599858134910524F032
:1037500080E490E0998788878881823009F44EC0A0
:103760008B81811105C08C819D81892B09F046C018
:1037700020907E0630907F0640907C0650907D061B
:1037800089809A803401FCE36F0E711CB12CA12C4E
:10379000F12CE12CD12CC12C8401C114D10461F491
:1037A0008C819D8108171907F1F070E060E0C80175
:1037B0000E94051A8823B9F0F80180810E943C1705
:1037C000811111C0F8012381348141815281B101FD
:1037D000C2010E940B1BE114F10409F444C08A15D4
:1037E0009B050CF440C0045F1F4F06151705A9F692
:1037F000CA94CD28A1F5FD82EC821B82DF91CF9186
:103800001F910F91FF90EF90DF90CF90BF90AF90FE
:103810009F908F907F906F905F904F903F902F90F0
:103820000895CC24CA94DC2C33CF90E080E062CFA2
:10383000923061F02DE0929FC00111248155994F83
:10384000C817D90749F484E190E05ACF90E080E0AE
:10385000F7CF80E89FEF54CF80EC9FEF51CFCC247F
:10386000C394D12C99CF5C017801BDCF8F929F92E8
:10387000AF92BF92CF92DF92EF92FF920F931F937E
:10388000CF93DF935B014A01FC01C181D2816E01BC
:10389000FCE3CF0ED11CEE24EA94FE2C10E000E0F5
:1038A0006B817C819401A50189819A810E940B1B07
:1038B0000115110519F08E159F0514F47C018E0178
:1038C0002C96CC15DD0561F7C801DF91CF911F91D2
:1038D0000F91FF90EF90DF90CF90BF90AF909F90AF
:1038E0008F9008958F929F92AF92BF92CF92DF9266
:1038F000EF92FF920F931F93CF937C01C62F862FD9
:1039000090E0FC01E751F14E2491FC01EF51F14EA2
:10391000049180E1280260011124D7011196ED91F4
:10392000FC91CE0EDF1EB0E10B0280011124D70105
:103930001396ED91FC910E0F1F1F88EFA82E85E0C6
:10394000B82E90E7892E96E0992EEA14FB0459F0E0
:10395000F5012381348141815281B801C6010E9461
:103960000B1B4097ACF0FCE0AF0EB11C8A149B041B
:1039700061F78C2FCF911F910F91FF90EF90DF9007
:10398000CF90BF90AF909F908F900895C15005C089
:10399000D7018C9180FFFACFCF5FC770EACFFC01CF
:1039A00075876487108A118A128A138A1186108695
:1039B0001386128680918E0690918F06009741F0B3
:1039C000909391068093900610928F0610928E0627
:1039D00010929306109292060895CF93DF93EC0114
:1039E00088EC9FE10E9454158C858F5F8C8767E07F
:1039F00070E084E996E00E94CF1CD0939F06C093AC
:103A00009E06E0919006F0919106309781F08681B4
:103A10008230A9F02DE0829FC00111248155994F79
:103A2000C817D90721F4F0939D06E0939C060E94E5
:103A30009B1082EC9FE1DF91CF910C94AB1090E052
:103A400080E0EECFCF93DF93DC01E9018091A00607
:103A50009091A106039711F4CC0FDD1F80918E0683
:103A600090918F06009741F0909391068093900675
:103A700010928F0610928E06109293061092920664
:103A8000709389066093880650938B0640938A064C
:103A9000D0938D06C0938C0686E01A968C931A9765
:103AA00082E018968C9318971796EC911797F0E090
:103AB000EF5FF04EE4911996EC93199784E0E89F3C
:103AC000F0011124EE50F14EE4911B96EC9380919D
:103AD000A0069091A106019731F061E070E084E9C1
:103AE00096E00E94CF1C81E397E0ED9714F48FE3FA
:103AF00097E0DF91CF910C945415CF93DF93EC01B5
:103B000088810E943C17882361F080918E069091F5
:103B10008F06C817D90729F4CE01DF91CF910C94F5
:103B2000591980E0DF91CF910895BF92CF92DF9233
:103B3000EF92FF920F931F93CF93DF93EC018B01D2
:103B40007A010E947D1DB82E01151105B1F0C980C2
:103B5000DA800C0D1D1D1A830983CE010E94BC1949
:103B6000811109C011E0BB2049F0CE010E94591912
:103B7000182F811103C0DA82C98210E0E114F10428
:103B8000A1F0CB80DC80EC0CFD1CFC82EB82CE0132
:103B90000E94BC19811107C0BB2091F0CE010E9488
:103BA000591981110FC0DC82CB82812FDF91CF9117
:103BB0001F910F91FF90EF90DF90CF90BF900895ED
:103BC00011E0F3CF182FF1CFFC0186819781805847
:103BD0009640813F924068F480859185805F914155
:103BE0008137910530F481E02285338521353140DC
:103BF0000CF080E00895FC01868197818058964002
:103C0000813F924068F480859185805B9140813648
:103C1000910530F481E022853385213531400CF067
:103C200080E00895FC0142855385413B81E05807BF
:103C3000DCF586819781BC0160547640613871055E
:103C400068F420853185D901A05FB140A136B10566
:103C500068F1205A31412137310540F180539940B4
:103C60008138910568F4808591859C01205F314001
:103C700021363105D8F0805A914181379105B0F055
:103C80006137734088F44035514074F080859185E8
:103C90009C01205F31402136310540F0205B3F40E0
:103CA00081E02137310518F080E0089581E0089522
:103CB0008F929F92AF92BF92CF92DF92EF92FF923C
:103CC0000F931F93CF93DF934C018B01EA01A090D8
:103CD0008206B0908306C0908406D0908506E0905E
:103CE0008606F090870624E0880F991F2A95E1F751
:103CF0009093830680938206CB0134E0880F991F4E
:103D00003A95E1F79093850680938406CA0144E0D2
:103D1000880F991F4A95E1F790938706809386064E
:103D20008CE796E00E94121E8823D1F0B0928306A1
:103D3000A0928206D0928506C0928406F0928706F1
:103D4000E092860680E0DF91CF911F910F91FF9066
:103D5000EF90DF90CF90BF90AF909F908F9008959D
:103D600090927D0680927C0610937F0600937E06DB
:103D7000D0938106C093800681E0E5CF0F931F9317
:103D8000CF93DF938C0150E040E060EA70E080E880
:103D900090E00E94581E70E060E084E996E00E9486
:103DA000CF1C10939F0600939E06CCE9D6E0F80145
:103DB00081819281C096998388830E94EE188881C0
:103DC0009981DF91CF911F910F910C948919CF9315
:103DD000E4EDF5E030E020E080E04CE092E053E0FC
:103DE00061E079E0C4E084A315A6429FD001439F1F
:103DF000B00D1124AC52BA4F9C961C929C97853002
:103E000078F512A69B96CC9317A68F5F2F5F3F4F36
:103E10003C968B3041F71092BB061092C806109268
:103E2000A8061092A9061092AA061092AB0610924C
:103E3000AC068FEA96E00E94BE1E82EE9FE10E94D1
:103E4000AB1080E490E09093EC058093EB0580E864
:103E500090E09093EE058093ED05CF910C949B102C
:103E60008A3029F062A79B961C9277A7CECF9093B9
:103E700076069093770650937B06C7CFEF920F9309
:103E8000EE24E39408E12DE24AEA56E070E060E0B7
:103E90008AE290E00E94BA1500E02EE130E04AE0AC
:103EA00050E067E976E08DE09EE10E94A31626E2ED
:103EB00030E043E150E067E876E08DE09EE10E946B
:103EC000A31608E02FE648E156E068E370E089E0D9
:103ED00090E00E94BA158FEF9FEF90938105809339
:103EE00080050E9471101092D2061092D80610928E
:103EF000D1061092D0066091D3068CEF0E94251354
:103F00008091D0069091D106892B21F52FB7F89496
:103F10008091700590917105A0917205B091730523
:103F20002FBF4091D4065091D5066091D60670916E
:103F3000D706841B950BA60BB70B893E9340A105B2
:103F4000B10528F06091D3068CEF0E9425130E94E2
:103F5000BA13D6CF6091D3068CEF0E94251320911F
:103F6000D0063091D10688EF95E09093B10680930A
:103F7000B0061092BB061092B4061092B30681E010
:103F80002130310509F480E08093AF0684E396E0A8
:103F90009093BE068093BD061092C8061092C1068B
:103FA0001092C00681E02130310509F080E0809355
:103FB000BC060E94E71E81E08093D6051092D505CD
:103FC0001092D4050F91EF90089588EF95E09093AB
:103FD000B1068093B0061092BB061092B406109200
:103FE000B3061092AF0684E396E09093BE068093EA
:103FF000BD061092C8061092C1061092C00682E05B
:104000008093BC060E94E71E81E08093D605089548
:104010000F920FB68F939F93EF93FF938091580168
:104020008D5F8D3708F08D5780935801E0E7F5E0FC
:1040300080818E4F808391819F4F918382818F4FAA
:10404000828383818F4F8383E9E5F1E080818F5FF5
:10405000808381818F4F818382818F4F828383818F
:104060008F4F83838FB18F6066991C9B88278F3613
:1040700081F480915701981B963068F0E0E0F8E0F9
:1040800087E78083818388E180936000F0936000FC
:10409000FFCF90935701FF91EF919F918F910FBEAA
:1040A0000F9018951F920F920FB60F9211242F9315
:1040B0003F934F935F936F937F938F939F93AF93B0
:1040C000BF93CF93EF93FF93C091E1008091E10004
:1040D000837F8093E100C3FF0FC01092E90081E06D
:1040E0008093EB001092EC0082E38093ED0010923D
:1040F0006F0588E08093F000C2FF1AC00E9466102E
:1041000080914701882341F080914701815080933D
:104110004701811101C05D9A80916E05882341F0AD
:1041200080916E05815080936E05811101C0289A9F
:10413000C4FF23C08091E2008E7E81608093E20004
:104140008091E1008F7E8093E100809148018E7E16
:10415000806180934801FF91EF91CF91BF91AF9122
:104160009F918F917F916F915F914F913F912F918F
:104170000F900FBE0F901F901895C0FFECCF80914D
:10418000E2008E7E80618093E2008091E1008E7E6D
:104190008093E100809148018E7E8160DACF1F928A
:1041A0000F920FB60F921124CF92DF92EF92FF92EF
:1041B0000F931F932F933F934F935F936F937F932F
:1041C0008F939F93AF93BF93EF93FF93CF93DF931F
:1041D000CDB7DEB76C97DEBFCDBF1092E9008091FE
:1041E000E80083FF25C068E0CE0145960E947F125B
:1041F00082EF8093E8008D8987FF39C09091E800B5
:1042000090FFFCCF982F907609F034C19E894F899A
:10421000588D2F89F88C911131C0803861F58091CB
:1042200049018093F1001092F1008EEF8093E80035
:104230006C960FB6F894DEBF0FBECDBFDF91CF9165
:10424000FF91EF91BF91AF919F918F917F916F916E
:104250005F914F913F912F911F910F91FF90EF90A0
:10426000DF90CF900F900FBE0F901F9018959EEF8C
:104270009093E800C7CF1092F100D5CF913059F458
:104280008111D3CF4130510581F6809149018D7F55
:1042900080934901CACF933049F48111C6CF413090
:1042A000510519F6809149018260F2CF953041F4B1
:1042B0008091E80080FFFCCF20682093E300B5CF19
:1042C000963009F0A9C00B8D1C8D22E01092E900F8
:1042D0001092450110924401F2122EC01092430137
:1042E000109242010E944E121F8299E09983FA8235
:1042F00091E09E8390EA98879AEF998720914401F4
:1043000030914501275F3F4F3C832B838D83109273
:10431000E90010924501109244011093430100936B
:10432000420149E050E0BE016F5F7F4F80E00E9494
:1043300028120E944E1279CF10934301009342013C
:104340000E948511DC0112960D911C910115110539
:1043500009F451C1D801ED91FC910480F581E02D63
:10436000BE016B5E7F4FC8010995009709F03EC101
:10437000F80100851185EACFF3E0FF120EC08F89A6
:10438000882309F440C0823061F440E867E081ECA2
:1043900097E00E94F511811148CF81E28093EB00F4
:1043A00047CF813029F440E86BE085EB97E0F1CF0F
:1043B000833099F70E948511DC011296ED90FC90F4
:1043C0008E010F5F1F4F6801E114F10479F0D701EE
:1043D000ED91FC910680F781E02DB801C7010995A8
:1043E000080F111DF701E084F184EECFD8011C9273
:1043F000F60101900020E9F73197BF016C197D09A2
:1044000040E0C601C6CF6FE977E0FB01449150E080
:1044100080E80E94281209CF973009F4BECF983067
:1044200021F481E08093F10000CF993009F0FDCEB6
:10443000837009F0B2CFEEE0F1E081E031E096E385
:104440002191222371F08093E9003093EB00DF018A
:1044500011972C912093EC009093ED008F5F8730A3
:1044600079F78EE78093EA001092EA008F898093B3
:104470006F05DBCE8B8D9C8D1092E900109245016B
:10448000109244019093430180934201898D8111E0
:1044900092C08E899D89913A49F4813209F07DCF8D
:1044A00047E050E064E071E080E0B3CF913209F082
:1044B00074CF833269F48F89988DB0E0A0E0809347
:1044C000000190930101A0930201B0930301ADCECE
:1044D000803269F48091E80082FFFCCF67E084E0DD
:1044E00091E00E947F128BEF8093E8009ECE823293
:1044F00009F09BCE8F8980930B01EEEFFFE785914A
:1045000094918B3F9C4D51F1E0E0F8E080910401E3
:1045100090910501A0910601B0910701803B944064
:10452000A105B105F1F480910B0180FD1AC0EE3FA9
:104530008AE0F80789F587E797E791838083809180
:1045400060008093460188E19BE00FB6F894A8953F
:10455000809360000FBE9093600067CEEEEFFAE0AC
:10456000D5CF808191818737974709F05ECEA89596
:104570008091600088618093600080914601809303
:104580006000EE3F2AE0F20789F08091FE0A9091E8
:10459000FF0A9183808349CE808191818737980774
:1045A00051F29093FF0A8093FE0AC5CF1092FF0A42
:1045B0001092FE0A3ACE0E948511DC0112960D91EE
:1045C0001C910115110509F4E8CED801ED91FC917B
:1045D0000190F081E02DBE016B5E7F4FC80109950F
:1045E000811123CEF80100851185EBCF181619062D
:1045F0000CF41BCED2CEF1E0FF12BECE63EA77E020
:1046000004CF1F920F920FB60F9211242F933F9356
:104610004F935F936F937F938F939F93AF93BF93CA
:10462000EF93FF9380913E0190913F01A091400153
:10463000B0914101892B8A2B8B2B09F440C08091CA
:104640003D0181110BC088B190E4892788B9809120
:104650003C01882319F088B1805888B980913E01C7
:1046600090913F01A0914001B091410118161906A7
:104670001A061B069CF480913E0190913F01A09187
:104680004001B09141010197A109B10980933E0118
:1046900090933F01A0934001B0934101FF91EF91AE
:1046A000BF91AF919F918F917F916F915F914F914A
:1046B0003F912F910F900FBE0F901F9018950E9461
:1046C000AC14ECCF109277051092760588EE93E04B
:1046D000A0E0B0E08093780590937905A0937A05E7
:1046E000B0937B0588E191E0909375058093740504
:1046F0008FEF9FEF909381058093800584E290E196
:104700009093D3058093D20580E090E89093D105F3
:104710008093D00546983E9A47983F9AE7EDF5E09A
:1047200080E081938F5F8F30E1F71092D106109275
:10473000D0061092D4061092D5061092D60610928A
:10474000D7060895CDB7DEB76297DEBFCDBF7894A8
:1047500083E084BD83E085BD81E080936E00E1E865
:10476000F0E083E08083E0E881E08083E1E983E0BA
:104770008083E0E981E08083E1EC87E08083E3EC03
:1047800081E08083E0EC82E08083E2EC81E0808362
:10479000EAE787E080838068808310926F0510923B
:1047A0004901109248018091D70081608093D70021
:1047B00080EA8093D80089B5806189BD89B582601F
:1047C00089BD09B400FEFDCF81E090E00E949911FF
:1047D0008091D8008F7C80618093D8008091E00028
:1047E000807F8093E0008091E1008E7E8093E100E5
:1047F0008DE08093E200559A209A81EC80937C00B2
:1048000081EF85B987EE84B982E38BB982EF8AB9EB
:10481000769A6E9880EF81BB10BA80E58CBD81E0FE
:104820008DBD85E00E9467155F9A85E00E9467153F
:104830005C98E9ECF7E085918EBD00000DB407FEB1
:10484000FDCFE63DC1F75C9A81E88093640081E08A
:10485000809365000E946A1587FF15C05C9885EA01
:104860008EBD00000DB407FEFDCF5C9A2E982F98E8
:104870002D988091640080628093640081E083BF02
:10488000889513BEFCCF81E280930C0182E090E01A
:104890000E941537882319F10E94B41582E30E9403
:1048A00067150E946A158111F9CF8DE29EE1909300
:1048B000F4058093F3051092F5051092D60582E079
:1048C0008093C90680914C01882361F010924C01BD
:1048D00080E090E0892BB1F30E940000F3CF0E94AA
:1048E000AF15DCCF9091700580914D01292F281BC9
:1048F000822F20910C01821740F48F5F821740F7BE
:1049000081E083BF889513BEE3CF21E020934C0163
:1049100090934D01EAE4F1E08081918101968083DA
:1049200091838091CF068170282790915601291795
:1049300029F0882309F4A7C00E94AF158091D00602
:104940009091D106892B09F0A1C00E947215809127
:10495000D3068F5F8093D3068091D605882311F408
:104960000C94E333813011F00C946F2DC0908606C7
:10497000D090870600918C0610918D060C0D1D1DA0
:1049800080918E0690918F06892B09F0CAC38CE71F
:1049900096E00E94FB1DE82E8CE796E00E94E41D45
:1049A000F82E10938706009386068CE796E00E9407
:1049B000FB1DE81206C08CE796E00E94E41DF81685
:1049C00041F0D0928706C092860610928D06109212
:1049D0008C06C0908406D090850600918A061091BE
:1049E0008B06C601800F911F9093850680938406E5
:1049F0008CE796E00E94121E8823A9F0D0928506CB
:104A0000C092840617FF02C00F5F1F4F15950795D0
:104A100011950195110910938B0600938A0684E67F
:104A20009FE10E9454158CE796E00E94FB1DE8165A
:104A300051F020918A0630918B06E11072C0121657
:104A400013060CF470C08CE796E00E94E41DF81683
:104A500009F47EC020918A0630918B06F11074C053
:104A600037FF76C081E0F826809184069091850614
:104A7000821B930B909385068093840610928B067D
:104A800010928A0665C00E94B41558CF83E884BD91
:104A90008FEF87BD81EF8093800010928800109285
:104AA0008A000E9472156091CD068AEF0E9425133C
:104AB00081E08093D80603E81FEF51EFF52E809137
:104AC000D806882309F448CF0E94BA132FB7F89468
:104AD0008091700590917105A0917205B091730558
:104AE0002FBF4091D4065091D5066091D6067091A3
:104AF000D706841B950BA60BB70B893E9340A105E7
:104B0000B10560F004BD17BDF092800010928800DE
:104B100010938A0060E08BEF0E9425130E946610BC
:104B2000CECF37FF90CF81E0E82680918406909128
:104B30008506821B930B90938506809384061092C2
:104B40008B0610928A067FCF121613060CF48ACFBA
:104B5000C0908206D0908306009188061091890645
:104B6000C601800F911F90938306809382068CE785
:104B700096E00E94121E8823A9F0D0928306C0926C
:104B8000820617FF02C00F5F1F4F159507951195FD
:104B900001951109109389060093880684E69FE128
:104BA0000E9454158CE796E00E94FB1D8E1106C0F2
:104BB0008CE796E00E94E41D8F1591F080918206AB
:104BC000909183062091880630918906821B930B71
:104BD000909383068093820610928906109288062D
:104BE000809182069091830604E0959587950A95B9
:104BF000E1F790937D0680937C06809184069091E6
:104C0000850624E0959587952A95E1F790937F0690
:104C100080937E068091860690918706892BE1F429
:104C200080918806909189068D3F4FEF94070CF094
:104C300064C20396909389068093880680918A06C1
:104C400090918B068D3F5FEF95070CF060C2039645
:104C500090938B0680938A068091860690918706B2
:104C600097FF72C2109287061092860680918C067A
:104C700090918D06803E6FEF96070CF060C297FD15
:104C800001969595879591958195910990938D06BB
:104C900080938C06459754F08091A0069091A106D0
:104CA000019721F484E69FE10E94541580918606C5
:104CB00090918706B4E095958795BA95E1F7909322
:104CC00081068093800680917C0690917D0697FFF7
:104CD00017C010927D0610927C06109283061092E7
:104CE0008206809188069091890697FF2DC0959540
:104CF000879591958195910990938906809388066F
:104D000080917C0690917D068F3F9105E9F0E4F05B
:104D10008FEF90E090937D0680937C0680EF9FE07C
:104D200090938306809382068091880690918906ED
:104D3000181619064CF495958795919581959109CA
:104D4000909389068093880680917E0690917F06D5
:104D500097FF17C010927F0610927E06109285066C
:104D60001092840680918A0690918B0697FF2CC042
:104D70009595879591958195910990938B06809350
:104D80008A0680917E0690917F0680349140E4F0FF
:104D90008FE391E090937F0680937E0680EF93E10E
:104DA000909385068093840680918A0690918B0665
:104DB000181619064CF4959587959195819591094A
:104DC00090938B0680938A0608EF15E0F12CE12C76
:104DD0006CE0362EE091A006F091A106FC87EB87EF
:104DE000D80116969C90B2E0C12CD12C2224239499
:104DF0009B1609F468C0292D30E04DE0949EF00127
:104E00001124E155F94F80812090CA06823011F0BB
:104E1000222423949DE0929FF001939FF00D112492
:104E2000ED54F94F20813181C12CD12C0217130789
:104E300009F049C0D090CD06C090CB06882341F040
:104E4000C12CD12C813031F4D090CE06C090CC064C
:104E5000C094CD2080918E0690918F060817190777
:104E600091F168E070E0C8010E94051A811121C02B
:104E700058EFA52E55E0B52E0A151B0591F0D5016A
:104E800016968C9198120DC070E060E0C5010E94EA
:104E9000051A882331F0F50180810E943C17882390
:104EA00051F0FCE0AF0EB11C2CE736E02A153B05B3
:104EB00019F7C4FE08C03DE0939EF0011124E155AE
:104EC000F94F81E083833E9CC0013F9C900D1124EB
:104ED000AC014C525A4F5E834D83DA019C968C9103
:104EE000823008F0A1C6ED2DEF70F0E0EC5AF04EE4
:104EF000D490B2E09B123DC140907E0650907F0658
:104F000060907C0670907D06F80183809480A1807B
:104F1000B2809201A301B401C5010E94B21AD82E39
:104F20009201A301B401C5010E940B1B80329105BF
:104F30000CF017C1E4E0ED0DE770DE2EEB85FC858B
:104F4000319709F0F0C23E9CF0013F9CF00D112416
:104F5000EC52FA4F81E084A780918E0690918F06E3
:104F60000817190709F02CC483A54D2D481B550BB4
:104F70009A012C5F3F4F2930310508F418C4D81628
:104F800008F00DC4873009F019C413A60E94FC1064
:104F9000882309F449C6C4FE0BC680918E06909101
:104FA0008F060817190709F003C6B8E0DB1208C01E
:104FB0003E9CF0013F9CF00D1124EC52FA4FD3A41B
:104FC000D8011696EC91E23009F438C4BDE0EB9FAD
:104FD000F0011124E155F94F218132813E872D875F
:104FE000D80111968D909C9012971396ED91FC919B
:104FF000FE83ED832FEF3FEF3A872987B12CA12C59
:105000004D855E85445C5F4F588B4F878D2D90E0BA
:105010009A8B898B6D847E849CE0690E711C512C67
:10502000412C06151705D9F0D30113960D90BC91AC
:10503000A02DB887AF83F3010180F281E02DFC87BA
:10504000EB87A114B10409F0FCC39D01AF016D8190
:105050007E81C4010E94B21AD81609F414C4BCE0BF
:105060006B0E711CEF85F889E615F705D1F6411432
:10507000510439F4FFEFAF1ABF0A23E0A216B104BE
:1050800049F6D20111966D917C91129768197909B0
:1050900013964D915C91ED81FE814E1B5F0BFB01E0
:1050A00077FF04C0EE27FF27E61BF70B9F01DA010D
:1050B00057FF04C0AA27BB27A41BB50BCD01AE1711
:1050C000BF0714F0CF019D0195958795959587951C
:1050D000280F391F213831050CF4EBC3359527957E
:1050E00077FF02C06F5F7F4F7595679557FF02C0CE
:1050F0004F5F5F4F55954795EDCF8430910514F084
:10510000039798CD109289061092880697CD843027
:10511000910514F003979CCD10928B0610928A068D
:105120009BCD1093870600938606809192069091FE
:105130009306019690939306809392068DCD1092DC
:105140008D0610928C06B2CD892B09F4AFCD8091DB
:105150008C0690918D060C9790938D0680938C060B
:10516000A5CD803491050CF470C0B8E0DB12E6CE1A
:10517000DAC1892D90E02091A0063091A106273058
:10518000310509F069C05DE0959E9001112421551B
:10519000394F80919E0690919F062817390709F094
:1051A00054C0E0919C06F0919D06309709F44DC0E3
:1051B000D80113966D917C91149711968D919C91C5
:1051C00012970E171F07C1F44091AC06459FA0012E
:1051D00011244155594F2417350759F020E230E08A
:1051E00041EF50E00E94B21AD82EF8E0DF12ABCEA9
:1051F0009AC12FE131E0F4CF4C912091D405309148
:10520000D505242723703327232B11F523813481DF
:10521000418152810E94B21A682FC8010E94721CFB
:10522000D82EE0919C06F0919D0623813481418126
:105230005281D80113966D917C91149711968D919E
:105240009C910E940B1B809784F688E0D82E6BC13E
:10525000ED81FE81D3A4E5CF4DE0B42EB89EF001E0
:10526000B99EF00D1124ED54F94F808191810817FA
:10527000190709F47ACF8091D4059091D505FC01E6
:10528000E770FF27F887EF839B9CC00111249E01E4
:105290002F5F3F4FAE014D5F5F4FD8016C9181553D
:1052A000994F0E944517F80180810E943C1788237E
:1052B00009F492C080918E0690918F060817190705
:1052C00009F068C0D80116968C91823009F45DC04F
:1052D0008B9DC00111248155994F2091AC06BDE0F2
:1052E0002B9F900111242155394F8217930709F400
:1052F0004FC084E03E9CF0013F9CF00D1124EC5225
:10530000FA4F83A738E0D32EA0908E06B0908F0678
:105310000A151B0509F08FC1EB85FC85319709F053
:10532000FAC0D8012C90822D0E943C17F80196817A
:105330002091AC06882309F47BC0923009F473C035
:10534000FDE09F9FC00111248155994F4DE0249F9E
:10535000900111242155394F8217930709F466C033
:1053600084E03E9CF0013F9CF00D1124EC52FA4F7A
:1053700093A5981312C280919206909193068197FB
:1053800008F433CF6894C4F830CF90E080E0A5CF24
:1053900080E0B0CFF80183809480A180B280298121
:1053A0003A814B815C81B401C5010E94B21AD82EAA
:1053B000F8E08F13A9CF20917E0630917F064091AF
:1053C0007C0650917D06B401C5010E94B21AAD81E0
:1053D000BE819B968C9398CF49805A806B807C804D
:1053E000F80183809480A180B2809201A301B4016E
:1053F000C5010E940B1B41970CF486CF2F81388585
:10540000232B61F49201A301B401C5010E94B21AD9
:10541000682FC8010E94721CD82E76CFAD81BE8144
:105420009B96DC9071CF90E080E090CF80E099CFA8
:10543000923009F443C05DE0959FC001112481556D
:10544000994F6DE0269F900111242155394F821705
:105450009307B9F12FE1422E55245394D5011396A9
:105460008D909C90149711966D907C90920140E8DD
:1054700050E0B401C3010E94B21AD82E920140E854
:1054800050E0B401C3010E940B1BC09754F43E9C32
:10549000F0013F9CF00D1124EC52FA4F83A5D81671
:1054A000A1F0EF81F885EF2B99F03E9CF0013F9C35
:1054B000F00D1124EC52FA4FD3A423C090E080E009
:1054C000C0CF90E2492E512CC9CF6894C5F88DCE3B
:1054D000F1E46F1A71082FE76216710468F431E580
:1054E000831A91084FE98416910430F420FE11C00C
:1054F000D3945D2D5770D52E6D2DC5010E94721C61
:10550000D82E8091920690919306CD9708F46DCE97
:1055100039CFDA94EECF8091920690919306CD9791
:1055200010F06894C4F83E9CF0013F9CF00D1124EB
:10553000EC52FA4F14A6D8018C910E943C17882394
:1055400009F424CD80918E0690918F06892B09F065
:105550001DCDF8018681823009F434C1FDE08F9FB2
:10556000C00111248155994F40917E0650917F06CC
:105570002091AC066DE0269F900111242155394FF2
:105580003E9CF0013F9CF00D1124EC52FA4F821723
:10559000930709F41AC184E083A7413451050CF044
:1055A000F5CC80918A0690918B06813F9F4F0CF03D
:1055B000EDCC80E092E02091840630918506821B3C
:1055C000930B60918A0670918B060E947937209127
:1055D000880630918906629FC001639F900D729F7B
:1055E000900D1124B4E095958795BA95E1F7209137
:1055F0007C0630917D06820F931F9C012F55310947
:105600002234310508F0C2CCF80121813281A90190
:1056100045505109841795070CF0E6C03E9CF001F7
:105620003F9CF00D1124EC52FA4F85E084A7D8017D
:105630001A961C92ABCC8091A0069091A10601977E
:1056400009F093CDA114B10429F0C5010E947D1D7C
:1056500081118BCD60907E0670907F0680907C06D5
:1056600090907D06D80113960D90BC91A02DBE831D
:10567000AD83F801418052809301A401BD01C201B4
:105680000E940B1B9A878987D80116968C91A114CA
:10569000B10429F0F501968198130C940737B12CC9
:1056A0008230D9F5A301B40190E080E00E94361C5D
:1056B000B12C0817190709F058CDAF81B885AB2B6D
:1056C00009F062C09301A4016D817E81C2010E9434
:1056D000B21AD82EBB2009F448CDE091CA06B4E036
:1056E000EB9FF0011124E45BF04EE49129853A85AB
:1056F0002A3031050CF039CD8091920690919306B5
:10570000E817190638F0D8018C910E943C178823BD
:1057100009F42BCD6894C5F828CDFDE08F9FC0011A
:105720001124A301B4018155994F0E94361CBB205E
:1057300009F4BECF44E0249E90011124F901E35BFB
:10574000F04EE4914091920650919306E4171506AD
:1057500011F008F00ACD0817190799F0F901E25B7A
:10576000F04E8491F901E15BF04EE4918417150647
:1057700011F008F0FACC89859A85E81719060CF41F
:10578000F4CCBB24B39499CF3E9CF0013F9CF00D28
:105790001124EC52FA4FD3A49DCFD82ED4CB8D1523
:1057A00008F0F4CB811105C087E083A7EFCBD816B2
:1057B00010F48150FACF8D1508F0E8CB8F5FF5CF4C
:1057C000D3A6E4CB90E080E0CFCE13A64F3F5105A7
:1057D0000CF4DCCB80918A0690918B0640970CF4F8
:1057E000D5CB80EF91E1E7CEA9014B5F5F4F481722
:1057F00059074CF43E9CF0013F9CF00D1124EC52F3
:10580000FA4F86E013CF821793075CF43E9CF001B9
:105810003F9CF00D1124EC52FA4F86E083A781E003
:1058200005CF281739070CF002CF3E9CF0013F9CB2
:10583000F00D1124EC52FA4F82E0F0CFF0E0E0E0FE
:10584000CBCBF1E0AF16B104F1F42F8138854B8555
:105850005C856D817E81C4010E94B21A90E0298925
:105860003A89821B930B97FF03C09195819591090B
:10587000853091052CF048E050E0481B590BCA01D7
:1058800003970CF0ECCB2F8138854B855C856D81BF
:105890007E81C4010E940B1B4114510431F0A98583
:1058A000BA858A179B070CF0DACB9A878987230180
:1058B000D6CB2115310551F0203231053CF4220FB1
:1058C000331F660F771F440F551FF3CF359527956C
:1058D0002E31310514F42EE130E0C8010E94221D62
:1058E000FFEFEF1AFF0A045F1F4F2BE0E216F104EF
:1058F00009F070CA8091A0069091A10687309105A9
:1059000009F462C608F055C4009709F4A4C60197CB
:1059100009F4AAC48091A4069091A506A091A606B8
:10592000B091A7060196A11DB11D8093A406909386
:10593000A506A093A606B093A7068FEA96E00E945C
:10594000271B8CEB96E00E94271B20917C06309150
:105950007D0680917E0690917F064091A006509131
:10596000A10647305105C1F4E0919C06F0919D06D7
:10597000309791F0C090A406D090A506E090A606BE
:10598000F090A7066FE1C616D104E104F10420F0FF
:105990002181328183819481E0918E06F0918F067E
:1059A000309709F0E8C640918806509189065595D0
:1059B000479555954795E0918A06F0918B06F595A8
:1059C000E795F595E7956091EF057091F0056417FF
:1059D00075070CF0EAC66F5F7F4F7093F005609318
:1059E000EF054091F1055091F2054E175F070CF05D
:1059F000E3C64F5F5F4F5093F2054093F10540912E
:105A0000EF055091F005240F351F4091F10550919D
:105A1000F205840F951F6091EB057091EC054091A4
:105A2000ED055091EE0520543109261B370B3595B5
:105A300027952530310514F024E030E08097841B51
:105A4000950B959587958530910514F084E090E04D
:105A50002C3FEFEF3E0714F42CEF3FEF260F371FDC
:105A60003093EC052093EB058C3FFFEF9F0714F478
:105A70008CEF9FEF840F951F9093EE058093ED05BB
:105A800037FF04C01092EC051092EB052091EB0556
:105A90003091EC052138310534F020E830E03093C6
:105AA000EC052093EB0597FF04C01092EE051092D1
:105AB000ED058091ED059091EE058130914034F037
:105AC00080E091E09093EE058093ED058091AF0624
:105AD000823029F48091CD0684FD1092D605809104
